{"abi":[{"type":"function","name":"DOMAIN_SEPARATOR","inputs":[],"outputs":[{"name":"","type":"bytes32","internalType":"bytes32"}],"stateMutability":"view"},{"type":"function","name":"invalidateUnorderedNonces","inputs":[{"name":"wordPos","type":"uint256","internalType":"uint256"},{"name":"mask","type":"uint256","internalType":"uint256"}],"outputs":[],"stateMutability":"nonpayable"},{"type":"function","name":"nonceBitmap","inputs":[{"name":"","type":"address","internalType":"address"},{"name":"","type":"uint256","internalType":"uint256"}],"outputs":[{"name":"","type":"uint256","internalType":"uint256"}],"stateMutability":"view"},{"type":"function","name":"permitTransferFrom","inputs":[{"name":"permit","type":"tuple","internalType":"struct ISignatureTransfer.PermitTransferFrom","components":[{"name":"permitted","type":"tuple","internalType":"struct ISignatureTransfer.TokenPermissions","components":[{"name":"token","type":"address","internalType":"address"},{"name":"amount","type":"uint256","internalType":"uint256"}]},{"name":"nonce","type":"uint256","internalType":"uint256"},{"name":"deadline","type":"uint256","internalType":"uint256"}]},{"name":"transferDetails","type":"tuple","internalType":"struct ISignatureTransfer.SignatureTransferDetails","components":[{"name":"to","type":"address","internalType":"address"},{"name":"requestedAmount","type":"uint256","internalType":"uint256"}]},{"name":"owner","type":"address","internalType":"address"},{"name":"signature","type":"bytes","internalType":"bytes"}],"outputs":[],"stateMutability":"nonpayable"},{"type":"function","name":"permitTransferFrom","inputs":[{"name":"permit","type":"tuple","internalType":"struct ISignatureTransfer.PermitBatchTransferFrom","components":[{"name":"permitted","type":"tuple[]","internalType":"struct ISignatureTransfer.TokenPermissions[]","components":[{"name":"token","type":"address","internalType":"address"},{"name":"amount","type":"uint256","internalType":"uint256"}]},{"name":"nonce","type":"uint256","internalType":"uint256"},{"name":"deadline","type":"uint256","internalType":"uint256"}]},{"name":"transferDetails","type":"tuple[]","internalType":"struct ISignatureTransfer.SignatureTransferDetails[]","components":[{"name":"to","type":"address","internalType":"address"},{"name":"requestedAmount","type":"uint256","internalType":"uint256"}]},{"name":"owner","type":"address","internalType":"address"},{"name":"signature","type":"bytes","internalType":"bytes"}],"outputs":[],"stateMutability":"nonpayable"},{"type":"function","name":"permitWitnessTransferFrom","inputs":[{"name":"permit","type":"tuple","internalType":"struct ISignatureTransfer.PermitTransferFrom","components":[{"name":"permitted","type":"tuple","internalType":"struct ISignatureTransfer.TokenPermissions","components":[{"name":"token","type":"address","internalType":"address"},{"name":"amount","type":"uint256","internalType":"uint256"}]},{"name":"nonce","type":"uint256","internalType":"uint256"},{"name":"deadline","type":"uint256","internalType":"uint256"}]},{"name":"transferDetails","type":"tuple","internalType":"struct ISignatureTransfer.SignatureTransferDetails","components":[{"name":"to","type":"address","internalType":"address"},{"name":"requestedAmount","type":"uint256","internalType":"uint256"}]},{"name":"owner","type":"address","internalType":"address"},{"name":"witness","type":"bytes32","internalType":"bytes32"},{"name":"witnessTypeString","type":"string","internalType":"string"},{"name":"signature","type":"bytes","internalType":"bytes"}],"outputs":[],"stateMutability":"nonpayable"},{"type":"function","name":"permitWitnessTransferFrom","inputs":[{"name":"permit","type":"tuple","internalType":"struct ISignatureTransfer.PermitBatchTransferFrom","components":[{"name":"permitted","type":"tuple[]","internalType":"struct ISignatureTransfer.TokenPermissions[]","components":[{"name":"token","type":"address","internalType":"address"},{"name":"amount","type":"uint256","internalType":"uint256"}]},{"name":"nonce","type":"uint256","internalType":"uint256"},{"name":"deadline","type":"uint256","internalType":"uint256"}]},{"name":"transferDetails","type":"tuple[]","internalType":"struct ISignatureTransfer.SignatureTransferDetails[]","components":[{"name":"to","type":"address","internalType":"address"},{"name":"requestedAmount","type":"uint256","internalType":"uint256"}]},{"name":"owner","type":"address","internalType":"address"},{"name":"witness","type":"bytes32","internalType":"bytes32"},{"name":"witnessTypeString","type":"string","internalType":"string"},{"name":"signature","type":"bytes","internalType":"bytes"}],"outputs":[],"stateMutability":"nonpayable"},{"type":"event","name":"UnorderedNonceInvalidation","inputs":[{"name":"owner","type":"address","indexed":true,"internalType":"address"},{"name":"word","type":"uint256","indexed":false,"internalType":"uint256"},{"name":"mask","type":"uint256","indexed":false,"internalType":"uint256"}],"anonymous":false},{"type":"error","name":"InvalidAmount","inputs":[{"name":"maxAmount","type":"uint256","internalType":"uint256"}]},{"type":"error","name":"InvalidContractSignature","inputs":[]},{"type":"error","name":"InvalidNonce","inputs":[]},{"type":"error","name":"InvalidSignature","inputs":[]},{"type":"error","name":"InvalidSignatureLength","inputs":[]},{"type":"error","name":"InvalidSigner","inputs":[]},{"type":"error","name":"LengthMismatch","inputs":[]},{"type":"error","name":"SignatureExpired","inputs":[{"name":"signatureDeadline","type":"uint256","internalType":"uint256"}]}],"bytecode":{"object":"0x60c03460b7574660a052602081017f8cad95687ba82c2ce50e74f7b754645e5117c3a5bec8151c0726d5857980a86681527f9ac997416e8ff9d2ff6bebeb7149f65cdae5e32e2b90440b566bb3044041d36a60408301524660608301523060808301526080825260a082019180831060018060401b0384111760a35782604052519020608052610f9990816100bc823960805181610968015260a051816109420152f35b634e487b7160e01b5f52604160045260245ffd5b5f80fdfe60406080815260049081361015610014575f80fd5b5f3560e01c8063137c29fe1461052257806330f28b7a146104655780633644e515146104425780633ff9dcb1146103e15780634fe02b441461039e578063edd9444b146102785763fe8ec1a714610069575f80fd5b346102745760c0366003190112610274576001600160401b03918035838111610274576100999036908301610821565b602435848111610274576100b0903690840161090f565b6100b861075c565b91608435878111610274576100d090369087016107dd565b97909560a435918211610274576100e9913691016107dd565b9690958151906100f8826106d4565b606b82527f5065726d697442617463685769746e6573735472616e7366657246726f6d285460208301527f6f6b656e5065726d697373696f6e735b5d207065726d69747465642c61646472838301527f657373207370656e6465722c75696e74323536206e6f6e63652c75696e74323560608301526a0d88191958591b1a5b994b60aa1b60808301528251998a91816101956020850180966109fa565b918237015f815203986101b0601f199a8b8101835282610725565b519020908551516101c081610abe565b905f5b81811061024c57505061024a996102419183516101f4816101e8602082018095610b18565b03848101835282610725565b519020602089810151858b015195519182019687526040820192909252336060820152608081019190915260a081019390935260643560c08401528260e081015b03908101835282610725565b51902093610b54565b005b8061026361025d6001938c51610af0565b51610c3d565b61026d8286610af0565b52016101c3565b5f80fd5b509034610274576080366003190112610274576001600160401b038135818111610274576102a99036908401610821565b602435828111610274576102c0903690850161090f565b9390926102cb61075c565b91606435918211610274576102e2913691016107dd565b949093835151966102f288610abe565b975f5b81811061037c57505061024a97815161032481610316602082018095610b18565b03601f198101835282610725565b5190206020860151828701519083519260208401947ffcf35f5ac6a2c28868dc44c302166470266239195f02b0ee408334829333b7668652840152336060840152608083015260a082015260a081526102418161070a565b8061038d61025d6001938a51610af0565b610397828d610af0565b52016102f5565b509034610274578160031936011261027457356001600160a01b0381169190829003610274576020915f525f8252805f206024355f528252805f20549051908152f35b5090346102745781600319360112610274577f3704902f963766a4e561bbaab6e6cdc1b1dd12f6e9e99648da8843b3f46b918d903591602435335f525f602052815f20845f52602052815f20818154179055815193845260208401523392a2005b5034610274575f3660031901126102745760209061045e61093f565b9051908152f35b5034610274576101003660031901126102745761048136610772565b908060831936011261027457610495610746565b9160e4356001600160401b0381116102745761024a946104b7913691016107dd565b9390926104c48351610c3d565b6020840151828501519083519260208401947f939c21a48a8dbe3a9a2404a1d46691e4d39f6583d6ec6b35714604c986d801068652840152336060840152608083015260a082015260a081526105198161070a565b51902091610a23565b509034610274576101403660031901126102745761053f36610772565b918060831936011261027457610553610746565b6001600160401b039390610104358581116102745761057590369086016107dd565b909361012435968711610274576105956105199661024a983691016107dd565b9690958251906105a4826106d4565b606482527f5065726d69745769746e6573735472616e7366657246726f6d28546f6b656e5060208301527f65726d697373696f6e73207065726d69747465642c6164647265737320737065848301527f6e6465722c75696e74323536206e6f6e63652c75696e7432353620646561646c6060830152631a5b994b60e21b608083015283519485918161063a6020850180966109fa565b918237015f81520393610655601f1995868101835282610725565b519020926106638651610c3d565b6020878101518589015195519182019687526040820192909252336060820152608081019190915260a081019390935260e43560c08401528260e08101610235565b606081019081106001600160401b038211176106c057604052565b634e487b7160e01b5f52604160045260245ffd5b60a081019081106001600160401b038211176106c057604052565b608081019081106001600160401b038211176106c057604052565b60c081019081106001600160401b038211176106c057604052565b90601f801991011681019081106001600160401b038211176106c057604052565b60c435906001600160a01b038216820361027457565b604435906001600160a01b038216820361027457565b60031901906080821261027457604080519061078d826106a5565b808294126102745780518181018181106001600160401b038211176106c05782526004356001600160a01b0381168103610274578152602435602082015282526044356020830152606435910152565b9181601f84011215610274578235916001600160401b038311610274576020838186019501011161027457565b6001600160401b0381116106c05760051b60200190565b91909160608184031261027457604080519161083c836106a5565b82948135906001600160401b039182811161027457830181601f8201121561027457803560209361086c8261080a565b9361087988519586610725565b828552858086019360061b85010193818511610274579086899897969594939201925b8484106108b9575050505050855280820135908501520135910152565b90919293949596978483031261027457885190898201828110858211176106c0578a528435906001600160a01b0382168203610274578289928c945282870135838201528152019301919088979695949361089c565b9181601f84011215610274578235916001600160401b038311610274576020808501948460061b01011161027457565b467f00000000000000000000000000000000000000000000000000000000000000000361098a577f000000000000000000000000000000000000000000000000000000000000000090565b60405160208101907f8cad95687ba82c2ce50e74f7b754645e5117c3a5bec8151c0726d5857980a86682527f9ac997416e8ff9d2ff6bebeb7149f65cdae5e32e2b90440b566bb3044041d36a6040820152466060820152306080820152608081526109f4816106d4565b51902090565b908151915f5b838110610a10575050015f815290565b8060208092840101518185015201610a00565b9192909360a435936040840151804211610aa65750602084510151808611610a8e5750918591610a63610a6994610a5e602088015186610c8c565b610cd5565b91610d1c565b51516001600160a01b0390811692608435918216820361027457610a8c93610ee9565b565b60249060405190633728b83d60e01b82526004820152fd5b6024906040519063cd21db4f60e01b82526004820152fd5b90610ac88261080a565b610ad56040519182610725565b8281528092610ae6601f199161080a565b0190602036910137565b8051821015610b045760209160051b010190565b634e487b7160e01b5f52603260045260245ffd5b80516020809201915f5b828110610b30575050505090565b835185529381019392810192600101610b22565b9190811015610b045760061b0190565b959190939295805151956040936040830151804211610aa65750838803610c2857610b8f918991610a63602098610a5e602088015186610c8c565b5f5b868110610ba2575050505050505050565b610bad818351610af0565b519085610bbb82868a610b44565b013586830151808211610c11575080610bda575b506001915001610b91565b91516001600160a01b039290831690610bf483878b610b44565b359384168403610274576001938b610c0b93610ee9565b5f610bcf565b602490875190633728b83d60e01b82526004820152fd5b6040516001621398b960e31b03198152600490fd5b6040516020808201927f618358ac3db8dc274f0cd8829da7e234bd48cd73c4a740aede1adec9846d06a1845260018060a01b03815116604084015201516060820152606081526109f4816106ef565b90600160ff82161b9160018060a01b03165f525f60205260405f209060081c5f5260205260405f20818154188091551615610cc357565b604051633ab3447f60e11b8152600490fd5b610cdd61093f565b9060405190602082019261190160f01b845260228301526042820152604281526109f4816106ef565b9190826040910312610274576020823592013590565b833b610e225760418203610dbf57610d3682820182610d06565b93909260401015610b04576020935f9360ff6040608095013560f81c5b60405194855216868401526040830152606082015282805260015afa15610db4575f516001600160a01b03908116918215610da2571603610d9057565b604051632057875960e21b8152600490fd5b604051638baa579f60e01b8152600490fd5b6040513d5f823e3d90fd5b60408203610e1057610dd391810190610d06565b6001600160ff1b0381169260ff91821c601b01918211610dfc576020935f9360ff608094610d53565b634e487b7160e01b5f52601160045260245ffd5b604051634be6321b60e01b8152600490fd5b908092936020926064604051809681958294630b135d3f60e11b9a8b8552600485015260406024850152816044850152848401375f828201840152601f01601f191681010301916001600160a01b03165afa908115610db4575f91610ea6575b506001600160e01b03191603610e9457565b604051632c19a72f60e21b8152600490fd5b90506020813d602011610ee1575b81610ec160209383610725565b8101031261027457516001600160e01b031981168103610274575f610e82565b3d9150610eb4565b905f6064926020958295604051946323b872dd60e01b86526004860152602485015260448401525af13d15601f3d1160015f511416171615610f2757565b60405162461bcd60e51b81526020600482015260146024820152731514905394d1915497d19493d357d1905253115160621b6044820152606490fdfea264697066735822122082fb3d66aa129151e438b05ee47fb52a4884c14f9383a5db553dbddcb4bd627b64736f6c63430008190033","linkReferences":{}},"methodIdentifiers":{"DOMAIN_SEPARATOR()":"3644e515","invalidateUnorderedNonces(uint256,uint256)":"3ff9dcb1","nonceBitmap(address,uint256)":"4fe02b44","permitTransferFrom(((address,uint256),uint256,uint256),(address,uint256),address,bytes)":"30f28b7a","permitTransferFrom(((address,uint256)[],uint256,uint256),(address,uint256)[],address,bytes)":"edd9444b","permitWitnessTransferFrom(((address,uint256),uint256,uint256),(address,uint256),address,bytes32,string,bytes)":"137c29fe","permitWitnessTransferFrom(((address,uint256)[],uint256,uint256),(address,uint256)[],address,bytes32,string,bytes)":"fe8ec1a7"},"id":56}