{"abi":[{"type":"fallback","stateMutability":"payable"},{"type":"receive","stateMutability":"payable"},{"type":"function","name":"aggregate","inputs":[{"name":"targets","type":"address[]","internalType":"address[]"},{"name":"data","type":"bytes[]","internalType":"bytes[]"},{"name":"values","type":"uint256[]","internalType":"uint256[]"},{"name":"refundTo","type":"address","internalType":"address"}],"outputs":[{"name":"","type":"bytes[]","internalType":"bytes[]"}],"stateMutability":"payable"},{"type":"error","name":"ArrayLengthsMismatch","inputs":[]}],"bytecode":{"object":"0x6080806040523460155761028e908161001a8239f35b5f80fdfe60806040526004361015610015575b366101d157005b5f3560e01c63991f255f0361000e5760803660031901126100a05767ffffffffffffffff6004358181116100a0576100519036906004016100a4565b6024929192358281116100a05761006c9036906004016100a4565b90926044359081116100a0576100869036906004016100a4565b6064359590949193906001600160a01b03871687146100d5575b5f80fd5b9181601f840112156100a05782359167ffffffffffffffff83116100a0576020808501948460051b0101116100a057565b9295939094861486861416156101c4578592604096610143575b5050505080610104575b5060205f526020525ff35b47156100f9573381186001821402185f3881804785620186a0f16100f9575f526073600b5360ff6020536016600b47f01561013f575f6100f9565b3838fd5b91939592839060051b9283868637838501935b82518701908681015f808435806020809701853783603f19808a8c010135908a8a0101355af1156101bc578185523d90523d5f606083013e603f601f19913d010116920195888588146101ab57509591610156565b9650505091505001925f80806100ef565b3d5f803e3d5ffd5b633b800a463d526004601cfd5b3d356366e0daa08160e01c146101e5573d3dfd5b193d5260043d815b809236821015610240578135831a60018093019481156102145750815301905b90916101ed565b3d19835260020194607f9150353d1a81811115610235575b1601019061020d565b83810138843961022c565b5f809181305af43d5f803e15610254573d5ff35b3d5ffdfea264697066735822122070364c4db819cb772f1d938cfd8bfcfaa0096440969deca9c4148bed666de4ea64736f6c63430008190033","linkReferences":{}},"methodIdentifiers":{"aggregate(address[],bytes[],uint256[],address)":"991f255f"},"id":57}