{"abi":[{"type":"function","name":"DOMAIN_SEPARATOR","inputs":[],"outputs":[{"name":"","type":"bytes32","internalType":"bytes32"}],"stateMutability":"view"},{"type":"function","name":"allowance","inputs":[{"name":"","type":"address","internalType":"address"},{"name":"","type":"address","internalType":"address"},{"name":"","type":"address","internalType":"address"}],"outputs":[{"name":"amount","type":"uint160","internalType":"uint160"},{"name":"expiration","type":"uint48","internalType":"uint48"},{"name":"nonce","type":"uint48","internalType":"uint48"}],"stateMutability":"view"},{"type":"function","name":"approve","inputs":[{"name":"token","type":"address","internalType":"address"},{"name":"spender","type":"address","internalType":"address"},{"name":"amount","type":"uint160","internalType":"uint160"},{"name":"expiration","type":"uint48","internalType":"uint48"}],"outputs":[],"stateMutability":"nonpayable"},{"type":"function","name":"invalidateNonces","inputs":[{"name":"token","type":"address","internalType":"address"},{"name":"spender","type":"address","internalType":"address"},{"name":"newNonce","type":"uint48","internalType":"uint48"}],"outputs":[],"stateMutability":"nonpayable"},{"type":"function","name":"invalidateUnorderedNonces","inputs":[{"name":"wordPos","type":"uint256","internalType":"uint256"},{"name":"mask","type":"uint256","internalType":"uint256"}],"outputs":[],"stateMutability":"nonpayable"},{"type":"function","name":"lockdown","inputs":[{"name":"approvals","type":"tuple[]","internalType":"struct IAllowanceTransfer.TokenSpenderPair[]","components":[{"name":"token","type":"address","internalType":"address"},{"name":"spender","type":"address","internalType":"address"}]}],"outputs":[],"stateMutability":"nonpayable"},{"type":"function","name":"nonceBitmap","inputs":[{"name":"","type":"address","internalType":"address"},{"name":"","type":"uint256","internalType":"uint256"}],"outputs":[{"name":"","type":"uint256","internalType":"uint256"}],"stateMutability":"view"},{"type":"function","name":"permit","inputs":[{"name":"owner","type":"address","internalType":"address"},{"name":"permitBatch","type":"tuple","internalType":"struct IAllowanceTransfer.PermitBatch","components":[{"name":"details","type":"tuple[]","internalType":"struct IAllowanceTransfer.PermitDetails[]","components":[{"name":"token","type":"address","internalType":"address"},{"name":"amount","type":"uint160","internalType":"uint160"},{"name":"expiration","type":"uint48","internalType":"uint48"},{"name":"nonce","type":"uint48","internalType":"uint48"}]},{"name":"spender","type":"address","internalType":"address"},{"name":"sigDeadline","type":"uint256","internalType":"uint256"}]},{"name":"signature","type":"bytes","internalType":"bytes"}],"outputs":[],"stateMutability":"nonpayable"},{"type":"function","name":"permit","inputs":[{"name":"owner","type":"address","internalType":"address"},{"name":"permitSingle","type":"tuple","internalType":"struct IAllowanceTransfer.PermitSingle","components":[{"name":"details","type":"tuple","internalType":"struct IAllowanceTransfer.PermitDetails","components":[{"name":"token","type":"address","internalType":"address"},{"name":"amount","type":"uint160","internalType":"uint160"},{"name":"expiration","type":"uint48","internalType":"uint48"},{"name":"nonce","type":"uint48","internalType":"uint48"}]},{"name":"spender","type":"address","internalType":"address"},{"name":"sigDeadline","type":"uint256","internalType":"uint256"}]},{"name":"signature","type":"bytes","internalType":"bytes"}],"outputs":[],"stateMutability":"nonpayable"},{"type":"function","name":"permitTransferFrom","inputs":[{"name":"permit","type":"tuple","internalType":"struct ISignatureTransfer.PermitTransferFrom","components":[{"name":"permitted","type":"tuple","internalType":"struct ISignatureTransfer.TokenPermissions","components":[{"name":"token","type":"address","internalType":"address"},{"name":"amount","type":"uint256","internalType":"uint256"}]},{"name":"nonce","type":"uint256","internalType":"uint256"},{"name":"deadline","type":"uint256","internalType":"uint256"}]},{"name":"transferDetails","type":"tuple","internalType":"struct ISignatureTransfer.SignatureTransferDetails","components":[{"name":"to","type":"address","internalType":"address"},{"name":"requestedAmount","type":"uint256","internalType":"uint256"}]},{"name":"owner","type":"address","internalType":"address"},{"name":"signature","type":"bytes","internalType":"bytes"}],"outputs":[],"stateMutability":"nonpayable"},{"type":"function","name":"permitTransferFrom","inputs":[{"name":"permit","type":"tuple","internalType":"struct ISignatureTransfer.PermitBatchTransferFrom","components":[{"name":"permitted","type":"tuple[]","internalType":"struct ISignatureTransfer.TokenPermissions[]","components":[{"name":"token","type":"address","internalType":"address"},{"name":"amount","type":"uint256","internalType":"uint256"}]},{"name":"nonce","type":"uint256","internalType":"uint256"},{"name":"deadline","type":"uint256","internalType":"uint256"}]},{"name":"transferDetails","type":"tuple[]","internalType":"struct ISignatureTransfer.SignatureTransferDetails[]","components":[{"name":"to","type":"address","internalType":"address"},{"name":"requestedAmount","type":"uint256","internalType":"uint256"}]},{"name":"owner","type":"address","internalType":"address"},{"name":"signature","type":"bytes","internalType":"bytes"}],"outputs":[],"stateMutability":"nonpayable"},{"type":"function","name":"permitWitnessTransferFrom","inputs":[{"name":"permit","type":"tuple","internalType":"struct ISignatureTransfer.PermitTransferFrom","components":[{"name":"permitted","type":"tuple","internalType":"struct ISignatureTransfer.TokenPermissions","components":[{"name":"token","type":"address","internalType":"address"},{"name":"amount","type":"uint256","internalType":"uint256"}]},{"name":"nonce","type":"uint256","internalType":"uint256"},{"name":"deadline","type":"uint256","internalType":"uint256"}]},{"name":"transferDetails","type":"tuple","internalType":"struct ISignatureTransfer.SignatureTransferDetails","components":[{"name":"to","type":"address","internalType":"address"},{"name":"requestedAmount","type":"uint256","internalType":"uint256"}]},{"name":"owner","type":"address","internalType":"address"},{"name":"witness","type":"bytes32","internalType":"bytes32"},{"name":"witnessTypeString","type":"string","internalType":"string"},{"name":"signature","type":"bytes","internalType":"bytes"}],"outputs":[],"stateMutability":"nonpayable"},{"type":"function","name":"permitWitnessTransferFrom","inputs":[{"name":"permit","type":"tuple","internalType":"struct ISignatureTransfer.PermitBatchTransferFrom","components":[{"name":"permitted","type":"tuple[]","internalType":"struct ISignatureTransfer.TokenPermissions[]","components":[{"name":"token","type":"address","internalType":"address"},{"name":"amount","type":"uint256","internalType":"uint256"}]},{"name":"nonce","type":"uint256","internalType":"uint256"},{"name":"deadline","type":"uint256","internalType":"uint256"}]},{"name":"transferDetails","type":"tuple[]","internalType":"struct ISignatureTransfer.SignatureTransferDetails[]","components":[{"name":"to","type":"address","internalType":"address"},{"name":"requestedAmount","type":"uint256","internalType":"uint256"}]},{"name":"owner","type":"address","internalType":"address"},{"name":"witness","type":"bytes32","internalType":"bytes32"},{"name":"witnessTypeString","type":"string","internalType":"string"},{"name":"signature","type":"bytes","internalType":"bytes"}],"outputs":[],"stateMutability":"nonpayable"},{"type":"function","name":"transferFrom","inputs":[{"name":"transferDetails","type":"tuple[]","internalType":"struct IAllowanceTransfer.AllowanceTransferDetails[]","components":[{"name":"from","type":"address","internalType":"address"},{"name":"to","type":"address","internalType":"address"},{"name":"amount","type":"uint160","internalType":"uint160"},{"name":"token","type":"address","internalType":"address"}]}],"outputs":[],"stateMutability":"nonpayable"},{"type":"function","name":"transferFrom","inputs":[{"name":"from","type":"address","internalType":"address"},{"name":"to","type":"address","internalType":"address"},{"name":"amount","type":"uint160","internalType":"uint160"},{"name":"token","type":"address","internalType":"address"}],"outputs":[],"stateMutability":"nonpayable"},{"type":"event","name":"Approval","inputs":[{"name":"owner","type":"address","indexed":true,"internalType":"address"},{"name":"token","type":"address","indexed":true,"internalType":"address"},{"name":"spender","type":"address","indexed":true,"internalType":"address"},{"name":"amount","type":"uint160","indexed":false,"internalType":"uint160"},{"name":"expiration","type":"uint48","indexed":false,"internalType":"uint48"}],"anonymous":false},{"type":"event","name":"Lockdown","inputs":[{"name":"owner","type":"address","indexed":true,"internalType":"address"},{"name":"token","type":"address","indexed":false,"internalType":"address"},{"name":"spender","type":"address","indexed":false,"internalType":"address"}],"anonymous":false},{"type":"event","name":"NonceInvalidation","inputs":[{"name":"owner","type":"address","indexed":true,"internalType":"address"},{"name":"token","type":"address","indexed":true,"internalType":"address"},{"name":"spender","type":"address","indexed":true,"internalType":"address"},{"name":"newNonce","type":"uint48","indexed":false,"internalType":"uint48"},{"name":"oldNonce","type":"uint48","indexed":false,"internalType":"uint48"}],"anonymous":false},{"type":"event","name":"Permit","inputs":[{"name":"owner","type":"address","indexed":true,"internalType":"address"},{"name":"token","type":"address","indexed":true,"internalType":"address"},{"name":"spender","type":"address","indexed":true,"internalType":"address"},{"name":"amount","type":"uint160","indexed":false,"internalType":"uint160"},{"name":"expiration","type":"uint48","indexed":false,"internalType":"uint48"},{"name":"nonce","type":"uint48","indexed":false,"internalType":"uint48"}],"anonymous":false},{"type":"event","name":"UnorderedNonceInvalidation","inputs":[{"name":"owner","type":"address","indexed":true,"internalType":"address"},{"name":"word","type":"uint256","indexed":false,"internalType":"uint256"},{"name":"mask","type":"uint256","indexed":false,"internalType":"uint256"}],"anonymous":false},{"type":"error","name":"AllowanceExpired","inputs":[{"name":"deadline","type":"uint256","internalType":"uint256"}]},{"type":"error","name":"ExcessiveInvalidation","inputs":[]},{"type":"error","name":"InsufficientAllowance","inputs":[{"name":"amount","type":"uint256","internalType":"uint256"}]},{"type":"error","name":"InvalidAmount","inputs":[{"name":"maxAmount","type":"uint256","internalType":"uint256"}]},{"type":"error","name":"InvalidContractSignature","inputs":[]},{"type":"error","name":"InvalidNonce","inputs":[]},{"type":"error","name":"InvalidSignature","inputs":[]},{"type":"error","name":"InvalidSignatureLength","inputs":[]},{"type":"error","name":"InvalidSigner","inputs":[]},{"type":"error","name":"LengthMismatch","inputs":[]},{"type":"error","name":"SignatureExpired","inputs":[{"name":"signatureDeadline","type":"uint256","internalType":"uint256"}]}],"bytecode":{"object":"0x60c03460b7574660a052602081017f8cad95687ba82c2ce50e74f7b754645e5117c3a5bec8151c0726d5857980a86681527f9ac997416e8ff9d2ff6bebeb7149f65cdae5e32e2b90440b566bb3044041d36a60408301524660608301523060808301526080825260a082019180831060018060401b0384111760a35782604052519020608052611a9790816100bc82396080518161125c015260a051816112360152f35b634e487b7160e01b5f52604160045260245ffd5b5f80fdfe604060808152600480361015610013575f80fd5b5f3560e01c80630d58b1db14610e44578063137c29fe14610cbe5780632a2d80d114610a735780632b67b570146108ff57806330f28b7a146108415780633644e5151461081e57806336c78516146107d85780633ff9dcb1146107785780634fe02b441461073957806365d9723c1461062e57806387517c451461054e578063927da105146104ce578063cc53287f146103f6578063edd9444b146102d15763fe8ec1a7146100c0575f80fd5b346102cd5760c03660031901126102cd576001600160401b0381358181116102cd576100ef9036908401611126565b6024358281116102cd5761010690369085016110f6565b61010e61100a565b916084358581116102cd57610126903690880161109f565b60a4969196359182116102cd57610208610146608b998b9436910161109f565b9990986a0d88191958591b1a5b994b60aa1b6080865161016581610f71565b606b81527f6f6b656e5065726d697373696f6e735b5d207065726d69747465642c6164647260208201987f5065726d697442617463685769746e6573735472616e7366657246726f6d28548a528201527f657373207370656e6465722c75696e74323536206e6f6e63652c75696e74323560608201520152838c51948592606b6020850198895e8484015f81523781015f8382015203606b810184520182610fa7565b5190208451519761021889611469565b985f5b8181106102a45750506102996102a2998251908161023d60208201809361149b565b0391610251601f1993848101835282610fa7565b519020602089810151858b015195519182019687526040820192909252336060820152608081019190915260a081019390935260643560c084015260e0908101835282610fa7565b519020936117e1565b005b808b6102c6826102c06102ba6001968e5161120b565b51611941565b9261120b565b520161021b565b5f80fd5b50346102cd5760803660031901126102cd576001600160401b0381358181116102cd576103019036908401611126565b6024358281116102cd5761031890369085016110f6565b93909261032361100a565b916064359182116102cd5761033a9136910161109f565b9490938351519661034a88611469565b975f5b8181106103d45750506102a297815161037c8161036e60208201809561149b565b03601f198101835282610fa7565b5190206020860151828701519083519260208401947ffcf35f5ac6a2c28868dc44c302166470266239195f02b0ee408334829333b7668652840152336060840152608083015260a082015260a0815261029981610f8c565b806103e56102ba6001938a5161120b565b6103ef828d61120b565b520161034d565b5090346102cd57602091826003193601126102cd578035906001600160401b0382116102cd57610428913691016110f6565b5f5b81811061043357005b8061044961044460019385876112ee565b6112fe565b61045e876104588487896112ee565b016112fe565b335f52838852865f2091848060a01b0380911692835f528952875f20911690815f528852865f206bffffffffffffffffffffffff60a01b81541690558651918252878201527f89b1add15eff56b3dfe299ad94e01f2b52fbcb80ae1a3baea6ae8c04cb2b98a4863392a20161042a565b82346102cd5760603660031901126102cd576104e8610fde565b906104f1610ff4565b6104f961100a565b6001600160a01b039384165f9081526001602090815284822093861682529283528381209185168152908252829020549151928216835265ffffffffffff60a083901c169083015260d01c6040820152606090f35b82346102cd5760803660031901126102cd57610568610fde565b90610571610ff4565b9161057a61100a565b906064359265ffffffffffff93848116908181036102cd577fda9fa7c1b00402c17d0161b249b1ab8bbec047c5a52207b9c112deffd817036b93335f526001602052835f209660018060a01b0380921697885f5260205281855f20991698895f52602052845f209284155f1461062657504216905b82546001600160d01b03191660a09290921b65ffffffffffff60a01b169190911795169485179055815193845260208401523392a4005b9050906105ef565b5090346102cd5760603660031901126102cd57610649610fde565b610651610ff4565b916044359065ffffffffffff808316928381036102cd57335f5260209060018252835f209560018060a01b0380911696875f528352845f20971696875f528252835f205460d01c92838611156107295761ffff90848303161161071957907f55eb90d810e1700b35a8e7e25395ff7f2b2259abd7415ca2284dfb1c246418f3939291335f5260018252835f20875f528252835f20885f528252835f209081549065ffffffffffff60d01b9060d01b169060018060d01b031617905582519485528401523392a4005b8351631269ad1360e11b81528890fd5b8451633ab3447f60e11b81528990fd5b82346102cd57806003193601126102cd576020906001600160a01b0361075d610fde565b165f525f8252805f206024355f528252805f20549051908152f35b50346102cd57816003193601126102cd577f3704902f963766a4e561bbaab6e6cdc1b1dd12f6e9e99648da8843b3f46b918d903591602435335f525f602052815f20845f52602052815f20818154179055815193845260208401523392a2005b346102cd5760803660031901126102cd576107f1610fde565b6107f9610ff4565b61080161100a565b606435916001600160a01b03831683036102cd576102a293611312565b82346102cd575f3660031901126102cd5760209061083a611233565b9051908152f35b5090346102cd576101003660031901126102cd5761085e36611034565b90806083193601126102cd57610872610fc8565b9160e4356001600160401b0381116102cd576102a2946108949136910161109f565b9390926108a18351611941565b6020840151828501519083519260208401947f939c21a48a8dbe3a9a2404a1d46691e4d39f6583d6ec6b35714604c986d801068652840152336060840152608083015260a082015260a081526108f681610f8c565b519020916113d6565b50346102cd576101003660031901126102cd5761091a610fde565b366023190160c081126102cd57608084519161093583610f56565b126102cd5783519061094682610f27565b6001600160a01b039160243583811681036102cd57815260443583811681036102cd57602082015265ffffffffffff60643581811681036102cd578783015260843590811681036102cd576060820152815260a4359382851685036102cd576020820194855260c4359086830182815260e4356001600160401b0381116102cd576109d4903690840161109f565b929093804211610a5d575050918591610a4d6102a299610a53956109f888516119d9565b90898c511690519083519260208401947ff3841cd1ff0085026a6327b620b67997ce40f282c88a8e905a7a5626e310f3d086528401526060830152608082015260808152610a4581610f71565b5190206114c7565b9161150e565b51925116916116db565b895163cd21db4f60e01b81529182015260249150fd5b50346102cd57606090600319906060823601126102cd57610a92610fde565b92602435916001600160401b03938484116102cd5760609084360301126102cd57855195610abf87610f56565b838201358581116102cd578401366023820112156102cd578281013593610ae5856110cc565b91610af284519384610fa7565b85835260209560248785019160071b830101913683116102cd57602401905b828210610c62575050505087526044610b2c60248601611020565b94848901958652013592818801958487526044359081116102cd57610b54903690850161109f565b939094804211610c4c5750508796975151610b6e81611469565b905f5b818110610c1f57505082899492610a4d92610bee979551610b998161036e858201809561149b565b51902060018060a01b03998a8a51169051918451938401947faf1b0d30d2cab0380e68f0689007e3254993c596f2fdd0aaa7f4d04f7944086386528401526060830152608082015260808152610a4581610f71565b511690805151915f5b838110610c0057005b80610c198387610c13600195885161120b565b516116db565b01610bf7565b80610c38610c326001938d9e9d5161120b565b516119d9565b610c42828661120b565b5201999899610b71565b835163cd21db4f60e01b81529182015260249150fd5b6080823603126102cd57876080918751610c7b81610f27565b610c8485611020565b8152610c91838601611020565b83820152610ca08986016110e3565b89820152610caf8786016110e3565b87820152815201910190610b11565b5090346102cd576101403660031901126102cd57610cdb36611034565b90806083193601126102cd57610cef610fc8565b6001600160401b039290610104358481116102cd57610d11903690870161109f565b939094610124359081116102cd576102a296610d2f9136910161109f565b959094610df16084845193610d4385610f71565b60648552631a5b994b60e21b608060208701967f5065726d69745769746e6573735472616e7366657246726f6d28546f6b656e5088527f65726d697373696f6e73207065726d69747465642c6164647265737320737065898201527f6e6465722c75696e74323536206e6f6e63652c75696e7432353620646561646c6060820152015283865194859260646020850198895e8484015f81523781015f83820152036064810184520182610fa7565b519020906108f6610e028551611941565b6020868101518488015194519182019586526040820192909252336060820152608081019190915260a081019290925260e43560c08301528160e0810161036e565b50346102cd5760209160206003193601126102cd578135906001600160401b03928383116102cd57366023840112156102cd578201359283116102cd5760249160073660248660071b840101116102cd575f5b858110610ea057005b80821b830190608060231983360301126102cd57610f21858960019460608a610f066084610eda875193610ed385610f27565b8601611020565b94858452610eea60448201611020565b8097850152610efb60648201611020565b809885015201611020565b9182910152868060a01b038080809316951693169116611312565b01610e97565b608081019081106001600160401b03821117610f4257604052565b634e487b7160e01b5f52604160045260245ffd5b606081019081106001600160401b03821117610f4257604052565b60a081019081106001600160401b03821117610f4257604052565b60c081019081106001600160401b03821117610f4257604052565b90601f801991011681019081106001600160401b03821117610f4257604052565b60c435906001600160a01b03821682036102cd57565b600435906001600160a01b03821682036102cd57565b602435906001600160a01b03821682036102cd57565b604435906001600160a01b03821682036102cd57565b35906001600160a01b03821682036102cd57565b6003190190608082126102cd57604080519061104f82610f56565b808294126102cd5780518181018181106001600160401b03821117610f425782526004356001600160a01b03811681036102cd578152602435602082015282526044356020830152606435910152565b9181601f840112156102cd578235916001600160401b0383116102cd57602083818601950101116102cd57565b6001600160401b038111610f425760051b60200190565b359065ffffffffffff821682036102cd57565b9181601f840112156102cd578235916001600160401b0383116102cd576020808501948460061b0101116102cd57565b9190916060818403126102cd57604080519161114183610f56565b82948135906001600160401b03918281116102cd57830181601f820112156102cd578035602093611171826110cc565b9361117e88519586610fa7565b828552858086019360061b850101938185116102cd579086899897969594939201925b8484106111be575050505050855280820135908501520135910152565b9091929394959697848303126102cd578851908982019082821085831117610f42578a92899284526111ef87611020565b81528287013583820152815201930191908897969594936111a1565b805182101561121f5760209160051b010190565b634e487b7160e01b5f52603260045260245ffd5b467f00000000000000000000000000000000000000000000000000000000000000000361127e577f000000000000000000000000000000000000000000000000000000000000000090565b60405160208101907f8cad95687ba82c2ce50e74f7b754645e5117c3a5bec8151c0726d5857980a86682527f9ac997416e8ff9d2ff6bebeb7149f65cdae5e32e2b90440b566bb3044041d36a6040820152466060820152306080820152608081526112e881610f71565b51902090565b919081101561121f5760061b0190565b356001600160a01b03811681036102cd5790565b92919260018060a01b038082165f5260016020528060405f20941693845f5260205260405f20335f5260205260405f209485549565ffffffffffff8760a01c168042116113be575082871696838803611376575b5050611374955016926118c7565b565b87848416115f1461139a5760405163f96fb07160e01b815260048101899052602490fd5b8383611374990316906bffffffffffffffffffffffff60a01b161790555f80611366565b60249060405190636c0d979760e11b82526004820152fd5b9192909360a43593604084015180421161145157506020845101518086116114395750918591610a4d61141694611411602088015186611990565b6114c7565b51516001600160a01b039081169260843591821682036102cd57611374936118c7565b60249060405190633728b83d60e01b82526004820152fd5b6024906040519063cd21db4f60e01b82526004820152fd5b90611473826110cc565b6114806040519182610fa7565b8281528092611491601f19916110cc565b0190602036910137565b80516020809201915f5b8281106114b3575050505090565b8351855293810193928101926001016114a5565b6114cf611233565b9060405190602082019261190160f01b845260228301526042820152604281526112e881610f27565b91908260409103126102cd576020823592013590565b833b61161457604182036115b157611528828201826114f8565b9390926040101561121f576020935f9360ff6040608095013560f81c5b60405194855216868401526040830152606082015282805260015afa156115a6575f516001600160a01b0390811691821561159457160361158257565b604051632057875960e21b8152600490fd5b604051638baa579f60e01b8152600490fd5b6040513d5f823e3d90fd5b60408203611602576115c5918101906114f8565b6001600160ff1b0381169260ff91821c601b019182116115ee576020935f9360ff608094611545565b634e487b7160e01b5f52601160045260245ffd5b604051634be6321b60e01b8152600490fd5b908092936020926064604051809681958294630b135d3f60e11b9a8b8552600485015260406024850152816044850152848401375f828201840152601f01601f191681010301916001600160a01b03165afa9081156115a6575f91611698575b506001600160e01b0319160361168657565b604051632c19a72f60e21b8152600490fd5b90506020813d6020116116d3575b816116b360209383610fa7565b810103126102cd57516001600160e01b0319811681036102cd575f611674565b3d91506116a6565b9065ffffffffffff90816060840151169160018060a01b039283855116948460208201511692858160408094015116951695865f526001602052825f20885f52602052825f20981697885f52602052815f209083825460d01c036117d057918493917fc6a377bfc4eb120024a8ac08eef205be16b817020812c73223e81d1bdb9708ec96956117c49487155f146117c95742165b6001850160d01b6001600160d01b03191660a09190911b65ffffffffffff60a01b1617179055516001600160a01b03909316835265ffffffffffff938416602084015290921660408201529081906060820190565b0390a4565b508661176f565b8251633ab3447f60e11b8152600490fd5b9590939580515195604092604083015180421161145157508488036118b25761181a918691610a4d60209b611411602088015186611990565b5f5b86811061182d575050505050505050565b61183881835161120b565b518861184583878a6112ee565b0135908981015180831161189b57509181888888600196859661186f575b5050505050500161181c565b6118909561188a92610444928a8060a01b03905116956112ee565b916118c7565b805f88888883611863565b602490865190633728b83d60e01b82526004820152fd5b6040516001621398b960e31b03198152600490fd5b905f6064926020958295604051946323b872dd60e01b86526004860152602485015260448401525af13d15601f3d1160015f51141617161561190557565b60405162461bcd60e51b81526020600482015260146024820152731514905394d1915497d19493d357d1905253115160621b6044820152606490fd5b6040516020808201927f618358ac3db8dc274f0cd8829da7e234bd48cd73c4a740aede1adec9846d06a1845260018060a01b03815116604084015201516060820152606081526112e881610f27565b90600160ff82161b9160018060a01b03165f525f60205260405f209060081c5f5260205260405f208181541880915516156119c757565b604051633ab3447f60e11b8152600490fd5b60405160208101917f65626cad6cb96493bf6f5ebea28756c966f023ab9e8a83a7101849d5573b3678835260018060a01b038082511660408401526020820151166060830152606060408201519165ffffffffffff809316608085015201511660a082015260a0815260c081018181106001600160401b03821117610f42576040525190209056fea264697066735822122065ba2d140cd85ae8223ad530bc32ec4868319a3494884b7654507745b7c9ad7464736f6c63430008190033","linkReferences":{}},"methodIdentifiers":{"DOMAIN_SEPARATOR()":"3644e515","allowance(address,address,address)":"927da105","approve(address,address,uint160,uint48)":"87517c45","invalidateNonces(address,address,uint48)":"65d9723c","invalidateUnorderedNonces(uint256,uint256)":"3ff9dcb1","lockdown((address,address)[])":"cc53287f","nonceBitmap(address,uint256)":"4fe02b44","permit(address,((address,uint160,uint48,uint48),address,uint256),bytes)":"2b67b570","permit(address,((address,uint160,uint48,uint48)[],address,uint256),bytes)":"2a2d80d1","permitTransferFrom(((address,uint256),uint256,uint256),(address,uint256),address,bytes)":"30f28b7a","permitTransferFrom(((address,uint256)[],uint256,uint256),(address,uint256)[],address,bytes)":"edd9444b","permitWitnessTransferFrom(((address,uint256),uint256,uint256),(address,uint256),address,bytes32,string,bytes)":"137c29fe","permitWitnessTransferFrom(((address,uint256)[],uint256,uint256),(address,uint256)[],address,bytes32,string,bytes)":"fe8ec1a7","transferFrom((address,address,uint160,address)[])":"0d58b1db","transferFrom(address,address,uint160,address)":"36c78516"},"id":35}