{"abi":[{"type":"constructor","inputs":[{"name":"permit2","type":"address","internalType":"address"}],"stateMutability":"nonpayable"},{"type":"fallback","stateMutability":"payable"},{"type":"receive","stateMutability":"payable"},{"type":"function","name":"_EIP_712_RELAYER_WITNESS_TYPE_HASH","inputs":[],"outputs":[{"name":"","type":"bytes32","internalType":"bytes32"}],"stateMutability":"view"},{"type":"function","name":"_RELAYER_WITNESS_TYPE_STRING","inputs":[],"outputs":[{"name":"","type":"string","internalType":"string"}],"stateMutability":"view"},{"type":"function","name":"cleanupERC20","inputs":[{"name":"token","type":"address","internalType":"address"},{"name":"refundTo","type":"address","internalType":"address"}],"outputs":[],"stateMutability":"nonpayable"},{"type":"function","name":"delegatecallMulticall","inputs":[{"name":"targets","type":"address[]","internalType":"address[]"},{"name":"datas","type":"bytes[]","internalType":"bytes[]"},{"name":"values","type":"uint256[]","internalType":"uint256[]"},{"name":"refundTo","type":"address","internalType":"address"}],"outputs":[{"name":"","type":"bytes[]","internalType":"bytes[]"}],"stateMutability":"payable"},{"type":"function","name":"onERC1155BatchReceived","inputs":[{"name":"","type":"address","internalType":"address"},{"name":"","type":"address","internalType":"address"},{"name":"_ids","type":"uint256[]","internalType":"uint256[]"},{"name":"_values","type":"uint256[]","internalType":"uint256[]"},{"name":"_data","type":"bytes","internalType":"bytes"}],"outputs":[{"name":"","type":"bytes4","internalType":"bytes4"}],"stateMutability":"nonpayable"},{"type":"function","name":"onERC1155Received","inputs":[{"name":"","type":"address","internalType":"address"},{"name":"","type":"address","internalType":"address"},{"name":"_id","type":"uint256","internalType":"uint256"},{"name":"_value","type":"uint256","internalType":"uint256"},{"name":"_data","type":"bytes","internalType":"bytes"}],"outputs":[{"name":"","type":"bytes4","internalType":"bytes4"}],"stateMutability":"nonpayable"},{"type":"function","name":"onERC721Received","inputs":[{"name":"","type":"address","internalType":"address"},{"name":"","type":"address","internalType":"address"},{"name":"_tokenId","type":"uint256","internalType":"uint256"},{"name":"_data","type":"bytes","internalType":"bytes"}],"outputs":[{"name":"","type":"bytes4","internalType":"bytes4"}],"stateMutability":"nonpayable"},{"type":"function","name":"permitMulticall","inputs":[{"name":"user","type":"address","internalType":"address"},{"name":"permit","type":"tuple","internalType":"struct ISignatureTransfer.PermitBatchTransferFrom","components":[{"name":"permitted","type":"tuple[]","internalType":"struct ISignatureTransfer.TokenPermissions[]","components":[{"name":"token","type":"address","internalType":"address"},{"name":"amount","type":"uint256","internalType":"uint256"}]},{"name":"nonce","type":"uint256","internalType":"uint256"},{"name":"deadline","type":"uint256","internalType":"uint256"}]},{"name":"targets","type":"address[]","internalType":"address[]"},{"name":"datas","type":"bytes[]","internalType":"bytes[]"},{"name":"values","type":"uint256[]","internalType":"uint256[]"},{"name":"refundTo","type":"address","internalType":"address"},{"name":"permitSignature","type":"bytes","internalType":"bytes"}],"outputs":[{"name":"","type":"bytes[]","internalType":"bytes[]"}],"stateMutability":"payable"},{"type":"error","name":"AddressEmptyCode","inputs":[{"name":"target","type":"address","internalType":"address"}]},{"type":"error","name":"AddressInsufficientBalance","inputs":[{"name":"account","type":"address","internalType":"address"}]},{"type":"error","name":"ArrayLengthsMismatch","inputs":[]},{"type":"error","name":"FailedInnerCall","inputs":[]},{"type":"error","name":"InvalidRecipient","inputs":[{"name":"recipient","type":"address","internalType":"address"}]},{"type":"error","name":"NativeTransferFailed","inputs":[]},{"type":"error","name":"NoRecipientSet","inputs":[]},{"type":"error","name":"SafeERC20FailedOperation","inputs":[{"name":"token","type":"address","internalType":"address"}]}],"bytecode":{"object":"0x60a034608b57601f6111b638819003918201601f19168301916001600160401b03831184841017608f57808492602094604052833981010312608b57516001600160a01b03811690819003608b577fde8722880b5dd233e72245d89ecf1926d842675ee7337f75a172abc8abc5ba875f5560805260405161111290816100a4823960805181610b420152f35b5f80fd5b634e487b7160e01b5f52604160045260245ffdfe6080806040526004361015610017575b5036610ce257005b5f3560e01c908163150b7a021461009e575080633806a3cf146100995780633dad0c9c1461009457806366b9ca7b1461008f5780636e305f801461008a578063bc197c8114610085578063c99a0d65146100805763f23a6e611461007b575f61000f565b6108ec565b6108b2565b61080f565b61067c565b6105d2565b6103e4565b6103b5565b346101715780600319360112610171576100b6610184565b506100bf61019a565b506064356001600160401b038111610171576100df9036906004016101f0565b5f545490929190610100906001600160a01b03165b6001600160a01b031690565b906001600160a01b0382161561017557333b1561017157635c46a7ef60e11b83525f93607f1992610136929060443590306109f4565b018183335af1801561016c5761015d575b604051630a85bd0160e11b8152602090f35b0390f35b6101676080604052565b610147565b610a2d565b5f80fd5b63f36675c360e01b8352600483fd5b600435906001600160a01b038216820361017157565b602435906001600160a01b038216820361017157565b60a435906001600160a01b038216820361017157565b606435906001600160a01b038216820361017157565b35906001600160a01b038216820361017157565b9181601f84011215610171578235916001600160401b038311610171576020838186019501011161017157565b5f91031261017157565b634e487b7160e01b5f52604160045260245ffd5b606081019081106001600160401b0382111761025657604052565b610227565b604081019081106001600160401b0382111761025657604052565b6001600160401b03811161025657604052565b608081019081106001600160401b0382111761025657604052565b90601f801991011681019081106001600160401b0382111761025657604052565b604051906102d28261025b565b565b6001600160401b03811161025657601f01601f191660200190565b6040519060a082018281106001600160401b03821117610256576040526064825263756e742960e01b6080837f52656c617965725769746e657373207769746e6573732952656c61796572576960208201527f746e65737328616464726573732072656c6179657229546f6b656e5065726d6960408201527f7373696f6e73286164647265737320746f6b656e2c75696e7432353620616d6f60608201520152565b805180835260209291819084018484015e5f828201840152601f01601f1916010190565b34610171575f366003190112610171576101596103d06102ef565b604051918291602083526020830190610391565b34610171576040366003190112610171576103fd610184565b61040561019a565b6040516370a0823160e01b81523060048201526001600160a01b039092169190602082602481865afa91821561016c575f9261044f575b508161044457005b61044d92610d69565b005b9091506020813d60201161047b575b8161046b602093836102a4565b810103126101715751905f61043c565b3d915061045e565b6001600160401b0381116102565760051b60200190565b90916060828403126101715760408051906104b48261023b565b819380356001600160401b03811161017157810186601f820112156101715780356020916104e182610483565b916104ee865193846102a4565b808352838084019160061b830101918a8311610171578401905b8282106105275750505084528181013590840152810135910152909150565b86828c031261017157848791825161053e8161025b565b610547856101dc565b81528285013583820152815201910190610508565b9181601f84011215610171578235916001600160401b038311610171576020808501948460051b01011161017157565b81601f82011215610171578035906105a3826102d4565b926105b160405194856102a4565b8284526020838301011161017157815f926020809301838601378301015290565b60e0366003190112610171576105e6610184565b6001600160401b036024358181116101715761060690369060040161049a565b6044358281116101715761061e90369060040161055c565b6064929192358481116101715761063990369060040161055c565b916084358681116101715761065290369060040161055c565b95909461065d6101b0565b9760c4359081116101715761067690369060040161058c565b98610a38565b60803660031901126101715760046001600160401b038135818111610171576106a8903690840161055c565b91602435818111610171576106c0903690860161055c565b949091604435908111610171576106da903690830161055c565b9390916106e56101c6565b9486881490811582610805575b6107f4576106ff87610e3f565b881416156107e9575090859291604096610768575b5050505080610729575b5060205f526020525ff35b471561071e573381186001821402185f3881804785620186a0f161071e575f526073600b5360ff6020536016600b47f015610764575f61071e565b3838fd5b91939592839060051b9283868637838501935b82518701908681015f808435806020809701853783603f19808a8c010135908a8a0101355af1156107e1578185523d90523d5f606083013e603f601f19913d010116920195888588146107d05750959161077b565b9650505091505001925f8080610714565b3d5f803e3d5ffd5b633b800a463d52601cfd5b604051631dc0052360e11b81528390fd5b50808914156106f2565b346101715760a036600319011261017157610828610184565b5061083161019a565b506001600160401b036044358181116101715761085290369060040161055c565b6064929192358281116101715761086d90369060040161055c565b608494919435938411610171576101599461088f6108979536906004016101f0565b949093610c01565b6040516001600160e01b031990911681529081906020820190565b34610171575f3660031901126101715760206040517f4910260415865c6d3ecf96968c7d912a0d533a72c3479ab1e1df0f4eb86fb0088152f35b346101715760a036600319011261017157610905610184565b5061090e61019a565b506084356001600160401b0381116101715761092e9036906004016101f0565b5f5454909190610946906001600160a01b03166100f4565b906001600160a01b038216156109c257333b15610171575f916109866040519485938493637921219560e11b855260643590604435903060048801610cac565b038183335af1801561016c576109a9575b60405163f23a6e6160e01b8152602090f35b806109b66109bc92610276565b8061021d565b5f610997565b60405163f36675c360e01b8152600490fd5b908060209392818452848401375f828201840152601f01601f1916010190565b6001600160a01b039081166084521660a45260c452608060e4526101048290526101249190819083375f81830152601f01601f19160190565b6040513d5f823e3d90fd5b909192939495969798868514801590610bd3575b610bc157610a598a610e3f565b8051610a68575b505050611027565b95919894909793604097939751976020986020810190610acf81610ac13385919091602060408201937f4910260415865c6d3ecf96968c7d912a0d533a72c3479ab1e1df0f4eb86fb008835260018060a01b0316910152565b03601f1981018352826102a4565b519020610add8c5151610e86565b9b5f5b81518051821015610b295790610b228f82908f80610b0084600198610ee4565b510151610b0b6102c5565b30815291820152610b1c8383610ee4565b52610ee4565b5001610ae0565b505093979b909498919599509991959960018060a01b037f00000000000000000000000000000000000000000000000000000000000000001691610b6b6102ef565b94833b1561017157610b985f96928793604051998a988997889663fe8ec1a760e01b885260048801610f5e565b03925af1801561016c57610bae575b8080610a60565b806109b6610bbb92610276565b5f610ba7565b604051631dc0052360e11b8152600490fd5b5088871415610a4c565b81835290916001600160fb1b0383116101715760209260051b809284830137010190565b949192909260018060a01b035f5454169283156109c257333b15610171575f95610c6d610c7c94610c596040519a8b998a99631759616b60e11b8b523060048c015260248b015260a060448b015260a48a0191610bdd565b9060031995868984030160648a0152610bdd565b928584030160848601526109d4565b038183335af1801561016c57610c99575b5063bc197c8160e01b90565b806109b6610ca692610276565b5f610c8d565b9192610cdf96949160a094600180871b0380921685521660208401526040830152606082015281608082015201916109d4565b90565b3d356366e0daa08160e01c14610cf6573d3dfd5b193d5260043d815b809236821015610d51578135831a6001809301948115610d255750815301905b9091610cfe565b3d19835260020194607f9150353d1a81811115610d46575b16010190610d1e565b838101388439610d3d565b5f809181305af43d5f803e15610d65573d5ff35b3d5ffd5b915f8091610ddc9360405195602087019263a9059cbb60e01b845260018060a01b038093166024890152604488015260448752610da587610289565b1694519082865af13d15610e37573d90610dbe826102d4565b91610dcc60405193846102a4565b82523d5f602084013e5b83611079565b8051908115159182610e15575b5050610df25750565b604051635274afe760e01b81526001600160a01b03919091166004820152602490fd5b610e30925090602080610e2c938301019101611061565b1590565b5f80610de9565b606090610dd6565b6001600160a01b031680158015610e7c575b610e7957308114610e61575f5455565b604051630bc2c5df60e11b8152306004820152602490fd5b50565b5060018114610e51565b90610e9082610483565b604090610ea060405191826102a4565b8381528093610eb1601f1991610483565b01915f5b838110610ec25750505050565b6020908251610ed08161025b565b5f8152825f81830152828601015201610eb5565b8051821015610ef85760209160051b010190565b634e487b7160e01b5f52603260045260245ffd5b9081518082526020808093019301915f5b828110610f2b575050505090565b9091929382604082610f5260019489516020809160018060a01b0381511684520151910152565b01950193929101610f1d565b9491969593909660c086526101208601978051606060c08901528051809a526101408801996020809201915f5b828110610ffc5750505050610fca610cdf9899610fee969594936040846020610fdc96015160e08d015201516101008b015289820360208b0152610f0c565b6001600160a01b039094166040880152565b60608601528482036080860152610391565b9160a0818403910152610391565b835180516001600160a01b03168e52602090810151908e01526040909c019b92810192600101610f8b565b929593909486148686141615611054578592604096610768575050505080610729575060205f526020525ff35b633b800a463d526004601cfd5b90816020910312610171575180151581036101715790565b906110a0575080511561108e57805190602001fd5b604051630a12f52160e11b8152600490fd5b815115806110d3575b6110b1575090565b604051639996b31560e01b81526001600160a01b039091166004820152602490fd5b50803b156110a956fea26469706673582212200a52db7dba1b2f7508bc2d23723c71c1786a7e278c9930cb88bbd8c9a61a88b364736f6c63430008190033","linkReferences":{}},"methodIdentifiers":{"_EIP_712_RELAYER_WITNESS_TYPE_HASH()":"c99a0d65","_RELAYER_WITNESS_TYPE_STRING()":"3806a3cf","cleanupERC20(address,address)":"3dad0c9c","delegatecallMulticall(address[],bytes[],uint256[],address)":"6e305f80","onERC1155BatchReceived(address,address,uint256[],uint256[],bytes)":"bc197c81","onERC1155Received(address,address,uint256,uint256,bytes)":"f23a6e61","onERC721Received(address,address,uint256,bytes)":"150b7a02","permitMulticall(address,((address,uint256)[],uint256,uint256),address[],bytes[],uint256[],address,bytes)":"66b9ca7b"},"id":56}