{"abi":[{"type":"function","name":"DOMAIN_SEPARATOR","inputs":[],"outputs":[{"name":"","type":"bytes32","internalType":"bytes32"}],"stateMutability":"view"},{"type":"function","name":"allowance","inputs":[{"name":"","type":"address","internalType":"address"},{"name":"","type":"address","internalType":"address"},{"name":"","type":"address","internalType":"address"}],"outputs":[{"name":"amount","type":"uint160","internalType":"uint160"},{"name":"expiration","type":"uint48","internalType":"uint48"},{"name":"nonce","type":"uint48","internalType":"uint48"}],"stateMutability":"view"},{"type":"function","name":"approve","inputs":[{"name":"token","type":"address","internalType":"address"},{"name":"spender","type":"address","internalType":"address"},{"name":"amount","type":"uint160","internalType":"uint160"},{"name":"expiration","type":"uint48","internalType":"uint48"}],"outputs":[],"stateMutability":"nonpayable"},{"type":"function","name":"invalidateNonces","inputs":[{"name":"token","type":"address","internalType":"address"},{"name":"spender","type":"address","internalType":"address"},{"name":"newNonce","type":"uint48","internalType":"uint48"}],"outputs":[],"stateMutability":"nonpayable"},{"type":"function","name":"lockdown","inputs":[{"name":"approvals","type":"tuple[]","internalType":"struct IAllowanceTransfer.TokenSpenderPair[]","components":[{"name":"token","type":"address","internalType":"address"},{"name":"spender","type":"address","internalType":"address"}]}],"outputs":[],"stateMutability":"nonpayable"},{"type":"function","name":"permit","inputs":[{"name":"owner","type":"address","internalType":"address"},{"name":"permitBatch","type":"tuple","internalType":"struct IAllowanceTransfer.PermitBatch","components":[{"name":"details","type":"tuple[]","internalType":"struct IAllowanceTransfer.PermitDetails[]","components":[{"name":"token","type":"address","internalType":"address"},{"name":"amount","type":"uint160","internalType":"uint160"},{"name":"expiration","type":"uint48","internalType":"uint48"},{"name":"nonce","type":"uint48","internalType":"uint48"}]},{"name":"spender","type":"address","internalType":"address"},{"name":"sigDeadline","type":"uint256","internalType":"uint256"}]},{"name":"signature","type":"bytes","internalType":"bytes"}],"outputs":[],"stateMutability":"nonpayable"},{"type":"function","name":"permit","inputs":[{"name":"owner","type":"address","internalType":"address"},{"name":"permitSingle","type":"tuple","internalType":"struct IAllowanceTransfer.PermitSingle","components":[{"name":"details","type":"tuple","internalType":"struct IAllowanceTransfer.PermitDetails","components":[{"name":"token","type":"address","internalType":"address"},{"name":"amount","type":"uint160","internalType":"uint160"},{"name":"expiration","type":"uint48","internalType":"uint48"},{"name":"nonce","type":"uint48","internalType":"uint48"}]},{"name":"spender","type":"address","internalType":"address"},{"name":"sigDeadline","type":"uint256","internalType":"uint256"}]},{"name":"signature","type":"bytes","internalType":"bytes"}],"outputs":[],"stateMutability":"nonpayable"},{"type":"function","name":"transferFrom","inputs":[{"name":"transferDetails","type":"tuple[]","internalType":"struct IAllowanceTransfer.AllowanceTransferDetails[]","components":[{"name":"from","type":"address","internalType":"address"},{"name":"to","type":"address","internalType":"address"},{"name":"amount","type":"uint160","internalType":"uint160"},{"name":"token","type":"address","internalType":"address"}]}],"outputs":[],"stateMutability":"nonpayable"},{"type":"function","name":"transferFrom","inputs":[{"name":"from","type":"address","internalType":"address"},{"name":"to","type":"address","internalType":"address"},{"name":"amount","type":"uint160","internalType":"uint160"},{"name":"token","type":"address","internalType":"address"}],"outputs":[],"stateMutability":"nonpayable"},{"type":"event","name":"Approval","inputs":[{"name":"owner","type":"address","indexed":true,"internalType":"address"},{"name":"token","type":"address","indexed":true,"internalType":"address"},{"name":"spender","type":"address","indexed":true,"internalType":"address"},{"name":"amount","type":"uint160","indexed":false,"internalType":"uint160"},{"name":"expiration","type":"uint48","indexed":false,"internalType":"uint48"}],"anonymous":false},{"type":"event","name":"Lockdown","inputs":[{"name":"owner","type":"address","indexed":true,"internalType":"address"},{"name":"token","type":"address","indexed":false,"internalType":"address"},{"name":"spender","type":"address","indexed":false,"internalType":"address"}],"anonymous":false},{"type":"event","name":"NonceInvalidation","inputs":[{"name":"owner","type":"address","indexed":true,"internalType":"address"},{"name":"token","type":"address","indexed":true,"internalType":"address"},{"name":"spender","type":"address","indexed":true,"internalType":"address"},{"name":"newNonce","type":"uint48","indexed":false,"internalType":"uint48"},{"name":"oldNonce","type":"uint48","indexed":false,"internalType":"uint48"}],"anonymous":false},{"type":"event","name":"Permit","inputs":[{"name":"owner","type":"address","indexed":true,"internalType":"address"},{"name":"token","type":"address","indexed":true,"internalType":"address"},{"name":"spender","type":"address","indexed":true,"internalType":"address"},{"name":"amount","type":"uint160","indexed":false,"internalType":"uint160"},{"name":"expiration","type":"uint48","indexed":false,"internalType":"uint48"},{"name":"nonce","type":"uint48","indexed":false,"internalType":"uint48"}],"anonymous":false},{"type":"error","name":"AllowanceExpired","inputs":[{"name":"deadline","type":"uint256","internalType":"uint256"}]},{"type":"error","name":"ExcessiveInvalidation","inputs":[]},{"type":"error","name":"InsufficientAllowance","inputs":[{"name":"amount","type":"uint256","internalType":"uint256"}]},{"type":"error","name":"InvalidContractSignature","inputs":[]},{"type":"error","name":"InvalidNonce","inputs":[]},{"type":"error","name":"InvalidSignature","inputs":[]},{"type":"error","name":"InvalidSignatureLength","inputs":[]},{"type":"error","name":"InvalidSigner","inputs":[]},{"type":"error","name":"SignatureExpired","inputs":[{"name":"signatureDeadline","type":"uint256","internalType":"uint256"}]}],"bytecode":{"object":"0x60c03460b7574660a052602081017f8cad95687ba82c2ce50e74f7b754645e5117c3a5bec8151c0726d5857980a86681527f9ac997416e8ff9d2ff6bebeb7149f65cdae5e32e2b90440b566bb3044041d36a60408301524660608301523060808301526080825260a082019180831060018060401b0384111760a3578260405251902060805261109e90816100bc823960805181610ae1015260a05181610abb0152f35b634e487b7160e01b5f52604160045260245ffd5b5f80fdfe60406080815260049081361015610014575f80fd5b5f3560e01c80630d58b1db146108725780632a2d80d1146105bf5780632b67b570146104495780633644e5151461042657806336c78516146103de57806365d9723c146102d657806387517c45146101f7578063927da105146101795763cc53287f1461007f575f80fd5b3461017557602091826003193601126101755780359067ffffffffffffffff90818311610175573660238401121561017557820135908111610175576024820191602436918360061b010111610175575f5b8181106100da57005b806100f06100eb6001938587610b73565b610b83565b610105876100ff848789610b73565b01610b83565b335f525f8852865f2091848060a01b0380911692835f528952875f20911690815f528852865f206bffffffffffffffffffffffff60a01b81541690558651918252878201527f89b1add15eff56b3dfe299ad94e01f2b52fbcb80ae1a3baea6ae8c04cb2b98a4863392a2016100d1565b5f80fd5b503461017557606036600319011261017557610193610957565b9061019c61096d565b6101a4610983565b6001600160a01b039384165f908152602081815284822093861682529283528381209185168152908252829020549151928216835265ffffffffffff60a083901c169083015260d01c6040820152606090f35b503461017557608036600319011261017557610211610957565b9061021a61096d565b91610223610983565b906064359265ffffffffffff9384811690818103610175577fda9fa7c1b00402c17d0161b249b1ab8bbec047c5a52207b9c112deffd817036b93335f525f602052835f209660018060a01b0380921697885f5260205281855f20991698895f52602052845f209284155f146102ce57504216905b82546001600160d01b03191660a09290921b65ffffffffffff60a01b169190911795169485179055815193845260208401523392a4005b905090610297565b5034610175576060366003190112610175576102f0610957565b6102f861096d565b916044359065ffffffffffff8083169283810361017557335f526020905f8252835f209560018060a01b0380911696875f528352845f20971696875f528252835f205460d01c92838611156103ce5761ffff9084830316116103be57907f55eb90d810e1700b35a8e7e25395ff7f2b2259abd7415ca2284dfb1c246418f3939291335f525f8252835f20875f528252835f20885f528252835f209081549065ffffffffffff60d01b9060d01b169060018060d01b031617905582519485528401523392a4005b8351631269ad1360e11b81528890fd5b8451633ab3447f60e11b81528990fd5b34610175576080366003190112610175576103f7610957565b6103ff61096d565b610407610983565b606435916001600160a01b03831683036101755761042493610b97565b005b5034610175575f36600319011261017557602090610442610ab8565b9051908152f35b5090346101755761010036600319011261017557610465610957565b366023190160c08112610175576080845191610480836109dd565b1261017557835190610491826109ad565b6001600160a01b03916024358381168103610175578152604435838116810361017557602082015265ffffffffffff606435818116810361017557878301526084359081168103610175576060820152815260a435938285168503610175576020820194855260c4359086830182815260e43567ffffffffffffffff8111610175576105209036908401610a62565b9290938042116105a95750509185916105996104249961059f956105448851610fdf565b90898c511690519083519260208401947ff3841cd1ff0085026a6327b620b67997ce40f282c88a8e905a7a5626e310f3d086528401526060830152608082015260808152610591816109f9565b519020610cc6565b91610d0d565b5192511691610eda565b895163cd21db4f60e01b81529182015260249150fd5b5090346101755760609060031990606082360112610175576105df610957565b926024359167ffffffffffffffff938484116101755760609084360301126101755785519561060d876109dd565b838201358581116101755784013660238201121561017557828101359361063385610a37565b9161064084519384610a15565b85835260209560248785019160071b8301019136831161017557602401905b82821061081657505050508752604461067a60248601610999565b9484890195865201359281880195848752604435908111610175576106a29036908501610a62565b93909480421161080057505092919087969751516106bf81610a37565b906106cc83519283610a15565b8082526106d881610a37565b82870191601f199182013684375f5b8181106107c8575050908392918b96959451918883018094519091905f5b8181106107b1575050509161072b610599959492826107809b9503908101835282610a15565b51902060018060a01b03998a8a51169051918451938401947faf1b0d30d2cab0380e68f0689007e3254993c596f2fdd0aaa7f4d04f7944086386528401526060830152608082015260808152610591816109f9565b511690805151915f5b83811061079257005b806107ab83876107a56001958851610a90565b51610eda565b01610789565b825184528f9a50928b0192918b0191600101610705565b806107e76107e18e9f9e936001949c999a9b9c51610a90565b51610fdf565b6107f18288610a90565b52019b9a9b97969594976106e7565b835163cd21db4f60e01b81529182015260249150fd5b6080823603126101755787608091875161082f816109ad565b61083885610999565b8152610845838601610999565b83820152610854898601610a4f565b89820152610863878601610a4f565b8782015281520191019061065f565b5090346101755760209160206003193601126101755781359067ffffffffffffffff928383116101755736602384011215610175578201359283116101755760249160073660248660071b84010111610175575f5b8581106108d057005b80821b8301906080602319833603011261017557610951858960019460608a610936608461090a875193610903856109ad565b8601610999565b9485845261091a60448201610999565b809785015261092b60648201610999565b809885015201610999565b9182910152868060a01b038080809316951693169116610b97565b016108c7565b600435906001600160a01b038216820361017557565b602435906001600160a01b038216820361017557565b604435906001600160a01b038216820361017557565b35906001600160a01b038216820361017557565b6080810190811067ffffffffffffffff8211176109c957604052565b634e487b7160e01b5f52604160045260245ffd5b6060810190811067ffffffffffffffff8211176109c957604052565b60a0810190811067ffffffffffffffff8211176109c957604052565b90601f8019910116810190811067ffffffffffffffff8211176109c957604052565b67ffffffffffffffff81116109c95760051b60200190565b359065ffffffffffff8216820361017557565b9181601f840112156101755782359167ffffffffffffffff8311610175576020838186019501011161017557565b8051821015610aa45760209160051b010190565b634e487b7160e01b5f52603260045260245ffd5b467f000000000000000000000000000000000000000000000000000000000000000003610b03577f000000000000000000000000000000000000000000000000000000000000000090565b60405160208101907f8cad95687ba82c2ce50e74f7b754645e5117c3a5bec8151c0726d5857980a86682527f9ac997416e8ff9d2ff6bebeb7149f65cdae5e32e2b90440b566bb3044041d36a604082015246606082015230608082015260808152610b6d816109f9565b51902090565b9190811015610aa45760061b0190565b356001600160a01b03811681036101755790565b909260018060a01b038083165f525f60205260409381855f20931692835f52602052845f20335f52602052845f209586549665ffffffffffff8860a01c16804211610caf575083881697848903610c69575b505085516323b872dd60e01b8152600481019590955260248501521660448301529192506020915f9160649183905af13d15601f3d1160015f511416171615610c2f5750565b5162461bcd60e51b81526020600482015260146024820152731514905394d1915497d19493d357d1905253115160621b6044820152606490fd5b88858516115f14610c8c57875163f96fb07160e01b8152600481018a9052602490fd5b6001600160a01b031916978390038416979097179096559394859490825f610be9565b602490885190636c0d979760e11b82526004820152fd5b610cce610ab8565b9060405190602082019261190160f01b84526022830152604282015260428152610b6d816109ad565b9190826040910312610175576020823592013590565b833b610e135760418203610db057610d2782820182610cf7565b93909260401015610aa4576020935f9360ff6040608095013560f81c5b60405194855216868401526040830152606082015282805260015afa15610da5575f516001600160a01b03908116918215610d93571603610d8157565b604051632057875960e21b8152600490fd5b604051638baa579f60e01b8152600490fd5b6040513d5f823e3d90fd5b60408203610e0157610dc491810190610cf7565b6001600160ff1b0381169260ff91821c601b01918211610ded576020935f9360ff608094610d44565b634e487b7160e01b5f52601160045260245ffd5b604051634be6321b60e01b8152600490fd5b908092936020926064604051809681958294630b135d3f60e11b9a8b8552600485015260406024850152816044850152848401375f828201840152601f01601f191681010301916001600160a01b03165afa908115610da5575f91610e97575b506001600160e01b03191603610e8557565b604051632c19a72f60e21b8152600490fd5b90506020813d602011610ed2575b81610eb260209383610a15565b8101031261017557516001600160e01b031981168103610175575f610e73565b3d9150610ea5565b9065ffffffffffff90816060840151169160018060a01b039283855116948460208201511692858160408094015116951695865f525f602052825f20885f52602052825f20981697885f52602052815f209083825460d01c03610fce57918493917fc6a377bfc4eb120024a8ac08eef205be16b817020812c73223e81d1bdb9708ec9695610fc29487155f14610fc75742165b6001850160d01b6001600160d01b03191660a09190911b65ffffffffffff60a01b1617179055516001600160a01b03909316835265ffffffffffff938416602084015290921660408201529081906060820190565b0390a4565b5086610f6d565b8251633ab3447f60e11b8152600490fd5b60405160208101917f65626cad6cb96493bf6f5ebea28756c966f023ab9e8a83a7101849d5573b3678835260018060a01b038082511660408401526020820151166060830152606060408201519165ffffffffffff809316608085015201511660a082015260a0815260c0810181811067ffffffffffffffff8211176109c9576040525190209056fea26469706673582212201d04417b148b40075093aa02350a797ad8ab6600fd14906879c0b0716b1aec5564736f6c63430008190033","linkReferences":{}},"methodIdentifiers":{"DOMAIN_SEPARATOR()":"3644e515","allowance(address,address,address)":"927da105","approve(address,address,uint160,uint48)":"87517c45","invalidateNonces(address,address,uint48)":"65d9723c","lockdown((address,address)[])":"cc53287f","permit(address,((address,uint160,uint48,uint48),address,uint256),bytes)":"2b67b570","permit(address,((address,uint160,uint48,uint48)[],address,uint256),bytes)":"2a2d80d1","transferFrom((address,address,uint160,address)[])":"0d58b1db","transferFrom(address,address,uint160,address)":"36c78516"},"id":33}