{"abi":[{"type":"function","name":"DOMAIN_SEPARATOR","inputs":[],"outputs":[{"name":"","type":"bytes32","internalType":"bytes32"}],"stateMutability":"view"},{"type":"function","name":"allowance","inputs":[{"name":"","type":"address","internalType":"address"},{"name":"","type":"address","internalType":"address"},{"name":"","type":"address","internalType":"address"}],"outputs":[{"name":"amount","type":"uint160","internalType":"uint160"},{"name":"expiration","type":"uint48","internalType":"uint48"},{"name":"nonce","type":"uint48","internalType":"uint48"}],"stateMutability":"view"},{"type":"function","name":"approve","inputs":[{"name":"token","type":"address","internalType":"address"},{"name":"spender","type":"address","internalType":"address"},{"name":"amount","type":"uint160","internalType":"uint160"},{"name":"expiration","type":"uint48","internalType":"uint48"}],"outputs":[],"stateMutability":"nonpayable"},{"type":"function","name":"invalidateNonces","inputs":[{"name":"token","type":"address","internalType":"address"},{"name":"spender","type":"address","internalType":"address"},{"name":"newNonce","type":"uint48","internalType":"uint48"}],"outputs":[],"stateMutability":"nonpayable"},{"type":"function","name":"invalidateUnorderedNonces","inputs":[{"name":"wordPos","type":"uint256","internalType":"uint256"},{"name":"mask","type":"uint256","internalType":"uint256"}],"outputs":[],"stateMutability":"nonpayable"},{"type":"function","name":"lockdown","inputs":[{"name":"approvals","type":"tuple[]","internalType":"struct IAllowanceTransfer.TokenSpenderPair[]","components":[{"name":"token","type":"address","internalType":"address"},{"name":"spender","type":"address","internalType":"address"}]}],"outputs":[],"stateMutability":"nonpayable"},{"type":"function","name":"nonceBitmap","inputs":[{"name":"","type":"address","internalType":"address"},{"name":"","type":"uint256","internalType":"uint256"}],"outputs":[{"name":"","type":"uint256","internalType":"uint256"}],"stateMutability":"view"},{"type":"function","name":"permit","inputs":[{"name":"owner","type":"address","internalType":"address"},{"name":"permitBatch","type":"tuple","internalType":"struct IAllowanceTransfer.PermitBatch","components":[{"name":"details","type":"tuple[]","internalType":"struct IAllowanceTransfer.PermitDetails[]","components":[{"name":"token","type":"address","internalType":"address"},{"name":"amount","type":"uint160","internalType":"uint160"},{"name":"expiration","type":"uint48","internalType":"uint48"},{"name":"nonce","type":"uint48","internalType":"uint48"}]},{"name":"spender","type":"address","internalType":"address"},{"name":"sigDeadline","type":"uint256","internalType":"uint256"}]},{"name":"signature","type":"bytes","internalType":"bytes"}],"outputs":[],"stateMutability":"nonpayable"},{"type":"function","name":"permit","inputs":[{"name":"owner","type":"address","internalType":"address"},{"name":"permitSingle","type":"tuple","internalType":"struct IAllowanceTransfer.PermitSingle","components":[{"name":"details","type":"tuple","internalType":"struct IAllowanceTransfer.PermitDetails","components":[{"name":"token","type":"address","internalType":"address"},{"name":"amount","type":"uint160","internalType":"uint160"},{"name":"expiration","type":"uint48","internalType":"uint48"},{"name":"nonce","type":"uint48","internalType":"uint48"}]},{"name":"spender","type":"address","internalType":"address"},{"name":"sigDeadline","type":"uint256","internalType":"uint256"}]},{"name":"signature","type":"bytes","internalType":"bytes"}],"outputs":[],"stateMutability":"nonpayable"},{"type":"function","name":"permitTransferFrom","inputs":[{"name":"permit","type":"tuple","internalType":"struct ISignatureTransfer.PermitTransferFrom","components":[{"name":"permitted","type":"tuple","internalType":"struct ISignatureTransfer.TokenPermissions","components":[{"name":"token","type":"address","internalType":"address"},{"name":"amount","type":"uint256","internalType":"uint256"}]},{"name":"nonce","type":"uint256","internalType":"uint256"},{"name":"deadline","type":"uint256","internalType":"uint256"}]},{"name":"transferDetails","type":"tuple","internalType":"struct ISignatureTransfer.SignatureTransferDetails","components":[{"name":"to","type":"address","internalType":"address"},{"name":"requestedAmount","type":"uint256","internalType":"uint256"}]},{"name":"owner","type":"address","internalType":"address"},{"name":"signature","type":"bytes","internalType":"bytes"}],"outputs":[],"stateMutability":"nonpayable"},{"type":"function","name":"permitTransferFrom","inputs":[{"name":"permit","type":"tuple","internalType":"struct ISignatureTransfer.PermitBatchTransferFrom","components":[{"name":"permitted","type":"tuple[]","internalType":"struct ISignatureTransfer.TokenPermissions[]","components":[{"name":"token","type":"address","internalType":"address"},{"name":"amount","type":"uint256","internalType":"uint256"}]},{"name":"nonce","type":"uint256","internalType":"uint256"},{"name":"deadline","type":"uint256","internalType":"uint256"}]},{"name":"transferDetails","type":"tuple[]","internalType":"struct ISignatureTransfer.SignatureTransferDetails[]","components":[{"name":"to","type":"address","internalType":"address"},{"name":"requestedAmount","type":"uint256","internalType":"uint256"}]},{"name":"owner","type":"address","internalType":"address"},{"name":"signature","type":"bytes","internalType":"bytes"}],"outputs":[],"stateMutability":"nonpayable"},{"type":"function","name":"permitWitnessTransferFrom","inputs":[{"name":"permit","type":"tuple","internalType":"struct ISignatureTransfer.PermitTransferFrom","components":[{"name":"permitted","type":"tuple","internalType":"struct ISignatureTransfer.TokenPermissions","components":[{"name":"token","type":"address","internalType":"address"},{"name":"amount","type":"uint256","internalType":"uint256"}]},{"name":"nonce","type":"uint256","internalType":"uint256"},{"name":"deadline","type":"uint256","internalType":"uint256"}]},{"name":"transferDetails","type":"tuple","internalType":"struct ISignatureTransfer.SignatureTransferDetails","components":[{"name":"to","type":"address","internalType":"address"},{"name":"requestedAmount","type":"uint256","internalType":"uint256"}]},{"name":"owner","type":"address","internalType":"address"},{"name":"witness","type":"bytes32","internalType":"bytes32"},{"name":"witnessTypeString","type":"string","internalType":"string"},{"name":"signature","type":"bytes","internalType":"bytes"}],"outputs":[],"stateMutability":"nonpayable"},{"type":"function","name":"permitWitnessTransferFrom","inputs":[{"name":"permit","type":"tuple","internalType":"struct ISignatureTransfer.PermitBatchTransferFrom","components":[{"name":"permitted","type":"tuple[]","internalType":"struct ISignatureTransfer.TokenPermissions[]","components":[{"name":"token","type":"address","internalType":"address"},{"name":"amount","type":"uint256","internalType":"uint256"}]},{"name":"nonce","type":"uint256","internalType":"uint256"},{"name":"deadline","type":"uint256","internalType":"uint256"}]},{"name":"transferDetails","type":"tuple[]","internalType":"struct ISignatureTransfer.SignatureTransferDetails[]","components":[{"name":"to","type":"address","internalType":"address"},{"name":"requestedAmount","type":"uint256","internalType":"uint256"}]},{"name":"owner","type":"address","internalType":"address"},{"name":"witness","type":"bytes32","internalType":"bytes32"},{"name":"witnessTypeString","type":"string","internalType":"string"},{"name":"signature","type":"bytes","internalType":"bytes"}],"outputs":[],"stateMutability":"nonpayable"},{"type":"function","name":"transferFrom","inputs":[{"name":"transferDetails","type":"tuple[]","internalType":"struct IAllowanceTransfer.AllowanceTransferDetails[]","components":[{"name":"from","type":"address","internalType":"address"},{"name":"to","type":"address","internalType":"address"},{"name":"amount","type":"uint160","internalType":"uint160"},{"name":"token","type":"address","internalType":"address"}]}],"outputs":[],"stateMutability":"nonpayable"},{"type":"function","name":"transferFrom","inputs":[{"name":"from","type":"address","internalType":"address"},{"name":"to","type":"address","internalType":"address"},{"name":"amount","type":"uint160","internalType":"uint160"},{"name":"token","type":"address","internalType":"address"}],"outputs":[],"stateMutability":"nonpayable"},{"type":"event","name":"Approval","inputs":[{"name":"owner","type":"address","indexed":true,"internalType":"address"},{"name":"token","type":"address","indexed":true,"internalType":"address"},{"name":"spender","type":"address","indexed":true,"internalType":"address"},{"name":"amount","type":"uint160","indexed":false,"internalType":"uint160"},{"name":"expiration","type":"uint48","indexed":false,"internalType":"uint48"}],"anonymous":false},{"type":"event","name":"Lockdown","inputs":[{"name":"owner","type":"address","indexed":true,"internalType":"address"},{"name":"token","type":"address","indexed":false,"internalType":"address"},{"name":"spender","type":"address","indexed":false,"internalType":"address"}],"anonymous":false},{"type":"event","name":"NonceInvalidation","inputs":[{"name":"owner","type":"address","indexed":true,"internalType":"address"},{"name":"token","type":"address","indexed":true,"internalType":"address"},{"name":"spender","type":"address","indexed":true,"internalType":"address"},{"name":"newNonce","type":"uint48","indexed":false,"internalType":"uint48"},{"name":"oldNonce","type":"uint48","indexed":false,"internalType":"uint48"}],"anonymous":false},{"type":"event","name":"Permit","inputs":[{"name":"owner","type":"address","indexed":true,"internalType":"address"},{"name":"token","type":"address","indexed":true,"internalType":"address"},{"name":"spender","type":"address","indexed":true,"internalType":"address"},{"name":"amount","type":"uint160","indexed":false,"internalType":"uint160"},{"name":"expiration","type":"uint48","indexed":false,"internalType":"uint48"},{"name":"nonce","type":"uint48","indexed":false,"internalType":"uint48"}],"anonymous":false},{"type":"event","name":"UnorderedNonceInvalidation","inputs":[{"name":"owner","type":"address","indexed":true,"internalType":"address"},{"name":"word","type":"uint256","indexed":false,"internalType":"uint256"},{"name":"mask","type":"uint256","indexed":false,"internalType":"uint256"}],"anonymous":false},{"type":"error","name":"AllowanceExpired","inputs":[{"name":"deadline","type":"uint256","internalType":"uint256"}]},{"type":"error","name":"ExcessiveInvalidation","inputs":[]},{"type":"error","name":"InsufficientAllowance","inputs":[{"name":"amount","type":"uint256","internalType":"uint256"}]},{"type":"error","name":"InvalidAmount","inputs":[{"name":"maxAmount","type":"uint256","internalType":"uint256"}]},{"type":"error","name":"InvalidContractSignature","inputs":[]},{"type":"error","name":"InvalidNonce","inputs":[]},{"type":"error","name":"InvalidSignature","inputs":[]},{"type":"error","name":"InvalidSignatureLength","inputs":[]},{"type":"error","name":"InvalidSigner","inputs":[]},{"type":"error","name":"LengthMismatch","inputs":[]},{"type":"error","name":"SignatureExpired","inputs":[{"name":"signatureDeadline","type":"uint256","internalType":"uint256"}]}],"bytecode":{"object":"0x60c03460b7574660a052602081017f8cad95687ba82c2ce50e74f7b754645e5117c3a5bec8151c0726d5857980a86681527f9ac997416e8ff9d2ff6bebeb7149f65cdae5e32e2b90440b566bb3044041d36a60408301524660608301523060808301526080825260a082019180831060018060401b0384111760a35782604052519020608052611abe90816100bc82396080518161125a015260a051816112340152f35b634e487b7160e01b5f52604160045260245ffd5b5f80fdfe60406080815260049081361015610014575f80fd5b5f3560e01c80630d58b1db14610e41578063137c29fe14610cbe5780632a2d80d114610a725780632b67b570146108fd57806330f28b7a146108405780633644e5151461081d57806336c78516146107d75780633ff9dcb1146107765780634fe02b441461073757806365d9723c1461062d57806387517c451461054d578063927da105146104cd578063cc53287f146103f6578063edd9444b146102d05763fe8ec1a7146100c1575f80fd5b346102cc5760c03660031901126102cc576001600160401b039180358381116102cc576100f19036908301611124565b6024358481116102cc5761010890369084016110f4565b610110611008565b916084358781116102cc57610128903690870161109d565b97909560a4359182116102cc576101419136910161109d565b96909581519061015082610f6f565b606b82527f5065726d697442617463685769746e6573735472616e7366657246726f6d285460208301527f6f6b656e5065726d697373696f6e735b5d207065726d69747465642c61646472838301527f657373207370656e6465722c75696e74323536206e6f6e63652c75696e74323560608301526a0d88191958591b1a5b994b60aa1b60808301528251998a91816101ed6020850180966113d4565b918237015f81520398610208601f199a8b8101835282610fa5565b5190209085515161021881611490565b905f5b8181106102a45750506102a29961029991835161024c816102406020820180956114c2565b03848101835282610fa5565b519020602089810151858b015195519182019687526040820192909252336060820152608081019190915260a081019390935260643560c08401528260e081015b03908101835282610fa5565b51902093611808565b005b806102bb6102b56001938c51611209565b51611968565b6102c58286611209565b520161021b565b5f80fd5b5090346102cc5760803660031901126102cc576001600160401b0381358181116102cc576103019036908401611124565b6024358281116102cc5761031890369085016110f4565b939092610323611008565b916064359182116102cc5761033a9136910161109d565b9490938351519661034a88611490565b975f5b8181106103d45750506102a297815161037c8161036e6020820180956114c2565b03601f198101835282610fa5565b5190206020860151828701519083519260208401947ffcf35f5ac6a2c28868dc44c302166470266239195f02b0ee408334829333b7668652840152336060840152608083015260a082015260a0815261029981610f8a565b806103e56102b56001938a51611209565b6103ef828d611209565b520161034d565b50346102cc57602091826003193601126102cc578035906001600160401b0382116102cc57610427913691016110f4565b5f5b81811061043257005b8061044861044360019385876112ec565b6112fc565b61045d876104578487896112ec565b016112fc565b335f52838852865f2091848060a01b0380911692835f528952875f20911690815f528852865f206bffffffffffffffffffffffff60a01b81541690558651918252878201527f89b1add15eff56b3dfe299ad94e01f2b52fbcb80ae1a3baea6ae8c04cb2b98a4863392a201610429565b50346102cc5760603660031901126102cc576104e7610fdc565b906104f0610ff2565b6104f8611008565b6001600160a01b039384165f9081526001602090815284822093861682529283528381209185168152908252829020549151928216835265ffffffffffff60a083901c169083015260d01c6040820152606090f35b50346102cc5760803660031901126102cc57610567610fdc565b90610570610ff2565b91610579611008565b906064359265ffffffffffff93848116908181036102cc577fda9fa7c1b00402c17d0161b249b1ab8bbec047c5a52207b9c112deffd817036b93335f526001602052835f209660018060a01b0380921697885f5260205281855f20991698895f52602052845f209284155f1461062557504216905b82546001600160d01b03191660a09290921b65ffffffffffff60a01b169190911795169485179055815193845260208401523392a4005b9050906105ee565b50346102cc5760603660031901126102cc57610647610fdc565b61064f610ff2565b916044359065ffffffffffff808316928381036102cc57335f5260209060018252835f209560018060a01b0380911696875f528352845f20971696875f528252835f205460d01c92838611156107275761ffff90848303161161071757907f55eb90d810e1700b35a8e7e25395ff7f2b2259abd7415ca2284dfb1c246418f3939291335f5260018252835f20875f528252835f20885f528252835f209081549065ffffffffffff60d01b9060d01b169060018060d01b031617905582519485528401523392a4005b8351631269ad1360e11b81528890fd5b8451633ab3447f60e11b81528990fd5b50346102cc57806003193601126102cc576020906001600160a01b0361075b610fdc565b165f525f8252805f206024355f528252805f20549051908152f35b5090346102cc57816003193601126102cc577f3704902f963766a4e561bbaab6e6cdc1b1dd12f6e9e99648da8843b3f46b918d903591602435335f525f602052815f20845f52602052815f20818154179055815193845260208401523392a2005b346102cc5760803660031901126102cc576107f0610fdc565b6107f8610ff2565b610800611008565b606435916001600160a01b03831683036102cc576102a293611310565b50346102cc575f3660031901126102cc57602090610839611231565b9051908152f35b50346102cc576101003660031901126102cc5761085c36611032565b90806083193601126102cc57610870610fc6565b9160e4356001600160401b0381116102cc576102a2946108929136910161109d565b93909261089f8351611968565b6020840151828501519083519260208401947f939c21a48a8dbe3a9a2404a1d46691e4d39f6583d6ec6b35714604c986d801068652840152336060840152608083015260a082015260a081526108f481610f8a565b519020916113fd565b5090346102cc576101003660031901126102cc57610919610fdc565b366023190160c081126102cc57608084519161093483610f54565b126102cc5783519061094582610f25565b6001600160a01b039160243583811681036102cc57815260443583811681036102cc57602082015265ffffffffffff60643581811681036102cc578783015260843590811681036102cc576060820152815260a4359382851685036102cc576020820194855260c4359086830182815260e4356001600160401b0381116102cc576109d3903690840161109d565b929093804211610a5c575050918591610a4c6102a299610a52956109f78851611a00565b90898c511690519083519260208401947ff3841cd1ff0085026a6327b620b67997ce40f282c88a8e905a7a5626e310f3d086528401526060830152608082015260808152610a4481610f6f565b5190206114ee565b91611535565b5192511691611702565b895163cd21db4f60e01b81529182015260249150fd5b5090346102cc57606090600319906060823601126102cc57610a92610fdc565b92602435916001600160401b03938484116102cc5760609084360301126102cc57855195610abf87610f54565b838201358581116102cc578401366023820112156102cc578281013593610ae5856110ca565b91610af284519384610fa5565b85835260209560248785019160071b830101913683116102cc57602401905b828210610c62575050505087526044610b2c6024860161101e565b94848901958652013592818801958487526044359081116102cc57610b54903690850161109d565b939094804211610c4c5750508796975151610b6e81611490565b905f5b818110610c1f57505082899492610a4c92610bee979551610b998161036e85820180956114c2565b51902060018060a01b03998a8a51169051918451938401947faf1b0d30d2cab0380e68f0689007e3254993c596f2fdd0aaa7f4d04f7944086386528401526060830152608082015260808152610a4481610f6f565b511690805151915f5b838110610c0057005b80610c198387610c136001958851611209565b51611702565b01610bf7565b80610c38610c326001938d9e9d51611209565b51611a00565b610c428286611209565b5201999899610b71565b835163cd21db4f60e01b81529182015260249150fd5b6080823603126102cc57876080918751610c7b81610f25565b610c848561101e565b8152610c9183860161101e565b83820152610ca08986016110e1565b89820152610caf8786016110e1565b87820152815201910190610b11565b5090346102cc576101403660031901126102cc57610cdb36611032565b91806083193601126102cc57610cef610fc6565b6001600160401b039390610104358581116102cc57610d11903690860161109d565b9093610124359687116102cc57610d316108f4966102a29836910161109d565b969095825190610d4082610f6f565b606482527f5065726d69745769746e6573735472616e7366657246726f6d28546f6b656e5060208301527f65726d697373696f6e73207065726d69747465642c6164647265737320737065848301527f6e6465722c75696e74323536206e6f6e63652c75696e7432353620646561646c6060830152631a5b994b60e21b6080830152835194859181610dd66020850180966113d4565b918237015f81520393610df1601f1995868101835282610fa5565b51902092610dff8651611968565b6020878101518589015195519182019687526040820192909252336060820152608081019190915260a081019390935260e43560c08401528260e0810161028d565b5090346102cc5760209160206003193601126102cc578135906001600160401b03928383116102cc57366023840112156102cc578201359283116102cc5760249160073660248660071b840101116102cc575f5b858110610e9e57005b80821b830190608060231983360301126102cc57610f1f858960019460608a610f046084610ed8875193610ed185610f25565b860161101e565b94858452610ee86044820161101e565b8097850152610ef96064820161101e565b80988501520161101e565b9182910152868060a01b038080809316951693169116611310565b01610e95565b608081019081106001600160401b03821117610f4057604052565b634e487b7160e01b5f52604160045260245ffd5b606081019081106001600160401b03821117610f4057604052565b60a081019081106001600160401b03821117610f4057604052565b60c081019081106001600160401b03821117610f4057604052565b90601f801991011681019081106001600160401b03821117610f4057604052565b60c435906001600160a01b03821682036102cc57565b600435906001600160a01b03821682036102cc57565b602435906001600160a01b03821682036102cc57565b604435906001600160a01b03821682036102cc57565b35906001600160a01b03821682036102cc57565b6003190190608082126102cc57604080519061104d82610f54565b808294126102cc5780518181018181106001600160401b03821117610f405782526004356001600160a01b03811681036102cc578152602435602082015282526044356020830152606435910152565b9181601f840112156102cc578235916001600160401b0383116102cc57602083818601950101116102cc57565b6001600160401b038111610f405760051b60200190565b359065ffffffffffff821682036102cc57565b9181601f840112156102cc578235916001600160401b0383116102cc576020808501948460061b0101116102cc57565b9190916060818403126102cc57604080519161113f83610f54565b82948135906001600160401b03918281116102cc57830181601f820112156102cc57803560209361116f826110ca565b9361117c88519586610fa5565b828552858086019360061b850101938185116102cc579086899897969594939201925b8484106111bc575050505050855280820135908501520135910152565b9091929394959697848303126102cc578851908982019082821085831117610f40578a92899284526111ed8761101e565b815282870135838201528152019301919088979695949361119f565b805182101561121d5760209160051b010190565b634e487b7160e01b5f52603260045260245ffd5b467f00000000000000000000000000000000000000000000000000000000000000000361127c577f000000000000000000000000000000000000000000000000000000000000000090565b60405160208101907f8cad95687ba82c2ce50e74f7b754645e5117c3a5bec8151c0726d5857980a86682527f9ac997416e8ff9d2ff6bebeb7149f65cdae5e32e2b90440b566bb3044041d36a6040820152466060820152306080820152608081526112e681610f6f565b51902090565b919081101561121d5760061b0190565b356001600160a01b03811681036102cc5790565b92919260018060a01b038082165f5260016020528060405f20941693845f5260205260405f20335f5260205260405f209485549565ffffffffffff8760a01c168042116113bc575082871696838803611374575b5050611372955016926118ee565b565b87848416115f146113985760405163f96fb07160e01b815260048101899052602490fd5b8383611372990316906bffffffffffffffffffffffff60a01b161790555f80611364565b60249060405190636c0d979760e11b82526004820152fd5b908151915f5b8381106113ea575050015f815290565b80602080928401015181850152016113da565b9192909360a43593604084015180421161147857506020845101518086116114605750918591610a4c61143d946114386020880151866119b7565b6114ee565b51516001600160a01b039081169260843591821682036102cc57611372936118ee565b60249060405190633728b83d60e01b82526004820152fd5b6024906040519063cd21db4f60e01b82526004820152fd5b9061149a826110ca565b6114a76040519182610fa5565b82815280926114b8601f19916110ca565b0190602036910137565b80516020809201915f5b8281106114da575050505090565b8351855293810193928101926001016114cc565b6114f6611231565b9060405190602082019261190160f01b845260228301526042820152604281526112e681610f25565b91908260409103126102cc576020823592013590565b833b61163b57604182036115d85761154f8282018261151f565b9390926040101561121d576020935f9360ff6040608095013560f81c5b60405194855216868401526040830152606082015282805260015afa156115cd575f516001600160a01b039081169182156115bb5716036115a957565b604051632057875960e21b8152600490fd5b604051638baa579f60e01b8152600490fd5b6040513d5f823e3d90fd5b60408203611629576115ec9181019061151f565b6001600160ff1b0381169260ff91821c601b01918211611615576020935f9360ff60809461156c565b634e487b7160e01b5f52601160045260245ffd5b604051634be6321b60e01b8152600490fd5b908092936020926064604051809681958294630b135d3f60e11b9a8b8552600485015260406024850152816044850152848401375f828201840152601f01601f191681010301916001600160a01b03165afa9081156115cd575f916116bf575b506001600160e01b031916036116ad57565b604051632c19a72f60e21b8152600490fd5b90506020813d6020116116fa575b816116da60209383610fa5565b810103126102cc57516001600160e01b0319811681036102cc575f61169b565b3d91506116cd565b9065ffffffffffff90816060840151169160018060a01b039283855116948460208201511692858160408094015116951695865f526001602052825f20885f52602052825f20981697885f52602052815f209083825460d01c036117f757918493917fc6a377bfc4eb120024a8ac08eef205be16b817020812c73223e81d1bdb9708ec96956117eb9487155f146117f05742165b6001850160d01b6001600160d01b03191660a09190911b65ffffffffffff60a01b1617179055516001600160a01b03909316835265ffffffffffff938416602084015290921660408201529081906060820190565b0390a4565b5086611796565b8251633ab3447f60e11b8152600490fd5b9590939580515195604092604083015180421161147857508488036118d957611841918691610a4c60209b6114386020880151866119b7565b5f5b868110611854575050505050505050565b61185f818351611209565b518861186c83878a6112ec565b013590898101518083116118c2575091818888886001968596611896575b50505050505001611843565b6118b7956118b192610443928a8060a01b03905116956112ec565b916118ee565b805f8888888361188a565b602490865190633728b83d60e01b82526004820152fd5b6040516001621398b960e31b03198152600490fd5b905f6064926020958295604051946323b872dd60e01b86526004860152602485015260448401525af13d15601f3d1160015f51141617161561192c57565b60405162461bcd60e51b81526020600482015260146024820152731514905394d1915497d19493d357d1905253115160621b6044820152606490fd5b6040516020808201927f618358ac3db8dc274f0cd8829da7e234bd48cd73c4a740aede1adec9846d06a1845260018060a01b03815116604084015201516060820152606081526112e681610f25565b90600160ff82161b9160018060a01b03165f525f60205260405f209060081c5f5260205260405f208181541880915516156119ee57565b604051633ab3447f60e11b8152600490fd5b60405160208101917f65626cad6cb96493bf6f5ebea28756c966f023ab9e8a83a7101849d5573b3678835260018060a01b038082511660408401526020820151166060830152606060408201519165ffffffffffff809316608085015201511660a082015260a0815260c081018181106001600160401b03821117610f40576040525190209056fea26469706673582212202f77a4ab3c74feeb8d6de606e0e11b0d6d5f4096e9a9be6ed4bbd870e018ec4964736f6c63430008190033","linkReferences":{}},"methodIdentifiers":{"DOMAIN_SEPARATOR()":"3644e515","allowance(address,address,address)":"927da105","approve(address,address,uint160,uint48)":"87517c45","invalidateNonces(address,address,uint48)":"65d9723c","invalidateUnorderedNonces(uint256,uint256)":"3ff9dcb1","lockdown((address,address)[])":"cc53287f","nonceBitmap(address,uint256)":"4fe02b44","permit(address,((address,uint160,uint48,uint48),address,uint256),bytes)":"2b67b570","permit(address,((address,uint160,uint48,uint48)[],address,uint256),bytes)":"2a2d80d1","permitTransferFrom(((address,uint256),uint256,uint256),(address,uint256),address,bytes)":"30f28b7a","permitTransferFrom(((address,uint256)[],uint256,uint256),(address,uint256)[],address,bytes)":"edd9444b","permitWitnessTransferFrom(((address,uint256),uint256,uint256),(address,uint256),address,bytes32,string,bytes)":"137c29fe","permitWitnessTransferFrom(((address,uint256)[],uint256,uint256),(address,uint256)[],address,bytes32,string,bytes)":"fe8ec1a7","transferFrom((address,address,uint160,address)[])":"0d58b1db","transferFrom(address,address,uint160,address)":"36c78516"},"id":54}