{"abi":[{"type":"constructor","inputs":[{"name":"_owner","type":"address","internalType":"address"},{"name":"_router","type":"address","internalType":"address"},{"name":"_permit2","type":"address","internalType":"address"}],"stateMutability":"nonpayable"},{"type":"receive","stateMutability":"payable"},{"type":"function","name":"_CALL3VALUE_TYPEHASH","inputs":[],"outputs":[{"name":"","type":"bytes32","internalType":"bytes32"}],"stateMutability":"view"},{"type":"function","name":"_EIP_712_RELAYER_WITNESS_TYPE_HASH","inputs":[],"outputs":[{"name":"","type":"bytes32","internalType":"bytes32"}],"stateMutability":"view"},{"type":"function","name":"_RELAYER_WITNESS_TYPE_STRING","inputs":[],"outputs":[{"name":"","type":"string","internalType":"string"}],"stateMutability":"view"},{"type":"function","name":"cancelOwnershipHandover","inputs":[],"outputs":[],"stateMutability":"payable"},{"type":"function","name":"completeOwnershipHandover","inputs":[{"name":"pendingOwner","type":"address","internalType":"address"}],"outputs":[],"stateMutability":"payable"},{"type":"function","name":"owner","inputs":[],"outputs":[{"name":"result","type":"address","internalType":"address"}],"stateMutability":"view"},{"type":"function","name":"ownershipHandoverExpiresAt","inputs":[{"name":"pendingOwner","type":"address","internalType":"address"}],"outputs":[{"name":"result","type":"uint256","internalType":"uint256"}],"stateMutability":"view"},{"type":"function","name":"permit2TransferAndMulticall","inputs":[{"name":"user","type":"address","internalType":"address"},{"name":"permit","type":"tuple","internalType":"struct ISignatureTransfer.PermitBatchTransferFrom","components":[{"name":"permitted","type":"tuple[]","internalType":"struct ISignatureTransfer.TokenPermissions[]","components":[{"name":"token","type":"address","internalType":"address"},{"name":"amount","type":"uint256","internalType":"uint256"}]},{"name":"nonce","type":"uint256","internalType":"uint256"},{"name":"deadline","type":"uint256","internalType":"uint256"}]},{"name":"calls","type":"tuple[]","internalType":"struct Call3Value[]","components":[{"name":"target","type":"address","internalType":"address"},{"name":"allowFailure","type":"bool","internalType":"bool"},{"name":"value","type":"uint256","internalType":"uint256"},{"name":"callData","type":"bytes","internalType":"bytes"}]},{"name":"refundTo","type":"address","internalType":"address"},{"name":"nftRecipient","type":"address","internalType":"address"},{"name":"permitSignature","type":"bytes","internalType":"bytes"}],"outputs":[{"name":"returnData","type":"tuple[]","internalType":"struct Result[]","components":[{"name":"success","type":"bool","internalType":"bool"},{"name":"returnData","type":"bytes","internalType":"bytes"}]}],"stateMutability":"payable"},{"type":"function","name":"permitTransferAndMulticall","inputs":[{"name":"permits","type":"tuple[]","internalType":"struct Permit[]","components":[{"name":"token","type":"address","internalType":"address"},{"name":"owner","type":"address","internalType":"address"},{"name":"value","type":"uint256","internalType":"uint256"},{"name":"nonce","type":"uint256","internalType":"uint256"},{"name":"deadline","type":"uint256","internalType":"uint256"},{"name":"v","type":"uint8","internalType":"uint8"},{"name":"r","type":"bytes32","internalType":"bytes32"},{"name":"s","type":"bytes32","internalType":"bytes32"}]},{"name":"calls","type":"tuple[]","internalType":"struct Call3Value[]","components":[{"name":"target","type":"address","internalType":"address"},{"name":"allowFailure","type":"bool","internalType":"bool"},{"name":"value","type":"uint256","internalType":"uint256"},{"name":"callData","type":"bytes","internalType":"bytes"}]},{"name":"refundTo","type":"address","internalType":"address"},{"name":"nftRecipient","type":"address","internalType":"address"}],"outputs":[{"name":"returnData","type":"tuple[]","internalType":"struct Result[]","components":[{"name":"success","type":"bool","internalType":"bool"},{"name":"returnData","type":"bytes","internalType":"bytes"}]}],"stateMutability":"payable"},{"type":"function","name":"renounceOwnership","inputs":[],"outputs":[],"stateMutability":"payable"},{"type":"function","name":"requestOwnershipHandover","inputs":[],"outputs":[],"stateMutability":"payable"},{"type":"function","name":"router","inputs":[],"outputs":[{"name":"","type":"address","internalType":"address"}],"stateMutability":"view"},{"type":"function","name":"setPermit2","inputs":[{"name":"_permit2","type":"address","internalType":"address"}],"outputs":[],"stateMutability":"nonpayable"},{"type":"function","name":"setRouter","inputs":[{"name":"_router","type":"address","internalType":"address"}],"outputs":[],"stateMutability":"nonpayable"},{"type":"function","name":"transferAndMulticall","inputs":[{"name":"tokens","type":"address[]","internalType":"address[]"},{"name":"amounts","type":"uint256[]","internalType":"uint256[]"},{"name":"calls","type":"tuple[]","internalType":"struct Call3Value[]","components":[{"name":"target","type":"address","internalType":"address"},{"name":"allowFailure","type":"bool","internalType":"bool"},{"name":"value","type":"uint256","internalType":"uint256"},{"name":"callData","type":"bytes","internalType":"bytes"}]},{"name":"refundTo","type":"address","internalType":"address"},{"name":"nftRecipient","type":"address","internalType":"address"}],"outputs":[{"name":"returnData","type":"tuple[]","internalType":"struct Result[]","components":[{"name":"success","type":"bool","internalType":"bool"},{"name":"returnData","type":"bytes","internalType":"bytes"}]}],"stateMutability":"payable"},{"type":"function","name":"transferOwnership","inputs":[{"name":"newOwner","type":"address","internalType":"address"}],"outputs":[],"stateMutability":"payable"},{"type":"function","name":"withdraw","inputs":[],"outputs":[],"stateMutability":"nonpayable"},{"type":"event","name":"OwnershipHandoverCanceled","inputs":[{"name":"pendingOwner","type":"address","indexed":true,"internalType":"address"}],"anonymous":false},{"type":"event","name":"OwnershipHandoverRequested","inputs":[{"name":"pendingOwner","type":"address","indexed":true,"internalType":"address"}],"anonymous":false},{"type":"event","name":"OwnershipTransferred","inputs":[{"name":"oldOwner","type":"address","indexed":true,"internalType":"address"},{"name":"newOwner","type":"address","indexed":true,"internalType":"address"}],"anonymous":false},{"type":"event","name":"Permit2Updated","inputs":[{"name":"newPermit2","type":"address","indexed":false,"internalType":"address"}],"anonymous":false},{"type":"event","name":"RouterUpdated","inputs":[{"name":"newRouter","type":"address","indexed":false,"internalType":"address"}],"anonymous":false},{"type":"error","name":"AddressEmptyCode","inputs":[{"name":"target","type":"address","internalType":"address"}]},{"type":"error","name":"AddressInsufficientBalance","inputs":[{"name":"account","type":"address","internalType":"address"}]},{"type":"error","name":"AlreadyInitialized","inputs":[]},{"type":"error","name":"ArrayLengthsMismatch","inputs":[]},{"type":"error","name":"FailedInnerCall","inputs":[]},{"type":"error","name":"NativeTransferFailed","inputs":[]},{"type":"error","name":"NewOwnerIsZeroAddress","inputs":[]},{"type":"error","name":"NoHandoverRequest","inputs":[]},{"type":"error","name":"RefundToCannotBeZeroAddress","inputs":[]},{"type":"error","name":"SafeERC20FailedOperation","inputs":[{"name":"token","type":"address","internalType":"address"}]},{"type":"error","name":"Unauthorized","inputs":[]}],"bytecode":{"object":"0x60803460ba57601f6119a938819003918201601f19168301916001600160401b0383118484101760be5780849260609460405283398101031260ba5760428160d2565b6056604060506020850160d2565b930160d2565b6001600160a01b03918216638b78c6d8198190555f7f8be0079c531659141344cd1fd0a4f28419497f9722a3daafe3b4186f6b6457e08180a38160018060a01b03199316835f5416175f55169060015416176001556040516118c390816100e68239f35b5f80fd5b634e487b7160e01b5f52604160045260245ffd5b51906001600160a01b038216820360ba5756fe6080604052600436101561001a575b3615610018575f80fd5b005b5f3560e01c8063101ec30a146101295780632569296214610124578063308750561461011f578063337390821461011a5780633806a3cf146101155780633ccfd60b1461011057806354d1f13d1461010b578063715018a6146101065780638da5cb5b14610101578063a0a6ce7f146100fc578063c0d78655146100f7578063c99a0d65146100f2578063cf641c61146100ed578063f04e283e146100e8578063f2fde38b146100e3578063f887ea40146100de5763fee81cf40361000e57610bbf565b610b98565b610b59565b610b08565b610ace565b610a94565b610a25565b61099a565b61096e565b61092a565b6108e6565b6108aa565b61087b565b6105e8565b610306565b6101f1565b610177565b6001600160a01b0381160361013f57565b5f80fd5b606435906101508261012e565b565b608435906101508261012e565b604435906101508261012e565b35906101508261012e565b3461013f57602036600319011261013f577faecfd826d6b270962e6ff81f57b75e8527073ef343cbb38af801b8a972c7846160206004356101b78161012e565b6101bf611347565b600180546001600160a01b0319166001600160a01b03929092169182179055604051908152a1005b5f91031261013f57565b5f36600319011261013f5763389a75e1600c52335f526202a30042016020600c2055337fdbf36a107da19e49527a7176a1babf963b4b0ff8cde35ee35d6cd8f1f9ac7e1d5f80a2005b9181601f8401121561013f578235916001600160401b03831161013f576020808501948460051b01011161013f57565b805180835260209291819084018484015e5f828201840152601f01601f1916010190565b6020808201908083528351809252604092604081018260408560051b8401019601945f925b8584106102c4575050505050505090565b9091929394959685806102f5600193603f1986820301885286838d518051151584520151918185820152019061026a565b9901940194019295949391906102b3565b60a036600319011261013f5760046001600160401b03813581811161013f57610332903690840161023a565b60249391933583811161013f5761034c903690840161023a565b94909360443590811161013f57610366903690850161023a565b939091606435956103768761012e565b608435946103838661012e565b88810361048a576001600160a01b03881615610479575f5b81811061043857885f898989896103e96103cd6103c16103c1885460018060a01b031690565b6001600160a01b031690565b93604051978896879586956330be556760e01b87528601610d5b565b039134905af180156104335761040d915f91610411575b506040519182918261028e565b0390f35b61042d91503d805f833e6104258183610534565b810190610c32565b82610400565b610e60565b806104736104546103c161044f600195878a610c09565b610c1e565b5f546001600160a01b031661046a848f89610c09565b35913390611363565b0161039b565b60405163fc62e08f60e01b81528490fd5b604051631dc0052360e11b81528490fd5b634e487b7160e01b5f52604160045260245ffd5b606081019081106001600160401b038211176104ca57604052565b61049b565b604081019081106001600160401b038211176104ca57604052565b61010081019081106001600160401b038211176104ca57604052565b6001600160401b0381116104ca57604052565b60a081019081106001600160401b038211176104ca57604052565b90601f801991011681019081106001600160401b038211176104ca57604052565b60405190610150826104cf565b6001600160401b0381116104ca5760051b60200190565b6001600160401b0381116104ca57601f01601f191660200190565b9291926105a082610579565b916105ae6040519384610534565b82948184528183011161013f578281602093845f960137010152565b9080601f8301121561013f578160206105e593359101610594565b90565b60031960c03682011261013f576004356106018161012e565b602435916001600160401b039081841161013f57606090843603011261013f57604091825193610630856104af565b806004013583811161013f5781013660238201121561013f5760048101359061065882610562565b9161066587519384610534565b8083526020906024602085019160061b8401019236841161013f57602401905b83821061070057505050509060449186526024810135602087015201358385015260443582811161013f576106be90369060040161023a565b6106c6610143565b906106cf610152565b9260a43595861161013f5761040d976106ef6106f59736906004016105ca565b95610e6b565b90519182918261028e565b888236031261013f578289918251610717816104cf565b84356107228161012e565b81528285013583820152815201910190610685565b6040519061012082018281106001600160401b038211176104ca5760405260ec82526b7432353620616d6f756e742960a01b610100837f52656c617965725769746e657373207769746e6573732952656c61796572576960208201527f746e65737328616464726573732072656c617965722c6164647265737320726560408201527f66756e64546f2c61646472657373206e6674526563697069656e742c43616c6c60608201527f3356616c75655b5d2063616c6c3356616c7565732943616c6c3356616c75652860808201527f61646472657373207461726765742c626f6f6c20616c6c6f774661696c75726560a08201527f2c75696e743235362076616c75652c62797465732063616c6c4461746129546f60c08201527f6b656e5065726d697373696f6e73286164647265737320746f6b656e2c75696e60e08201520152565b3461013f575f36600319011261013f5761040d610896610737565b60405191829160208352602083019061026a565b3461013f575f36600319011261013f576108c2611347565b5f8080804733620186a0f1156108d457005b604051633d2cec6f60e21b8152600490fd5b5f36600319011261013f5763389a75e1600c52335f525f6020600c2055337ffa7b8eab7da67f412cc9575ed43464468f9bfbae89d1675917346ca6d8fe3c925f80a2005b5f36600319011261013f5761093d611347565b5f638b78c6d8198181547f8be0079c531659141344cd1fd0a4f28419497f9722a3daafe3b4186f6b6457e08280a355005b3461013f575f36600319011261013f57638b78c6d819546040516001600160a01b039091168152602090f35b608036600319011261013f576004356001600160401b0380821161013f573660238301121561013f5781600401359181831161013f573660248460081b8301011161013f5760243591821161013f5761040d926109fe610a1993369060040161023a565b90610a0761015f565b926024610a12610143565b9501611231565b6040519182918261028e565b3461013f57602036600319011261013f577f7aed1d3e8155a07ccf395e44ea3109a0e2d6c9b29bbbe9f142d9790596f4dc806020600435610a658161012e565b610a6d611347565b5f80546001600160a01b0319166001600160a01b03929092169182179055604051908152a1005b3461013f575f36600319011261013f5760206040517fe23dc67d94bc5ccc95cdaa7f8c7e41f4c3b78d9d1e7baad8604a2773456e2b3c8152f35b3461013f575f36600319011261013f5760206040517ffd3926a097b5d365885a8c0afe16fa80ed4d377e8627017476dfe9729e8a6cde8152f35b602036600319011261013f57600435610b208161012e565b610b28611347565b63389a75e1600c52805f526020600c209081544211610b4c575f610018925561168d565b636f5e88185f526004601cfd5b602036600319011261013f57600435610b718161012e565b610b79611347565b8060601b15610b8b576100189061168d565b637448fbae5f526004601cfd5b3461013f575f36600319011261013f575f546040516001600160a01b039091168152602090f35b3461013f57602036600319011261013f57600435610bdc8161012e565b63389a75e1600c525f52602080600c2054604051908152f35b634e487b7160e01b5f52603260045260245ffd5b9190811015610c195760051b0190565b610bf5565b356105e58161012e565b8015150361013f57565b90602090818382031261013f5782516001600160401b039384821161013f57019080601f8301121561013f578151610c6981610562565b94604092610c7984519788610534565b828752858088019360051b8601019481861161013f57868101935b868510610ca657505050505050505090565b845184811161013f5782019086601f19838603011261013f57865191610ccb836104cf565b89810151610cd881610c28565b8352878101519086821161013f57019084603f8301121561013f578982015192610d0184610579565b610d0d8a519182610534565b848152868a868601011161013f575f8c8681978d8398018386015e8301015283820152815201940193610c94565b908060209392818452848401375f828201840152601f01601f1916010190565b919493929460609080606085016060865252608090608085019260808260051b8701019480945f915b848310610db157505050506001600160a01b03978816602086015250505091909316604090930192909252565b90919293949596607f198982030183528735607e198336030181121561013f5782018035610dde8161012e565b6001600160a01b0316825260209080820135610df981610c28565b1515828401526040808201359084015286810135601e198236030181121561013f57018181359101926001600160401b03821161013f57813603841361013f5760019383928b83818c610e4f9601520191610d3b565b990193019301919594939290610d84565b6040513d5f823e3d90fd5b9596959192916001600160a01b03851615611188578751610ef1575b50505f80549596509394610ea5906103c1906001600160a01b031681565b91610ec6604051968795869485946330be556760e01b865260048601610d5b565b039134905af1908115610433575f91610edd575090565b6105e591503d805f833e6104258183610534565b95919692610f0188969296611444565b945f5b8981106110a2575060405160209681610f216020820180936114e8565b0391610f35601f1993848101835282610534565b519020604080517fe23dc67d94bc5ccc95cdaa7f8c7e41f4c3b78d9d1e7baad8604a2773456e2b3c6020820190815233928201929092526001600160a01b0385811660608301528716608082015260a081019290925260c0928301825291610f9d9082610534565b51902091610fac885151611514565b5f8054919b6001600160a01b0390921699905b815180518210156110175790611010818f8e8e80610fdf856001996114d4565b51015190610ffd610fee610555565b6001600160a01b039094168452565b82015261100a83836114d4565b526114d4565b5001610fbf565b50509499939850949990959196506110396103c160015460018060a01b031690565b91611042610737565b94833b1561013f5761106f5f969287936040519c8d988997889663fe8ec1a760e01b8852600488016115c4565b03925af1938415610433575f94611089575b869594610e87565b8061109661109c92610506565b806101e7565b5f611081565b806110b661044f6001938d879d9c9d611476565b8b61117160206111636110d4826110ce88878d611476565b01611498565b93896111086111016110f78a604095866110ef838389611476565b013595611476565b60608101906114a2565b3691610594565b8481519101209151958694850197889094939260809260a08301967ffd3926a097b5d365885a8c0afe16fa80ed4d377e8627017476dfe9729e8a6cde845260018060a01b031660208401521515604083015260608201520152565b03601f198101835282610534565b51902061117e828a6114d4565b5201979697610f04565b60405163fc62e08f60e01b8152600490fd5b9190811015610c195760081b0190565b359060ff8216820361013f57565b6101008136031261013f5760e0604051916111d2836104ea565b6111db8161016c565b83526111e96020820161016c565b602084015260408101356040840152606081013560608401526080810135608084015261121860a082016111aa565b60a084015260c081013560c0840152013560e082015290565b95949392906001600160a01b03841615611188575f5b81811061126c5750505f80549596509394610ea5906103c1906001600160a01b031681565b61127f61127a82848b61119a565b6111b8565b60208101805190929190339061129d906001600160a01b03166103c1565b03611336576001928161131d61130f6103c16112c2611330965160018060a01b031690565b8551909490611302906001600160a01b03166040830196875160808501516112ee60a087015160ff1690565b9160c08701519360e08801519530916116d4565b516001600160a01b031690565b92516001600160a01b031690565b5f546001600160a01b0316915192611363565b01611247565b6040516282b42960e81b8152600490fd5b638b78c6d81954330361135657565b6382b429005f526004601cfd5b6040516323b872dd60e01b602082019081526001600160a01b03938416602483015293831660448201526064808201959095529384526113e1925f9283926113aa87610519565b1694519082865af13d1561143c573d906113c382610579565b916113d16040519384610534565b82523d5f602084013e5b8361182a565b805190811515918261141a575b50506113f75750565b604051635274afe760e01b81526001600160a01b03919091166004820152602490fd5b611435925090602080611431938301019101611815565b1590565b5f806113ee565b6060906113db565b9061144e82610562565b61145b6040519182610534565b828152809261146c601f1991610562565b0190602036910137565b9190811015610c195760051b81013590607e198136030182121561013f570190565b356105e581610c28565b903590601e198136030182121561013f57018035906001600160401b03821161013f5760200191813603831361013f57565b8051821015610c195760209160051b010190565b80516020809201915f5b828110611500575050505090565b8351855293810193928101926001016114f2565b9061151e82610562565b60409061152e6040519182610534565b838152809361153f601f1991610562565b01915f5b8381106115505750505050565b602090825161155e816104cf565b5f8152825f81830152828601015201611543565b9081518082526020808093019301915f5b828110611591575050505090565b90919293826040826115b860019489516020809160018060a01b0381511684520151910152565b01950193929101611583565b9491969593909660c086526101208601978051606060c08901528051809a526101408801996020809201915f5b82811061166257505050506116306105e5989961165496959493604084602061164296015160e08d015201516101008b015289820360208b0152611572565b6001600160a01b039094166040880152565b6060860152848203608086015261026a565b9160a081840391015261026a565b835180516001600160a01b03168e52602090810151908e01526040909c019b928101926001016115f1565b60018060a01b0316638b78c6d8198181547f8be0079c531659141344cd1fd0a4f28419497f9722a3daafe3b4186f6b6457e05f80a355565b9081602091031261013f575190565b92966001600160a01b03909316959094919390929190863b1561013f5760405163d505accf60e01b81526001600160a01b0387811660048301528616602482015260448101899052606481019190915260ff91909116608482015260a481019290925260c48201525f8160e48183885af19081611802575b506117fc57604051636eb1769f60e11b81526001600160a01b0392831660048201529116602482015290602090829060449082905afa908115610433575f916117cd575b5010156101505760405162461bcd60e51b815260206004820152600e60248201526d5065726d6974206661696c75726560901b6044820152606490fd5b6117ef915060203d6020116117f5575b6117e78183610534565b8101906116c5565b5f611790565b503d6117dd565b50505050565b8061109661180f92610506565b5f61174c565b9081602091031261013f57516105e581610c28565b90611851575080511561183f57805190602001fd5b604051630a12f52160e11b8152600490fd5b81511580611884575b611862575090565b604051639996b31560e01b81526001600160a01b039091166004820152602490fd5b50803b1561185a56fea26469706673582212202da27cfb3689ae3eb39e61e916bee423f10463aec9f2282838a77d24569f259e64736f6c63430008190033","linkReferences":{}},"methodIdentifiers":{"_CALL3VALUE_TYPEHASH()":"cf641c61","_EIP_712_RELAYER_WITNESS_TYPE_HASH()":"c99a0d65","_RELAYER_WITNESS_TYPE_STRING()":"3806a3cf","cancelOwnershipHandover()":"54d1f13d","completeOwnershipHandover(address)":"f04e283e","owner()":"8da5cb5b","ownershipHandoverExpiresAt(address)":"fee81cf4","permit2TransferAndMulticall(address,((address,uint256)[],uint256,uint256),(address,bool,uint256,bytes)[],address,address,bytes)":"33739082","permitTransferAndMulticall((address,address,uint256,uint256,uint256,uint8,bytes32,bytes32)[],(address,bool,uint256,bytes)[],address,address)":"a0a6ce7f","renounceOwnership()":"715018a6","requestOwnershipHandover()":"25692962","router()":"f887ea40","setPermit2(address)":"101ec30a","setRouter(address)":"c0d78655","transferAndMulticall(address[],uint256[],(address,bool,uint256,bytes)[],address,address)":"30875056","transferOwnership(address)":"f2fde38b","withdraw()":"3ccfd60b"},"id":65}