{"abi":[{"type":"constructor","inputs":[{"name":"_owner","type":"address","internalType":"address"},{"name":"_router","type":"address","internalType":"address"}],"stateMutability":"nonpayable"},{"type":"receive","stateMutability":"payable"},{"type":"function","name":"cancelOwnershipHandover","inputs":[],"outputs":[],"stateMutability":"payable"},{"type":"function","name":"completeOwnershipHandover","inputs":[{"name":"pendingOwner","type":"address","internalType":"address"}],"outputs":[],"stateMutability":"payable"},{"type":"function","name":"owner","inputs":[],"outputs":[{"name":"result","type":"address","internalType":"address"}],"stateMutability":"view"},{"type":"function","name":"ownershipHandoverExpiresAt","inputs":[{"name":"pendingOwner","type":"address","internalType":"address"}],"outputs":[{"name":"result","type":"uint256","internalType":"uint256"}],"stateMutability":"view"},{"type":"function","name":"renounceOwnership","inputs":[],"outputs":[],"stateMutability":"payable"},{"type":"function","name":"requestOwnershipHandover","inputs":[],"outputs":[],"stateMutability":"payable"},{"type":"function","name":"router","inputs":[],"outputs":[{"name":"","type":"address","internalType":"address"}],"stateMutability":"view"},{"type":"function","name":"setRouter","inputs":[{"name":"_router","type":"address","internalType":"address"}],"outputs":[],"stateMutability":"nonpayable"},{"type":"function","name":"transferAndMulticall","inputs":[{"name":"tokens","type":"address[]","internalType":"address[]"},{"name":"amounts","type":"uint256[]","internalType":"uint256[]"},{"name":"targets","type":"address[]","internalType":"address[]"},{"name":"datas","type":"bytes[]","internalType":"bytes[]"},{"name":"values","type":"uint256[]","internalType":"uint256[]"},{"name":"refundTo","type":"address","internalType":"address"}],"outputs":[{"name":"","type":"bytes[]","internalType":"bytes[]"}],"stateMutability":"payable"},{"type":"function","name":"transferOwnership","inputs":[{"name":"newOwner","type":"address","internalType":"address"}],"outputs":[],"stateMutability":"payable"},{"type":"function","name":"withdraw","inputs":[],"outputs":[],"stateMutability":"nonpayable"},{"type":"event","name":"OwnershipHandoverCanceled","inputs":[{"name":"pendingOwner","type":"address","indexed":true,"internalType":"address"}],"anonymous":false},{"type":"event","name":"OwnershipHandoverRequested","inputs":[{"name":"pendingOwner","type":"address","indexed":true,"internalType":"address"}],"anonymous":false},{"type":"event","name":"OwnershipTransferred","inputs":[{"name":"oldOwner","type":"address","indexed":true,"internalType":"address"},{"name":"newOwner","type":"address","indexed":true,"internalType":"address"}],"anonymous":false},{"type":"event","name":"RouterUpdated","inputs":[{"name":"newRouter","type":"address","indexed":false,"internalType":"address"}],"anonymous":false},{"type":"error","name":"AddressEmptyCode","inputs":[{"name":"target","type":"address","internalType":"address"}]},{"type":"error","name":"AddressInsufficientBalance","inputs":[{"name":"account","type":"address","internalType":"address"}]},{"type":"error","name":"AlreadyInitialized","inputs":[]},{"type":"error","name":"ArrayLengthsMismatch","inputs":[]},{"type":"error","name":"ERC20TransferFromFailed","inputs":[]},{"type":"error","name":"FailedInnerCall","inputs":[]},{"type":"error","name":"NativeTransferFailed","inputs":[]},{"type":"error","name":"NewOwnerIsZeroAddress","inputs":[]},{"type":"error","name":"NoHandoverRequest","inputs":[]},{"type":"error","name":"SafeERC20FailedOperation","inputs":[{"name":"token","type":"address","internalType":"address"}]},{"type":"error","name":"Unauthorized","inputs":[]}],"bytecode":{"object":"0x60803460a257601f610b9838819003918201601f19168301916001600160401b0383118484101760a657808492604094855283398101031260a257604b602060458360ba565b920160ba565b6001600160a01b03918216638b78c6d8198190555f7f8be0079c531659141344cd1fd0a4f28419497f9722a3daafe3b4186f6b6457e08180a31660018060a01b03195f5416175f55604051610aca90816100ce8239f35b5f80fd5b634e487b7160e01b5f52604160045260245ffd5b51906001600160a01b038216820360a25756fe6080604052600436101561001a575b3615610018575f80fd5b005b5f3560e01c806325692962146100c95780633ccfd60b146100c457806354d1f13d146100bf5780635caab55a146100ba578063715018a6146100b55780638da5cb5b146100b0578063c0d78655146100ab578063f04e283e146100a6578063f2fde38b146100a1578063f887ea401461009c5763fee81cf40361000e576104d0565b6104a9565b61046a565b610419565b6103aa565b61037e565b61033a565b610281565b610152565b610116565b5f3660031901126101125763389a75e1600c52335f526202a30042016020600c2055337fdbf36a107da19e49527a7176a1babf963b4b0ff8cde35ee35d6cd8f1f9ac7e1d5f80a2005b5f80fd5b34610112575f3660031901126101125761012e6108e4565b5f8080804733620186a0f11561014057005b604051633d2cec6f60e21b8152600490fd5b5f3660031901126101125763389a75e1600c52335f525f6020600c2055337ffa7b8eab7da67f412cc9575ed43464468f9bfbae89d1675917346ca6d8fe3c925f80a2005b9181601f840112156101125782359167ffffffffffffffff8311610112576020808501948460051b01011161011257565b6001600160a01b0381160361011257565b60a435906101e5826101c7565b565b5f5b8381106101f85750505f910152565b81810151838201526020016101e9565b602080820190808352835180925260408301928160408460051b8301019501935f915b84831061023b5750505050505090565b909192939495848080600193603f198682030187528a51610267815180928185528580860191016101e7565b601f01601f1916010198019695949190910192019061022b565b60c03660031901126101125767ffffffffffffffff60048035828111610112576102ae9036908301610196565b602435848111610112576102c59036908501610196565b604492919235868111610112576102df9036908701610196565b606492919235888111610112576102f99036908901610196565b939092608435998a116101125761031961032a996103369b369101610196565b9790966103246101d8565b996107d7565b60405191829182610208565b0390f35b5f3660031901126101125761034d6108e4565b5f638b78c6d8198181547f8be0079c531659141344cd1fd0a4f28419497f9722a3daafe3b4186f6b6457e08280a355005b34610112575f36600319011261011257638b78c6d819546040516001600160a01b039091168152602090f35b34610112576020366003190112610112577f7aed1d3e8155a07ccf395e44ea3109a0e2d6c9b29bbbe9f142d9790596f4dc8060206004356103ea816101c7565b6103f26108e4565b5f80546001600160a01b0319166001600160a01b03929092169182179055604051908152a1005b602036600319011261011257600435610431816101c7565b6104396108e4565b63389a75e1600c52805f526020600c20908154421161045d575f61001892556109e1565b636f5e88185f526004601cfd5b602036600319011261011257600435610482816101c7565b61048a6108e4565b8060601b1561049c57610018906109e1565b637448fbae5f526004601cfd5b34610112575f366003190112610112575f546040516001600160a01b039091168152602090f35b34610112576020366003190112610112576004356104ed816101c7565b63389a75e1600c525f52602080600c2054604051908152f35b91908110156105165760051b0190565b634e487b7160e01b5f52603260045260245ffd5b35610534816101c7565b90565b634e487b7160e01b5f52604160045260245ffd5b60a0810190811067ffffffffffffffff82111761056757604052565b610537565b90601f8019910116810190811067ffffffffffffffff82111761056757604052565b67ffffffffffffffff811161056757601f01601f191660200190565b602090818184031261011257805167ffffffffffffffff9182821161011257019083601f8301121561011257815193818511610567578460051b90604092604051966105f88785018961056c565b875285808801938601019482861161011257868101935b86851061062157505050505050505090565b84518381116101125782019084603f830112156101125788820151906106468261058e565b6106528951918261056c565b82815286898486010111610112576106738b949385948b86850191016101e7565b81520194019361060f565b908060209392818452848401375f828201840152601f01601f1916010190565b81835290916001600160fb1b0383116101125760209260051b809284830137010190565b97969593909492918060808a0160808b525260a0890195905f5b81811061079d575050506020888603818a015281865280860195818360051b82010196845f925b85841061073d57505050505050508260609261072a92886101e597960360408a015261069e565b6001600160a01b03909216940193909352565b90919293949598601f198282030184528935601e198436030181121561011257830186810191903567ffffffffffffffff81116101125780360383136101125761078c8892839260019561067e565b9b0194019401929594939190610703565b909192939660019084356107b0816101c7565b60a083901b8390031681526020908101989594019291016106dc565b6040513d5f823e3d90fd5b9291909a999a989394959796988281036108c8578987148015906108da575b6108c8575f5b8181106108875750505050505f95969761084f916108326108266108268a5460018060a01b031690565b6001600160a01b031690565b95604051998a988997889762dc60bf60e71b8952600489016106c2565b039134905af1908115610882575f91610866575090565b61053491503d805f833e61087a818361056c565b8101906105aa565b6107cc565b806108c26108a361082661089e600195878b610506565b61052a565b5f546001600160a01b03166108b9848989610506565b35913390610900565b016107fc565b604051631dc0052360e11b8152600490fd5b50848a14156107f6565b638b78c6d8195433036108f357565b6382b429005f526004601cfd5b6040516323b872dd60e01b602082019081526001600160a01b039384166024830152938316604482015260648082019590955293845261097e925f9283926109478761054b565b1694519082865af13d156109d9573d906109608261058e565b9161096e604051938461056c565b82523d5f602084013e5b83610a31565b80519081151591826109b7575b50506109945750565b604051635274afe760e01b81526001600160a01b03919091166004820152602490fd5b6109d29250906020806109ce938301019101610a19565b1590565b5f8061098b565b606090610978565b60018060a01b0316638b78c6d8198181547f8be0079c531659141344cd1fd0a4f28419497f9722a3daafe3b4186f6b6457e05f80a355565b90816020910312610112575180151581036101125790565b90610a585750805115610a4657805190602001fd5b604051630a12f52160e11b8152600490fd5b81511580610a8b575b610a69575090565b604051639996b31560e01b81526001600160a01b039091166004820152602490fd5b50803b15610a6156fea264697066735822122043322c885221ca41911071f8568e3f0cac7031b2f43f736704b1e340be9da12164736f6c63430008190033","linkReferences":{}},"methodIdentifiers":{"cancelOwnershipHandover()":"54d1f13d","completeOwnershipHandover(address)":"f04e283e","owner()":"8da5cb5b","ownershipHandoverExpiresAt(address)":"fee81cf4","renounceOwnership()":"715018a6","requestOwnershipHandover()":"25692962","router()":"f887ea40","setRouter(address)":"c0d78655","transferAndMulticall(address[],uint256[],address[],bytes[],uint256[],address)":"5caab55a","transferOwnership(address)":"f2fde38b","withdraw()":"3ccfd60b"},"id":77}