{"abi":[{"type":"function","name":"DOMAIN_SEPARATOR","inputs":[],"outputs":[{"name":"","type":"bytes32","internalType":"bytes32"}],"stateMutability":"view"},{"type":"function","name":"invalidateUnorderedNonces","inputs":[{"name":"wordPos","type":"uint256","internalType":"uint256"},{"name":"mask","type":"uint256","internalType":"uint256"}],"outputs":[],"stateMutability":"nonpayable"},{"type":"function","name":"nonceBitmap","inputs":[{"name":"","type":"address","internalType":"address"},{"name":"","type":"uint256","internalType":"uint256"}],"outputs":[{"name":"","type":"uint256","internalType":"uint256"}],"stateMutability":"view"},{"type":"function","name":"permitTransferFrom","inputs":[{"name":"permit","type":"tuple","internalType":"struct ISignatureTransfer.PermitTransferFrom","components":[{"name":"permitted","type":"tuple","internalType":"struct ISignatureTransfer.TokenPermissions","components":[{"name":"token","type":"address","internalType":"address"},{"name":"amount","type":"uint256","internalType":"uint256"}]},{"name":"nonce","type":"uint256","internalType":"uint256"},{"name":"deadline","type":"uint256","internalType":"uint256"}]},{"name":"transferDetails","type":"tuple","internalType":"struct ISignatureTransfer.SignatureTransferDetails","components":[{"name":"to","type":"address","internalType":"address"},{"name":"requestedAmount","type":"uint256","internalType":"uint256"}]},{"name":"owner","type":"address","internalType":"address"},{"name":"signature","type":"bytes","internalType":"bytes"}],"outputs":[],"stateMutability":"nonpayable"},{"type":"function","name":"permitTransferFrom","inputs":[{"name":"permit","type":"tuple","internalType":"struct ISignatureTransfer.PermitBatchTransferFrom","components":[{"name":"permitted","type":"tuple[]","internalType":"struct ISignatureTransfer.TokenPermissions[]","components":[{"name":"token","type":"address","internalType":"address"},{"name":"amount","type":"uint256","internalType":"uint256"}]},{"name":"nonce","type":"uint256","internalType":"uint256"},{"name":"deadline","type":"uint256","internalType":"uint256"}]},{"name":"transferDetails","type":"tuple[]","internalType":"struct ISignatureTransfer.SignatureTransferDetails[]","components":[{"name":"to","type":"address","internalType":"address"},{"name":"requestedAmount","type":"uint256","internalType":"uint256"}]},{"name":"owner","type":"address","internalType":"address"},{"name":"signature","type":"bytes","internalType":"bytes"}],"outputs":[],"stateMutability":"nonpayable"},{"type":"function","name":"permitWitnessTransferFrom","inputs":[{"name":"permit","type":"tuple","internalType":"struct ISignatureTransfer.PermitTransferFrom","components":[{"name":"permitted","type":"tuple","internalType":"struct ISignatureTransfer.TokenPermissions","components":[{"name":"token","type":"address","internalType":"address"},{"name":"amount","type":"uint256","internalType":"uint256"}]},{"name":"nonce","type":"uint256","internalType":"uint256"},{"name":"deadline","type":"uint256","internalType":"uint256"}]},{"name":"transferDetails","type":"tuple","internalType":"struct ISignatureTransfer.SignatureTransferDetails","components":[{"name":"to","type":"address","internalType":"address"},{"name":"requestedAmount","type":"uint256","internalType":"uint256"}]},{"name":"owner","type":"address","internalType":"address"},{"name":"witness","type":"bytes32","internalType":"bytes32"},{"name":"witnessTypeString","type":"string","internalType":"string"},{"name":"signature","type":"bytes","internalType":"bytes"}],"outputs":[],"stateMutability":"nonpayable"},{"type":"function","name":"permitWitnessTransferFrom","inputs":[{"name":"permit","type":"tuple","internalType":"struct ISignatureTransfer.PermitBatchTransferFrom","components":[{"name":"permitted","type":"tuple[]","internalType":"struct ISignatureTransfer.TokenPermissions[]","components":[{"name":"token","type":"address","internalType":"address"},{"name":"amount","type":"uint256","internalType":"uint256"}]},{"name":"nonce","type":"uint256","internalType":"uint256"},{"name":"deadline","type":"uint256","internalType":"uint256"}]},{"name":"transferDetails","type":"tuple[]","internalType":"struct ISignatureTransfer.SignatureTransferDetails[]","components":[{"name":"to","type":"address","internalType":"address"},{"name":"requestedAmount","type":"uint256","internalType":"uint256"}]},{"name":"owner","type":"address","internalType":"address"},{"name":"witness","type":"bytes32","internalType":"bytes32"},{"name":"witnessTypeString","type":"string","internalType":"string"},{"name":"signature","type":"bytes","internalType":"bytes"}],"outputs":[],"stateMutability":"nonpayable"},{"type":"event","name":"UnorderedNonceInvalidation","inputs":[{"name":"owner","type":"address","indexed":true,"internalType":"address"},{"name":"word","type":"uint256","indexed":false,"internalType":"uint256"},{"name":"mask","type":"uint256","indexed":false,"internalType":"uint256"}],"anonymous":false},{"type":"error","name":"InvalidAmount","inputs":[{"name":"maxAmount","type":"uint256","internalType":"uint256"}]},{"type":"error","name":"InvalidContractSignature","inputs":[]},{"type":"error","name":"InvalidNonce","inputs":[]},{"type":"error","name":"InvalidSignature","inputs":[]},{"type":"error","name":"InvalidSignatureLength","inputs":[]},{"type":"error","name":"InvalidSigner","inputs":[]},{"type":"error","name":"LengthMismatch","inputs":[]},{"type":"error","name":"SignatureExpired","inputs":[{"name":"signatureDeadline","type":"uint256","internalType":"uint256"}]}],"bytecode":{"object":"0x60c03460b7574660a052602081017f8cad95687ba82c2ce50e74f7b754645e5117c3a5bec8151c0726d5857980a86681527f9ac997416e8ff9d2ff6bebeb7149f65cdae5e32e2b90440b566bb3044041d36a60408301524660608301523060808301526080825260a082019180831060018060401b0384111760a35782604052519020608052610f7290816100bc82396080518161096a015260a051816109440152f35b634e487b7160e01b5f52604160045260245ffd5b5f80fdfe604060808152600480361015610013575f80fd5b5f3560e01c8063137c29fe1461052157806330f28b7a146104635780633644e515146104405780633ff9dcb1146103e05780634fe02b441461039e578063edd9444b146102795763fe8ec1a714610068575f80fd5b346102755760c0366003190112610275576001600160401b038135818111610275576100979036908401610823565b602435828111610275576100ae9036908501610911565b6100b661075e565b91608435858111610275576100ce90369088016107df565b60a496919635918211610275576101b06100ee608b998b943691016107df565b9990986a0d88191958591b1a5b994b60aa1b6080865161010d816106d6565b606b81527f6f6b656e5065726d697373696f6e735b5d207065726d69747465642c6164647260208201987f5065726d697442617463685769746e6573735472616e7366657246726f6d28548a528201527f657373207370656e6465722c75696e74323536206e6f6e63652c75696e74323560608201520152838c51948592606b6020850198895e8484015f81523781015f8382015203606b810184520182610727565b519020845151976101c089610a97565b985f5b81811061024c57505061024161024a99825190816101e5602082018093610af1565b03916101f9601f1993848101835282610727565b519020602089810151858b015195519182019687526040820192909252336060820152608081019190915260a081019390935260643560c084015260e0908101835282610727565b51902093610b2d565b005b808b61026e826102686102626001968e51610ac9565b51610c16565b92610ac9565b52016101c3565b5f80fd5b5034610275576080366003190112610275576001600160401b038135818111610275576102a99036908401610823565b602435828111610275576102c09036908501610911565b9390926102cb61075e565b91606435918211610275576102e2913691016107df565b949093835151966102f288610a97565b975f5b81811061037c57505061024a97815161032481610316602082018095610af1565b03601f198101835282610727565b5190206020860151828701519083519260208401947ffcf35f5ac6a2c28868dc44c302166470266239195f02b0ee408334829333b7668652840152336060840152608083015260a082015260a081526102418161070c565b8061038d6102626001938a51610ac9565b610397828d610ac9565b52016102f5565b5034610275578160031936011261027557356001600160a01b0381169190829003610275576020915f525f8252805f206024355f528252805f20549051908152f35b50346102755781600319360112610275577f3704902f963766a4e561bbaab6e6cdc1b1dd12f6e9e99648da8843b3f46b918d903591602435335f525f602052815f20845f52602052815f20818154179055815193845260208401523392a2005b8234610275575f3660031901126102755760209061045c610941565b9051908152f35b509034610275576101003660031901126102755761048036610774565b908060831936011261027557610494610748565b9160e4356001600160401b0381116102755761024a946104b6913691016107df565b9390926104c38351610c16565b6020840151828501519083519260208401947f939c21a48a8dbe3a9a2404a1d46691e4d39f6583d6ec6b35714604c986d801068652840152336060840152608083015260a082015260a081526105188161070c565b519020916109fc565b509034610275576101403660031901126102755761053e36610774565b908060831936011261027557610552610748565b6001600160401b039290610104358481116102755761057490369087016107df565b939094610124359081116102755761024a96610592913691016107df565b95909461065460848451936105a6856106d6565b60648552631a5b994b60e21b608060208701967f5065726d69745769746e6573735472616e7366657246726f6d28546f6b656e5088527f65726d697373696f6e73207065726d69747465642c6164647265737320737065898201527f6e6465722c75696e74323536206e6f6e63652c75696e7432353620646561646c6060820152015283865194859260646020850198895e8484015f81523781015f83820152036064810184520182610727565b519020906105186106658551610c16565b6020868101518488015194519182019586526040820192909252336060820152608081019190915260a081019290925260e43560c08301528160e08101610316565b606081019081106001600160401b038211176106c257604052565b634e487b7160e01b5f52604160045260245ffd5b60a081019081106001600160401b038211176106c257604052565b608081019081106001600160401b038211176106c257604052565b60c081019081106001600160401b038211176106c257604052565b90601f801991011681019081106001600160401b038211176106c257604052565b60c435906001600160a01b038216820361027557565b604435906001600160a01b038216820361027557565b60031901906080821261027557604080519061078f826106a7565b808294126102755780518181018181106001600160401b038211176106c25782526004356001600160a01b0381168103610275578152602435602082015282526044356020830152606435910152565b9181601f84011215610275578235916001600160401b038311610275576020838186019501011161027557565b6001600160401b0381116106c25760051b60200190565b91909160608184031261027557604080519161083e836106a7565b82948135906001600160401b039182811161027557830181601f8201121561027557803560209361086e8261080c565b9361087b88519586610727565b828552858086019360061b85010193818511610275579086899897969594939201925b8484106108bb575050505050855280820135908501520135910152565b90919293949596978483031261027557885190898201828110858211176106c2578a528435906001600160a01b0382168203610275578289928c945282870135838201528152019301919088979695949361089e565b9181601f84011215610275578235916001600160401b038311610275576020808501948460061b01011161027557565b467f00000000000000000000000000000000000000000000000000000000000000000361098c577f000000000000000000000000000000000000000000000000000000000000000090565b60405160208101907f8cad95687ba82c2ce50e74f7b754645e5117c3a5bec8151c0726d5857980a86682527f9ac997416e8ff9d2ff6bebeb7149f65cdae5e32e2b90440b566bb3044041d36a6040820152466060820152306080820152608081526109f6816106d6565b51902090565b9192909360a435936040840151804211610a7f5750602084510151808611610a675750918591610a3c610a4294610a37602088015186610c65565b610cae565b91610cf5565b51516001600160a01b0390811692608435918216820361027557610a6593610ec2565b565b60249060405190633728b83d60e01b82526004820152fd5b6024906040519063cd21db4f60e01b82526004820152fd5b90610aa18261080c565b610aae6040519182610727565b8281528092610abf601f199161080c565b0190602036910137565b8051821015610add5760209160051b010190565b634e487b7160e01b5f52603260045260245ffd5b80516020809201915f5b828110610b09575050505090565b835185529381019392810192600101610afb565b9190811015610add5760061b0190565b959190939295805151956040936040830151804211610a7f5750838803610c0157610b68918991610a3c602098610a37602088015186610c65565b5f5b868110610b7b575050505050505050565b610b86818351610ac9565b519085610b9482868a610b1d565b013586830151808211610bea575080610bb3575b506001915001610b6a565b91516001600160a01b039290831690610bcd83878b610b1d565b359384168403610275576001938b610be493610ec2565b5f610ba8565b602490875190633728b83d60e01b82526004820152fd5b6040516001621398b960e31b03198152600490fd5b6040516020808201927f618358ac3db8dc274f0cd8829da7e234bd48cd73c4a740aede1adec9846d06a1845260018060a01b03815116604084015201516060820152606081526109f6816106f1565b90600160ff82161b9160018060a01b03165f525f60205260405f209060081c5f5260205260405f20818154188091551615610c9c57565b604051633ab3447f60e11b8152600490fd5b610cb6610941565b9060405190602082019261190160f01b845260228301526042820152604281526109f6816106f1565b9190826040910312610275576020823592013590565b833b610dfb5760418203610d9857610d0f82820182610cdf565b93909260401015610add576020935f9360ff6040608095013560f81c5b60405194855216868401526040830152606082015282805260015afa15610d8d575f516001600160a01b03908116918215610d7b571603610d6957565b604051632057875960e21b8152600490fd5b604051638baa579f60e01b8152600490fd5b6040513d5f823e3d90fd5b60408203610de957610dac91810190610cdf565b6001600160ff1b0381169260ff91821c601b01918211610dd5576020935f9360ff608094610d2c565b634e487b7160e01b5f52601160045260245ffd5b604051634be6321b60e01b8152600490fd5b908092936020926064604051809681958294630b135d3f60e11b9a8b8552600485015260406024850152816044850152848401375f828201840152601f01601f191681010301916001600160a01b03165afa908115610d8d575f91610e7f575b506001600160e01b03191603610e6d57565b604051632c19a72f60e21b8152600490fd5b90506020813d602011610eba575b81610e9a60209383610727565b8101031261027557516001600160e01b031981168103610275575f610e5b565b3d9150610e8d565b905f6064926020958295604051946323b872dd60e01b86526004860152602485015260448401525af13d15601f3d1160015f511416171615610f0057565b60405162461bcd60e51b81526020600482015260146024820152731514905394d1915497d19493d357d1905253115160621b6044820152606490fdfea2646970667358221220548770caabcd18a71f48d0e13fc1a9c10b6e64cc0c743c91e8e1a6a1b37d325464736f6c63430008190033","linkReferences":{}},"methodIdentifiers":{"DOMAIN_SEPARATOR()":"3644e515","invalidateUnorderedNonces(uint256,uint256)":"3ff9dcb1","nonceBitmap(address,uint256)":"4fe02b44","permitTransferFrom(((address,uint256),uint256,uint256),(address,uint256),address,bytes)":"30f28b7a","permitTransferFrom(((address,uint256)[],uint256,uint256),(address,uint256)[],address,bytes)":"edd9444b","permitWitnessTransferFrom(((address,uint256),uint256,uint256),(address,uint256),address,bytes32,string,bytes)":"137c29fe","permitWitnessTransferFrom(((address,uint256)[],uint256,uint256),(address,uint256)[],address,bytes32,string,bytes)":"fe8ec1a7"},"id":37}