{"abi":[{"type":"constructor","inputs":[{"name":"name","type":"string","internalType":"string"},{"name":"symbol","type":"string","internalType":"string"}],"stateMutability":"nonpayable"},{"type":"function","name":"DOMAIN_SEPARATOR","inputs":[],"outputs":[{"name":"","type":"bytes32","internalType":"bytes32"}],"stateMutability":"view"},{"type":"function","name":"allowance","inputs":[{"name":"owner","type":"address","internalType":"address"},{"name":"spender","type":"address","internalType":"address"}],"outputs":[{"name":"","type":"uint256","internalType":"uint256"}],"stateMutability":"view"},{"type":"function","name":"approve","inputs":[{"name":"spender","type":"address","internalType":"address"},{"name":"value","type":"uint256","internalType":"uint256"}],"outputs":[{"name":"","type":"bool","internalType":"bool"}],"stateMutability":"nonpayable"},{"type":"function","name":"balanceOf","inputs":[{"name":"account","type":"address","internalType":"address"}],"outputs":[{"name":"","type":"uint256","internalType":"uint256"}],"stateMutability":"view"},{"type":"function","name":"decimals","inputs":[],"outputs":[{"name":"","type":"uint8","internalType":"uint8"}],"stateMutability":"view"},{"type":"function","name":"eip712Domain","inputs":[],"outputs":[{"name":"fields","type":"bytes1","internalType":"bytes1"},{"name":"name","type":"string","internalType":"string"},{"name":"version","type":"string","internalType":"string"},{"name":"chainId","type":"uint256","internalType":"uint256"},{"name":"verifyingContract","type":"address","internalType":"address"},{"name":"salt","type":"bytes32","internalType":"bytes32"},{"name":"extensions","type":"uint256[]","internalType":"uint256[]"}],"stateMutability":"view"},{"type":"function","name":"mint","inputs":[{"name":"to","type":"address","internalType":"address"},{"name":"amount","type":"uint256","internalType":"uint256"}],"outputs":[{"name":"","type":"bool","internalType":"bool"}],"stateMutability":"nonpayable"},{"type":"function","name":"name","inputs":[],"outputs":[{"name":"","type":"string","internalType":"string"}],"stateMutability":"view"},{"type":"function","name":"nonces","inputs":[{"name":"owner","type":"address","internalType":"address"}],"outputs":[{"name":"","type":"uint256","internalType":"uint256"}],"stateMutability":"view"},{"type":"function","name":"permit","inputs":[{"name":"owner","type":"address","internalType":"address"},{"name":"spender","type":"address","internalType":"address"},{"name":"value","type":"uint256","internalType":"uint256"},{"name":"deadline","type":"uint256","internalType":"uint256"},{"name":"v","type":"uint8","internalType":"uint8"},{"name":"r","type":"bytes32","internalType":"bytes32"},{"name":"s","type":"bytes32","internalType":"bytes32"}],"outputs":[],"stateMutability":"nonpayable"},{"type":"function","name":"symbol","inputs":[],"outputs":[{"name":"","type":"string","internalType":"string"}],"stateMutability":"view"},{"type":"function","name":"totalSupply","inputs":[],"outputs":[{"name":"","type":"uint256","internalType":"uint256"}],"stateMutability":"view"},{"type":"function","name":"transfer","inputs":[{"name":"to","type":"address","internalType":"address"},{"name":"value","type":"uint256","internalType":"uint256"}],"outputs":[{"name":"","type":"bool","internalType":"bool"}],"stateMutability":"nonpayable"},{"type":"function","name":"transferFrom","inputs":[{"name":"from","type":"address","internalType":"address"},{"name":"to","type":"address","internalType":"address"},{"name":"value","type":"uint256","internalType":"uint256"}],"outputs":[{"name":"","type":"bool","internalType":"bool"}],"stateMutability":"nonpayable"},{"type":"event","name":"Approval","inputs":[{"name":"owner","type":"address","indexed":true,"internalType":"address"},{"name":"spender","type":"address","indexed":true,"internalType":"address"},{"name":"value","type":"uint256","indexed":false,"internalType":"uint256"}],"anonymous":false},{"type":"event","name":"EIP712DomainChanged","inputs":[],"anonymous":false},{"type":"event","name":"Transfer","inputs":[{"name":"from","type":"address","indexed":true,"internalType":"address"},{"name":"to","type":"address","indexed":true,"internalType":"address"},{"name":"value","type":"uint256","indexed":false,"internalType":"uint256"}],"anonymous":false},{"type":"error","name":"ECDSAInvalidSignature","inputs":[]},{"type":"error","name":"ECDSAInvalidSignatureLength","inputs":[{"name":"length","type":"uint256","internalType":"uint256"}]},{"type":"error","name":"ECDSAInvalidSignatureS","inputs":[{"name":"s","type":"bytes32","internalType":"bytes32"}]},{"type":"error","name":"ERC20InsufficientAllowance","inputs":[{"name":"spender","type":"address","internalType":"address"},{"name":"allowance","type":"uint256","internalType":"uint256"},{"name":"needed","type":"uint256","internalType":"uint256"}]},{"type":"error","name":"ERC20InsufficientBalance","inputs":[{"name":"sender","type":"address","internalType":"address"},{"name":"balance","type":"uint256","internalType":"uint256"},{"name":"needed","type":"uint256","internalType":"uint256"}]},{"type":"error","name":"ERC20InvalidApprover","inputs":[{"name":"approver","type":"address","internalType":"address"}]},{"type":"error","name":"ERC20InvalidReceiver","inputs":[{"name":"receiver","type":"address","internalType":"address"}]},{"type":"error","name":"ERC20InvalidSender","inputs":[{"name":"sender","type":"address","internalType":"address"}]},{"type":"error","name":"ERC20InvalidSpender","inputs":[{"name":"spender","type":"address","internalType":"address"}]},{"type":"error","name":"ERC2612ExpiredSignature","inputs":[{"name":"deadline","type":"uint256","internalType":"uint256"}]},{"type":"error","name":"ERC2612InvalidSigner","inputs":[{"name":"signer","type":"address","internalType":"address"},{"name":"owner","type":"address","internalType":"address"}]},{"type":"error","name":"InvalidAccountNonce","inputs":[{"name":"account","type":"address","internalType":"address"},{"name":"currentNonce","type":"uint256","internalType":"uint256"}]},{"type":"error","name":"InvalidShortString","inputs":[]},{"type":"error","name":"StringTooLong","inputs":[{"name":"str","type":"string","internalType":"string"}]}],"bytecode":{"object":"0x6101606040818152346103ce5761157d803803809161001e82866103d2565b843982019181818403126103ce5780516001600160401b0392908381116103ce578461004b9184016103f5565b91602094858201518581116103ce5761006492016103f5565b93815190828201828110868211176102ee57835260019283835281830193603160f81b855285518781116102ee5760038054918383811c931680156103c4575b868410146103b057601f9283811161036d575b50808684821160011461030d575f91610302575b505f1982841b1c191690841b1781555b8951918983116102ee5760049a8b548581811c911680156102e4575b888210146102d15782811161028e575b508691841160011461022c579383949184925f95610221575b50501b925f19911b1c19161787555b6101388561044a565b93610120948552610148846105cf565b95610140968752838151910120938460e05251902096610100978089524660a0528251938401947f8b73c3c69bb8fe3d512ecc4cf759cc79239f7b179b0ffacaa9a75d522b39400f86528385015260608401524660808401523060a084015260a0835260c08301968388109088111761020e57508590525190206080523060c052610e71938461070c8539608051846109ee015260a05184610aba015260c051846109b8015260e05184610a3d01525183610a630152518261039a015251816103c40152f35b604190634e487b7160e01b5f525260245ffd5b015193505f80610120565b9190601f198416928c5f5284885f20945f5b8a89838310610277575050501061025e575b50505050811b01875561012f565b01519060f8845f19921b161c191690555f808080610250565b86860151895590970196948501948893500161023e565b8c5f52875f208380870160051c8201928a88106102c8575b0160051c019086905b8281106102bd575050610107565b5f81550186906102af565b925081926102a6565b60228d634e487b7160e01b5f525260245ffd5b90607f16906100f7565b634e487b7160e01b5f52604160045260245ffd5b90508901515f6100cb565b5f8481528881208794509190601f198416908a8e5b83831061035657505050831161033f575b5050811b0181556100db565b8b01515f1983861b60f8161c191690555f80610333565b840151855589969094019392830192018a8e610322565b825f52865f208480840160051c8201928985106103a7575b0160051c019085905b82811061039c5750506100b7565b5f815501859061038e565b92508192610385565b634e487b7160e01b5f52602260045260245ffd5b92607f16926100a4565b5f80fd5b601f909101601f19168101906001600160401b038211908210176102ee57604052565b81601f820112156103ce578051906001600160401b0382116102ee5760405192610429601f8401601f1916602001856103d2565b828452602083830101116103ce57815f9260208093018386015e8301015290565b805160209190828110156104c2575090601f825111610484578082519201519080831061047657501790565b825f19910360031b1b161790565b60448260405192839163305a27a960e01b83528160048401528051918291826024860152018484015e5f828201840152601f01601f19168101030190fd5b6001600160401b0381116102ee576005928354926001938481811c911680156105c5575b838210146103b057601f8111610594575b5081601f841160011461053257509282939183925f94610527575b50501b915f199060031b1c191617905560ff90565b015192505f80610512565b919083601f198116875f52845f20945f905b8883831061057a5750505010610562575b505050811b01905560ff90565b01515f1960f88460031b161c191690555f8080610555565b858701518855909601959485019487935090810190610544565b855f5284601f845f209201871c820191601f8601881c015b8281106105ba5750506104f7565b5f81550185906105ac565b90607f16906104e6565b8051602090818110156105f95750601f825111610484578082519201519080831061047657501790565b906001600160401b0382116102ee57600654926001938481811c91168015610701575b838210146103b057601f81116106cd575b5081601f841160011461066957509282939183925f9461065e575b50501b915f199060031b1c19161760065560ff90565b015192505f80610648565b919083601f19811660065f52845f20945f905b888383106106b3575050501061069b575b505050811b0160065560ff90565b01515f1960f88460031b161c191690555f808061068d565b85870151885590960195948501948793509081019061067c565b60065f5284601f845f20920160051c820191601f860160051c015b8281106106f657505061062d565b5f81550185906106e8565b90607f169061061c56fe6080604090808252600480361015610015575f80fd5b5f3560e01c91826306fdde031461073257508163095ea7b31461070957816318160ddd146106eb57816323b872dd146105f9578163313ce567146105de5781633644e515146105bb57816340c10f191461050e57816370a08231146104d85781637ecebe00146104a157816384b0196e1461038357816395d89b4114610297578163a9059cbb14610267578163d505accf14610106575063dd62ed3e146100ba575f80fd5b346101025780600319360112610102576020906100d5610825565b6100dd61083b565b9060018060a01b038091165f5260018452825f2091165f528252805f20549051908152f35b5f80fd5b9050346101025760e036600319011261010257610121610825565b61012961083b565b906044359260643560843560ff81168103610102578142116102505760018060a01b039081851692835f526007602052885f209081549160018301905589519060208201927f6e71edae12b1b97f4d1f60370fef10105fa2faae0126114a169c64845d6126c98452868c840152858a1660608401528a608084015260a083015260c082015260c0815260e0810181811067ffffffffffffffff82111761023d578a5251902061020d91610204916101de6109b5565b908b519161190160f01b83526002830152602282015260c43591604260a4359220610d2b565b90929192610db8565b1681810361022257610220868686610ae0565b005b86516325c0072360e11b815292830152602482015260449150fd5b604187634e487b7160e01b5f525260245ffd5b865163313c898160e11b8152808401839052602490fd5b8234610102578060031936011261010257602090610290610286610825565b60243590336108db565b5160018152f35b905034610102575f36600319011261010257815191825f83546102b981610851565b90818452602095600191876001821691825f1461035c575050600114610300575b5050506102fc92916102ed9103856108b9565b51928284938452830190610801565b0390f35b5f90815286935091907f8a35acfbc15ff81a39ae7d344fd709f28e8600b4aa8c65c6b64bfe7fe36bd19b5b82841061034457505050820101816102ed6102fc6102da565b8054848a01860152889550879490930192810161032b565b60ff19168782015293151560051b860190930193508492506102ed91506102fc90506102da565b905034610102575f366003190112610102576103be7f0000000000000000000000000000000000000000000000000000000000000000610b6d565b916103e87f0000000000000000000000000000000000000000000000000000000000000000610c6e565b815191602091602084019484861067ffffffffffffffff87111761048e5750610443826020928761043699989795525f85528151988998600f60f81b8a5260e0868b015260e08a0190610801565b9188830390890152610801565b914660608701523060808701525f60a087015285830360c087015251918281520192915f5b82811061047757505050500390f35b835185528695509381019392810192600101610468565b604190634e487b7160e01b5f525260245ffd5b8234610102576020366003190112610102576020906001600160a01b036104c6610825565b165f5260078252805f20549051908152f35b8234610102576020366003190112610102576020906001600160a01b036104fd610825565b165f525f8252805f20549051908152f35b8234610102578060031936011261010257610527610825565b602435926001600160a01b039091169081156105a5576002549084820180921161059257507fddf252ad1be2c89b69c2b068fc378daa952ba7f163c4a11628f55a4df523b3ef602080955f936002558484528382528584208181540190558551908152a35160018152f35b601190634e487b7160e01b5f525260245ffd5b6024905f84519163ec442f0560e01b8352820152fd5b8234610102575f366003190112610102576020906105d76109b5565b9051908152f35b8234610102575f366003190112610102576020905160128152f35b90503461010257606036600319011261010257610614610825565b61061c61083b565b906044359260018060a01b038216805f526001602052855f20335f52602052855f2054915f198303610657575b6020876102908888886108db565b8583106106bf5781156106a957331561069357505f90815260016020908152868220338352815290869020918590039091558290610290610649565b6024905f885191634a1406b160e11b8352820152fd5b6024905f88519163e602df0560e01b8352820152fd5b8651637dc7a0d960e11b8152339181019182526020820193909352604081018690528291506060010390fd5b8234610102575f366003190112610102576020906002549051908152f35b8234610102578060031936011261010257602090610290610728610825565b6024359033610ae0565b8334610102575f3660031901126101025760035490825f61075284610851565b808352602094600190866001821691825f146107df575050600114610784575b50506102fc92916102ed9103856108b9565b9085925060035f527fc2575a0e9e593c00f959f8c92f12db2869c3395a3b0502d05e2516446f71f85b915f925b8284106107c757505050820101816102ed610772565b8054848a0186015288955087949093019281016107b1565b60ff19168682015292151560051b850190920192508391506102ed9050610772565b805180835260209291819084018484015e5f828201840152601f01601f1916010190565b600435906001600160a01b038216820361010257565b602435906001600160a01b038216820361010257565b90600182811c9216801561087f575b602083101461086b57565b634e487b7160e01b5f52602260045260245ffd5b91607f1691610860565b6040810190811067ffffffffffffffff8211176108a557604052565b634e487b7160e01b5f52604160045260245ffd5b90601f8019910116810190811067ffffffffffffffff8211176108a557604052565b916001600160a01b0380841692831561099d571692831561098557825f525f60205260405f2054908282106109535750817fddf252ad1be2c89b69c2b068fc378daa952ba7f163c4a11628f55a4df523b3ef92602092855f525f84520360405f2055845f5260405f20818154019055604051908152a3565b60405163391434e360e21b81526001600160a01b03919091166004820152602481019190915260448101829052606490fd5b60405163ec442f0560e01b81525f6004820152602490fd5b604051634b637e8f60e11b81525f6004820152602490fd5b307f00000000000000000000000000000000000000000000000000000000000000006001600160a01b03161480610ab7575b15610a10577f000000000000000000000000000000000000000000000000000000000000000090565b60405160208101907f8b73c3c69bb8fe3d512ecc4cf759cc79239f7b179b0ffacaa9a75d522b39400f82527f000000000000000000000000000000000000000000000000000000000000000060408201527f000000000000000000000000000000000000000000000000000000000000000060608201524660808201523060a082015260a0815260c0810181811067ffffffffffffffff8211176108a55760405251902090565b507f000000000000000000000000000000000000000000000000000000000000000046146109e7565b6001600160a01b03908116918215610b555716918215610b3d5760207f8c5be1e5ebec7d5bd14f71427d1e84f3dd0314c0f7b2291e5b200ac8c7c3b92591835f526001825260405f20855f5282528060405f2055604051908152a3565b604051634a1406b160e11b81525f6004820152602490fd5b60405163e602df0560e01b81525f6004820152602490fd5b60ff8114610bab5760ff811690601f8211610b995760405191610b8f83610889565b8252602082015290565b604051632cd44ac360e21b8152600490fd5b50604051600554815f610bbd83610851565b80835292602090600190818116908115610c4a5750600114610beb575b5050610be8925003826108b9565b90565b91509260055f527f036b6384b5eca791c62761152d0c79bb0604c104a5fb6f4eb0703f3154bb3db0935f925b828410610c325750610be89450505081016020015f80610bda565b85548785018301529485019486945092810192610c17565b91505060209250610be894915060ff191682840152151560051b8201015f80610bda565b60ff8114610c905760ff811690601f8211610b995760405191610b8f83610889565b50604051600654815f610ca283610851565b80835292602090600190818116908115610c4a5750600114610ccc575050610be8925003826108b9565b91509260065f527ff652222313e28459528d920b65115c16c04f3efc82aaedc97be59f3f377c0d3f935f925b828410610d135750610be89450505081016020015f80610bda565b85548785018301529485019486945092810192610cf8565b91907f7fffffffffffffffffffffffffffffff5d576e7357a4501ddfe92f46681b20a08411610dad579160209360809260ff5f9560405194855216868401526040830152606082015282805260015afa15610da2575f516001600160a01b03811615610d9857905f905f90565b505f906001905f90565b6040513d5f823e3d90fd5b5050505f9160039190565b6004811015610e275780610dca575050565b60018103610de45760405163f645eedf60e01b8152600490fd5b60028103610e055760405163fce698f760e01b815260048101839052602490fd5b600314610e0f5750565b602490604051906335e2f38360e21b82526004820152fd5b634e487b7160e01b5f52602160045260245ffdfea2646970667358221220fb50e1e25325629d47a94f7420b5d0ac2520b7e0ea108db345483897e7c2173b64736f6c63430008190033","linkReferences":{}},"methodIdentifiers":{"DOMAIN_SEPARATOR()":"3644e515","allowance(address,address)":"dd62ed3e","approve(address,uint256)":"095ea7b3","balanceOf(address)":"70a08231","decimals()":"313ce567","eip712Domain()":"84b0196e","mint(address,uint256)":"40c10f19","name()":"06fdde03","nonces(address)":"7ecebe00","permit(address,address,uint256,uint256,uint8,bytes32,bytes32)":"d505accf","symbol()":"95d89b41","totalSupply()":"18160ddd","transfer(address,uint256)":"a9059cbb","transferFrom(address,address,uint256)":"23b872dd"},"id":118}