{"abi":[{"type":"constructor","inputs":[{"name":"solver","type":"address","internalType":"address"}],"stateMutability":"nonpayable"},{"type":"fallback","stateMutability":"payable"},{"type":"function","name":"forward","inputs":[{"name":"data","type":"bytes","internalType":"bytes"}],"outputs":[],"stateMutability":"payable"},{"type":"function","name":"makeCalls","inputs":[{"name":"calls","type":"tuple[]","internalType":"struct RelayReceiver.Call[]","components":[{"name":"to","type":"address","internalType":"address"},{"name":"data","type":"bytes","internalType":"bytes"},{"name":"value","type":"uint256","internalType":"uint256"}]}],"outputs":[],"stateMutability":"payable"},{"type":"event","name":"FundsForwardedWithData","inputs":[{"name":"data","type":"bytes","indexed":false,"internalType":"bytes"}],"anonymous":false},{"type":"error","name":"CallFailed","inputs":[]},{"type":"error","name":"NativeTransferFailed","inputs":[]},{"type":"error","name":"Unauthorized","inputs":[]}],"bytecode":{"object":"0x60a034607357601f6104c138819003918201601f19168301916001600160401b03831184841017607757808492602094604052833981010312607357516001600160a01b0381168103607357608052604051610435908161008c823960805181818160a70152818161013101526103670152f35b5f80fd5b634e487b7160e01b5f52604160045260245ffdfe60806040526004361015610018575b610016610361565b005b5f3560e01c8063d948d468146100375763dd4ed8370361000e576100e1565b60203660031901126100dd5760043567ffffffffffffffff8082116100dd57366023830112156100dd5781600401359081116100dd5736602482840101116100dd577f936c2ca3b35d2d0b24057b0675c459e4515f48fe132d138e213ae59ffab7f53e916100d86024926100cb347f00000000000000000000000000000000000000000000000000000000000000006103db565b60405193849301836101d8565b0390a1005b5f80fd5b6020806003193601126100dd5760049067ffffffffffffffff9082358281116100dd57366023820112156100dd5780600401359283116100dd576024810190602436918560051b0101116100dd577f00000000000000000000000000000000000000000000000000000000000000006001600160a01b031633036101c7575f5b83811061016a57005b61017d6101788286856101ff565b6102b0565b80515f9081906001600160a01b0316926040938785830151920151918883519301915af16101a961033c565b50156101b85750600101610161565b51633204506f60e01b81528590fd5b6040516282b42960e81b8152600490fd5b90918060409360208452816020850152848401375f828201840152601f01601f1916010190565b91908110156102215760051b81013590605e19813603018212156100dd570190565b634e487b7160e01b5f52603260045260245ffd5b634e487b7160e01b5f52604160045260245ffd5b604051906060820182811067ffffffffffffffff82111761026957604052565b610235565b6040519190601f01601f1916820167ffffffffffffffff81118382101761026957604052565b67ffffffffffffffff811161026957601f01601f191660200190565b6060813603126100dd576102c2610249565b9080356001600160a01b03811681036100dd5782526020908181013567ffffffffffffffff81116100dd5781019136601f840112156100dd5782359061030f61030a83610294565b61026e565b91808352368282870101116100dd5781815f92826040980183870137840101528401520135604082015290565b3d1561035c573d9061035061030a83610294565b9182523d5f602084013e565b606090565b61038b347f00000000000000000000000000000000000000000000000000000000000000006103db565b7f936c2ca3b35d2d0b24057b0675c459e4515f48fe132d138e213ae59ffab7f53e60405160208152366020820152365f60408301375f60403683010152604081601f19601f3601168101030190a1565b5f8080938193620186a0f1156103ed57565b604051633d2cec6f60e21b8152600490fdfea26469706673582212206ed2af0b17925add86b42a7f919012fab6916d574f82bec17e7f89a5728741de64736f6c63430008190033","linkReferences":{}},"methodIdentifiers":{"forward(bytes)":"d948d468","makeCalls((address,bytes,uint256)[])":"dd4ed837"},"id":61}