{"abi":[{"type":"constructor","inputs":[],"stateMutability":"nonpayable"},{"type":"function","name":"allowance","inputs":[{"name":"owner","type":"address","internalType":"address"},{"name":"spender","type":"address","internalType":"address"}],"outputs":[{"name":"","type":"uint256","internalType":"uint256"}],"stateMutability":"view"},{"type":"function","name":"approve","inputs":[{"name":"spender","type":"address","internalType":"address"},{"name":"value","type":"uint256","internalType":"uint256"}],"outputs":[{"name":"","type":"bool","internalType":"bool"}],"stateMutability":"nonpayable"},{"type":"function","name":"balanceOf","inputs":[{"name":"account","type":"address","internalType":"address"}],"outputs":[{"name":"","type":"uint256","internalType":"uint256"}],"stateMutability":"view"},{"type":"function","name":"decimals","inputs":[],"outputs":[{"name":"","type":"uint8","internalType":"uint8"}],"stateMutability":"view"},{"type":"function","name":"increaseAllowance","inputs":[{"name":"spender","type":"address","internalType":"address"},{"name":"amount","type":"uint256","internalType":"uint256"}],"outputs":[{"name":"","type":"bool","internalType":"bool"}],"stateMutability":"nonpayable"},{"type":"function","name":"mint","inputs":[{"name":"to","type":"address","internalType":"address"},{"name":"amount","type":"uint256","internalType":"uint256"}],"outputs":[{"name":"","type":"bool","internalType":"bool"}],"stateMutability":"nonpayable"},{"type":"function","name":"name","inputs":[],"outputs":[{"name":"","type":"string","internalType":"string"}],"stateMutability":"view"},{"type":"function","name":"symbol","inputs":[],"outputs":[{"name":"","type":"string","internalType":"string"}],"stateMutability":"view"},{"type":"function","name":"totalSupply","inputs":[],"outputs":[{"name":"","type":"uint256","internalType":"uint256"}],"stateMutability":"view"},{"type":"function","name":"transfer","inputs":[{"name":"to","type":"address","internalType":"address"},{"name":"value","type":"uint256","internalType":"uint256"}],"outputs":[{"name":"","type":"bool","internalType":"bool"}],"stateMutability":"nonpayable"},{"type":"function","name":"transferFrom","inputs":[{"name":"from","type":"address","internalType":"address"},{"name":"to","type":"address","internalType":"address"},{"name":"value","type":"uint256","internalType":"uint256"}],"outputs":[{"name":"","type":"bool","internalType":"bool"}],"stateMutability":"nonpayable"},{"type":"event","name":"Approval","inputs":[{"name":"owner","type":"address","indexed":true,"internalType":"address"},{"name":"spender","type":"address","indexed":true,"internalType":"address"},{"name":"value","type":"uint256","indexed":false,"internalType":"uint256"}],"anonymous":false},{"type":"event","name":"Transfer","inputs":[{"name":"from","type":"address","indexed":true,"internalType":"address"},{"name":"to","type":"address","indexed":true,"internalType":"address"},{"name":"value","type":"uint256","indexed":false,"internalType":"uint256"}],"anonymous":false},{"type":"error","name":"ERC20InsufficientAllowance","inputs":[{"name":"spender","type":"address","internalType":"address"},{"name":"allowance","type":"uint256","internalType":"uint256"},{"name":"needed","type":"uint256","internalType":"uint256"}]},{"type":"error","name":"ERC20InsufficientBalance","inputs":[{"name":"sender","type":"address","internalType":"address"},{"name":"balance","type":"uint256","internalType":"uint256"},{"name":"needed","type":"uint256","internalType":"uint256"}]},{"type":"error","name":"ERC20InvalidApprover","inputs":[{"name":"approver","type":"address","internalType":"address"}]},{"type":"error","name":"ERC20InvalidReceiver","inputs":[{"name":"receiver","type":"address","internalType":"address"}]},{"type":"error","name":"ERC20InvalidSender","inputs":[{"name":"sender","type":"address","internalType":"address"}]},{"type":"error","name":"ERC20InvalidSpender","inputs":[{"name":"spender","type":"address","internalType":"address"}]}],"bytecode":{"object":"0x6080346102cd576040906001600160401b0390808301828111828210176101e4578352600681526020916505465737432360d41b838301528351848101818110838211176101e45785526005815264054535432360dc1b8482015282518281116101e4576003918254916001958684811c941680156102c3575b888510146102af578190601f94858111610261575b508890858311600114610203575f926101f8575b50505f1982861b1c191690861b1783555b80519384116101e45760049586548681811c911680156101da575b828210146101c757838111610184575b508092851160011461011f57509383949184925f95610114575b50501b925f19911b1c19161790555b516107a090816102d28239f35b015193505f806100f8565b92919084601f198116885f52855f20955f905b8983831061016a5750505010610151575b50505050811b019055610107565b01519060f8845f19921b161c191690555f808080610143565b858701518955909701969485019488935090810190610132565b875f52815f208480880160051c8201928489106101be575b0160051c019087905b8281106101b35750506100de565b5f81550187906101a5565b9250819261019c565b602288634e487b7160e01b5f525260245ffd5b90607f16906100ce565b634e487b7160e01b5f52604160045260245ffd5b015190505f806100a2565b90889350601f19831691875f528a5f20925f5b8c82821061024b5750508411610234575b505050811b0183556100b3565b01515f1983881b60f8161c191690555f8080610227565b8385015186558c97909501949384019301610216565b909150855f52885f208580850160051c8201928b86106102a6575b918a91869594930160051c01915b82811061029857505061008e565b5f81558594508a910161028a565b9250819261027c565b634e487b7160e01b5f52602260045260245ffd5b93607f1693610079565b5f80fdfe6080604090808252600480361015610015575f80fd5b5f3560e01c91826306fdde03146104b457508163095ea7b31461048b57816318160ddd1461046d57816323b872dd1461037b578163313ce56714610360578163395093511461030157816340c10f191461026a57816370a082311461023457816395d89b411461011557508063a9059cbb146100e55763dd62ed3e14610099575f80fd5b346100e157806003193601126100e1576020906100b46105b6565b6100bc6105cc565b9060018060a01b038091165f5260018452825f2091165f528252805f20549051908152f35b5f80fd5b50346100e157806003193601126100e15760209061010e6101046105b6565b6024359033610603565b5160018152f35b82346100e1575f3660031901126100e1578051905f835460018160011c906001831692831561022a575b6020938484108114610217578388529081156101fb57506001146101a7575b505050829003601f01601f191682019267ffffffffffffffff841183851017610194575082918261019092528261058c565b0390f35b604190634e487b7160e01b5f525260245ffd5b5f878152929350837f8a35acfbc15ff81a39ae7d344fd709f28e8600b4aa8c65c6b64bfe7fe36bd19b5b8385106101e7575050505083010184808061015e565b8054888601830152930192849082016101d1565b60ff1916878501525050151560051b840101905084808061015e565b602289634e487b7160e01b5f525260245ffd5b91607f169161013f565b82346100e15760203660031901126100e1576020906001600160a01b036102596105b6565b165f525f8252805f20549051908152f35b82346100e157806003193601126100e1576102836105b6565b602435926001600160a01b039091169081156102eb57505f7fddf252ad1be2c89b69c2b068fc378daa952ba7f163c4a11628f55a4df523b3ef6020856102cc82976002546105e2565b6002558484528382528584208181540190558551908152a35160018152f35b6024905f84519163ec442f0560e01b8352820152fd5b82346100e157806003193601126100e15760209061010e6103206105b6565b610351602435335f5260018652845f2060018060a01b0384165f528652845f20548019808311610358575b506105e2565b90336106dd565b91508761034b565b82346100e1575f3660031901126100e1576020905160128152f35b9050346100e15760603660031901126100e1576103966105b6565b61039e6105cc565b906044359260018060a01b038216805f526001602052855f20335f52602052855f2054915f1983036103d9575b60208761010e888888610603565b85831061044157811561042b57331561041557505f9081526001602090815286822033835281529086902091859003909155829061010e6103cb565b6024905f885191634a1406b160e11b8352820152fd5b6024905f88519163e602df0560e01b8352820152fd5b8651637dc7a0d960e11b8152339181019182526020820193909352604081018690528291506060010390fd5b82346100e1575f3660031901126100e1576020906002549051908152f35b82346100e157806003193601126100e15760209061010e6104aa6105b6565b60243590336106dd565b83346100e1575f3660031901126100e1575f60035460018160011c9060018316928315610582575b6020938484108114610217578388529081156101fb575060011461052c57505050829003601f01601f191682019267ffffffffffffffff841183851017610194575082918261019092528261058c565b60035f908152929350837fc2575a0e9e593c00f959f8c92f12db2869c3395a3b0502d05e2516446f71f85b5b83851061056e575050505083010184808061015e565b805488860183015293019284908201610558565b91607f16916104dc565b602060409281835280519182918282860152018484015e5f828201840152601f01601f1916010190565b600435906001600160a01b03821682036100e157565b602435906001600160a01b03821682036100e157565b919082018092116105ef57565b634e487b7160e01b5f52601160045260245ffd5b916001600160a01b038084169283156106c557169283156106ad57825f525f60205260405f20549082821061067b5750817fddf252ad1be2c89b69c2b068fc378daa952ba7f163c4a11628f55a4df523b3ef92602092855f525f84520360405f2055845f5260405f20818154019055604051908152a3565b60405163391434e360e21b81526001600160a01b03919091166004820152602481019190915260448101829052606490fd5b60405163ec442f0560e01b81525f6004820152602490fd5b604051634b637e8f60e11b81525f6004820152602490fd5b6001600160a01b03908116918215610752571691821561073a5760207f8c5be1e5ebec7d5bd14f71427d1e84f3dd0314c0f7b2291e5b200ac8c7c3b92591835f526001825260405f20855f5282528060405f2055604051908152a3565b604051634a1406b160e11b81525f6004820152602490fd5b60405163e602df0560e01b81525f6004820152602490fdfea26469706673582212206c995f019ac35ec66cc99acda81b505f35dc906f7ccc2f77c0114a9bf13ba09364736f6c63430008190033","linkReferences":{}},"methodIdentifiers":{"allowance(address,address)":"dd62ed3e","approve(address,uint256)":"095ea7b3","balanceOf(address)":"70a08231","decimals()":"313ce567","increaseAllowance(address,uint256)":"39509351","mint(address,uint256)":"40c10f19","name()":"06fdde03","symbol()":"95d89b41","totalSupply()":"18160ddd","transfer(address,uint256)":"a9059cbb","transferFrom(address,address,uint256)":"23b872dd"},"id":117}