{"abi":[{"type":"constructor","inputs":[{"name":"_paymentTokenAddress","type":"address","internalType":"address"}],"stateMutability":"nonpayable"},{"type":"function","name":"MINT_PRICE","inputs":[],"outputs":[{"name":"","type":"uint256","internalType":"uint256"}],"stateMutability":"view"},{"type":"function","name":"approve","inputs":[{"name":"to","type":"address","internalType":"address"},{"name":"tokenId","type":"uint256","internalType":"uint256"}],"outputs":[],"stateMutability":"nonpayable"},{"type":"function","name":"balanceOf","inputs":[{"name":"owner","type":"address","internalType":"address"}],"outputs":[{"name":"","type":"uint256","internalType":"uint256"}],"stateMutability":"view"},{"type":"function","name":"getApproved","inputs":[{"name":"tokenId","type":"uint256","internalType":"uint256"}],"outputs":[{"name":"","type":"address","internalType":"address"}],"stateMutability":"view"},{"type":"function","name":"isApprovedForAll","inputs":[{"name":"owner","type":"address","internalType":"address"},{"name":"operator","type":"address","internalType":"address"}],"outputs":[{"name":"","type":"bool","internalType":"bool"}],"stateMutability":"view"},{"type":"function","name":"mint","inputs":[{"name":"to","type":"address","internalType":"address"},{"name":"tokenId","type":"uint256","internalType":"uint256"}],"outputs":[{"name":"","type":"bool","internalType":"bool"}],"stateMutability":"nonpayable"},{"type":"function","name":"name","inputs":[],"outputs":[{"name":"","type":"string","internalType":"string"}],"stateMutability":"view"},{"type":"function","name":"ownerOf","inputs":[{"name":"tokenId","type":"uint256","internalType":"uint256"}],"outputs":[{"name":"","type":"address","internalType":"address"}],"stateMutability":"view"},{"type":"function","name":"paymentToken","inputs":[],"outputs":[{"name":"","type":"address","internalType":"contract IERC20"}],"stateMutability":"view"},{"type":"function","name":"safeTransferFrom","inputs":[{"name":"from","type":"address","internalType":"address"},{"name":"to","type":"address","internalType":"address"},{"name":"tokenId","type":"uint256","internalType":"uint256"}],"outputs":[],"stateMutability":"nonpayable"},{"type":"function","name":"safeTransferFrom","inputs":[{"name":"from","type":"address","internalType":"address"},{"name":"to","type":"address","internalType":"address"},{"name":"tokenId","type":"uint256","internalType":"uint256"},{"name":"data","type":"bytes","internalType":"bytes"}],"outputs":[],"stateMutability":"nonpayable"},{"type":"function","name":"setApprovalForAll","inputs":[{"name":"operator","type":"address","internalType":"address"},{"name":"approved","type":"bool","internalType":"bool"}],"outputs":[],"stateMutability":"nonpayable"},{"type":"function","name":"supportsInterface","inputs":[{"name":"interfaceId","type":"bytes4","internalType":"bytes4"}],"outputs":[{"name":"","type":"bool","internalType":"bool"}],"stateMutability":"view"},{"type":"function","name":"symbol","inputs":[],"outputs":[{"name":"","type":"string","internalType":"string"}],"stateMutability":"view"},{"type":"function","name":"tokenURI","inputs":[{"name":"","type":"uint256","internalType":"uint256"}],"outputs":[{"name":"","type":"string","internalType":"string"}],"stateMutability":"pure"},{"type":"function","name":"transferFrom","inputs":[{"name":"from","type":"address","internalType":"address"},{"name":"to","type":"address","internalType":"address"},{"name":"tokenId","type":"uint256","internalType":"uint256"}],"outputs":[],"stateMutability":"nonpayable"},{"type":"event","name":"Approval","inputs":[{"name":"owner","type":"address","indexed":true,"internalType":"address"},{"name":"approved","type":"address","indexed":true,"internalType":"address"},{"name":"tokenId","type":"uint256","indexed":true,"internalType":"uint256"}],"anonymous":false},{"type":"event","name":"ApprovalForAll","inputs":[{"name":"owner","type":"address","indexed":true,"internalType":"address"},{"name":"operator","type":"address","indexed":true,"internalType":"address"},{"name":"approved","type":"bool","indexed":false,"internalType":"bool"}],"anonymous":false},{"type":"event","name":"Transfer","inputs":[{"name":"from","type":"address","indexed":true,"internalType":"address"},{"name":"to","type":"address","indexed":true,"internalType":"address"},{"name":"tokenId","type":"uint256","indexed":true,"internalType":"uint256"}],"anonymous":false},{"type":"error","name":"ERC721IncorrectOwner","inputs":[{"name":"sender","type":"address","internalType":"address"},{"name":"tokenId","type":"uint256","internalType":"uint256"},{"name":"owner","type":"address","internalType":"address"}]},{"type":"error","name":"ERC721InsufficientApproval","inputs":[{"name":"operator","type":"address","internalType":"address"},{"name":"tokenId","type":"uint256","internalType":"uint256"}]},{"type":"error","name":"ERC721InvalidApprover","inputs":[{"name":"approver","type":"address","internalType":"address"}]},{"type":"error","name":"ERC721InvalidOperator","inputs":[{"name":"operator","type":"address","internalType":"address"}]},{"type":"error","name":"ERC721InvalidOwner","inputs":[{"name":"owner","type":"address","internalType":"address"}]},{"type":"error","name":"ERC721InvalidReceiver","inputs":[{"name":"receiver","type":"address","internalType":"address"}]},{"type":"error","name":"ERC721InvalidSender","inputs":[{"name":"sender","type":"address","internalType":"address"}]},{"type":"error","name":"ERC721NonexistentToken","inputs":[{"name":"tokenId","type":"uint256","internalType":"uint256"}]}],"bytecode":{"object":"0x6080346102f257601f1990601f906001600160401b0361104b388190038481018616840183811185821017610220578492829160405283396020938491810103126102f257516001600160a01b03811693908490036102f2576100606102f6565b926005845264135e53919560da1b8185015261007a6102f6565b9560048752631353919560e21b828801528451848111610220575f546001968782811c921680156102e8575b8583101461020257818684931161029a575b50849086831160011461023f575f92610234575b50505f19600383901b1c191690861b175f555b86519384116102205784548581811c91168015610216575b83821014610202578381116101bf575b5081928411600114610161575050819293945f92610156575b50505f19600383901b1c191690821b1790555b600680546001600160a01b031916919091179055604051610d3590816103168239f35b015190505f80610120565b5f858152828120918516979193925b8882106101a85750508385969710610190575b505050811b019055610133565b01515f1960f88460031b161c191690555f8080610183565b808785968294968601518155019501930190610170565b855f52825f208480870160051c8201928588106101f9575b0160051c019086905b8281106101ee575050610107565b5f81550186906101e0565b925081926101d7565b634e487b7160e01b5f52602260045260245ffd5b90607f16906100f7565b634e487b7160e01b5f52604160045260245ffd5b015190505f806100cc565b9084899416915f8052865f20925f5b88828210610284575050841161026c575b505050811b015f556100df565b01515f1960f88460031b161c191690555f808061025f565b8385015186558c9790950194938401930161024e565b9091505f8052845f208680850160051c8201928786106102df575b918a91869594930160051c01915b8281106102d15750506100b8565b5f81558594508a91016102c3565b925081926102b5565b91607f16916100a6565b5f80fd5b60408051919082016001600160401b038111838210176102205760405256fe6080604090808252600480361015610015575f80fd5b5f3560e01c91826301ffc9a7146108835750816306fdde03146107bd578163081812fc14610785578163095ea7b3146106a557816323b872dd1461068e5781633013ce291461066657816340c10f19146104ae57816342842e0e146104625781636352211e1461043357816370a08231146103df57816395d89b41146102d0578163a22cb46514610235578163b88d4fde146101af578163c002d23d14610191578163c87b56dd14610121575063e985e9c5146100d0575f80fd5b3461011d578060031936011261011d576020906100eb61092b565b6100f3610941565b9060018060a01b038091165f5260058452825f2091165f52825260ff815f20541690519015158152f35b5f80fd5b823461011d57602036600319011261011d5780519080820182811067ffffffffffffffff82111761017e5761017a935081526008825267746f6b656e55524960c01b6020830152519182916020835260208301906108ed565b0390f35b604184634e487b7160e01b5f525260245ffd5b823461011d575f36600319011261011d57602090516301312d008152f35b823461011d57608036600319011261011d576101c961092b565b6101d1610941565b6064359367ffffffffffffffff851161011d573660238601121561011d578401356102076101fe826109c2565b9451948561098c565b808452366024828701011161011d576020815f9260246102339801838801378501015260443591610b79565b005b823461011d578060031936011261011d5761024e61092b565b906024359182151580930361011d576001600160a01b03169283156102bb5750335f526005602052805f20835f52602052805f2060ff1981541660ff8416179055519081527f17307eab39ab6107e8899845ad3d59bd9653f200f220920489ca2b5937696c3160203392a3005b836024925191630b61174360e31b8352820152fd5b823461011d575f36600319011261011d578051905f90600191600154928360011c90600185169485156103d5575b60209586841081146103c2578388528794939291879082156103a0575050600114610345575b505061017a929161033691038561098c565b519282849384528301906108ed565b9085925060015f527fb10e2d527612073b26eecdfd717e6a320cf44b4afac2b0732d9fcbe2b7fa0cf6915f925b8284106103885750505082010181610336610324565b8054848a018601528895508794909301928101610372565b60ff19168682015292151560051b850190920192508391506103369050610324565b602289634e487b7160e01b5f525260245ffd5b91607f16916102fe565b823461011d57602036600319011261011d576001600160a01b0361040161092b565b16801561041d57602092505f5260038252805f20549051908152f35b81516322718ad960e21b81525f81850152602490fd5b823461011d57602036600319011261011d5761045160209235610cc5565b90516001600160a01b039091168152f35b823461011d5761047136610957565b91835193602085019085821067ffffffffffffffff83111761049b576102339650525f8452610b79565b604187634e487b7160e01b5f525260245ffd5b823461011d578060031936011261011d575f916104c961092b565b60243560018060a01b039182600654168551906323b872dd60e01b825233868301523060248301526301312d0060448301528160648160209a8b945af190811561065c575f91610626575b50156105f25782169182156105dc57815f5260028652845f2054169182151592836105ab575b5f82815260038852868120805460010190558381526002885286812080546001600160a01b031916841790557fddf252ad1be2c89b69c2b068fc378daa952ba7f163c4a11628f55a4df523b3ef9080a461059657505160018152f35b5f60249251916339e3563760e11b8352820152fd5b5f83815260046020526040812080546001600160a01b03191690558181526003885286902080545f1901905561053a565b8451633250574960e11b81525f81860152602490fd5b845162461bcd60e51b8152808501879052600e60248201526d14185e5b595b9d0819985a5b195960921b6044820152606490fd5b90508681813d8311610655575b61063d818361098c565b8101031261011d5751801515810361011d5787610514565b503d610633565b86513d5f823e3d90fd5b823461011d575f36600319011261011d5760065490516001600160a01b039091168152602090f35b3461011d5761023361069f36610957565b916109de565b823461011d578060031936011261011d576106be61092b565b916024356106cb81610cc5565b33151580610772575b8061074b575b610735576001600160a01b039485169482918691167f8c5be1e5ebec7d5bd14f71427d1e84f3dd0314c0f7b2291e5b200ac8c7c3b9255f80a45f526020525f20906bffffffffffffffffffffffff60a01b8254161790555f80f35b835163a9fbf51f60e01b81523381850152602490fd5b5060018060a01b0381165f526005602052835f20335f5260205260ff845f205416156106da565b506001600160a01b0381163314156106d4565b823461011d57602036600319011261011d5781602092356107a581610cc5565b505f52825260018060a01b03815f2054169051908152f35b823461011d575f36600319011261011d578051905f905f549160018360011c9060018516948515610879575b60209586841081146103c2578388528794939291879082156103a057505060011461082057505061017a929161033691038561098c565b5f80805286935091907f290decd9548b62a8d60345a988386fc84ba6bc95484008f6362f93160ef3e5635b8284106108615750505082010181610336610324565b8054848a01860152889550879490930192810161084b565b91607f16916107e9565b903461011d57602036600319011261011d57359063ffffffff60e01b821680920361011d576020916380ac58cd60e01b81149081156108dc575b81156108cb575b5015158152f35b6301ffc9a760e01b149050836108c4565b635b5e139f60e01b811491506108bd565b91908251928382525f5b848110610917575050825f602080949584010152601f8019910116010190565b6020818301810151848301820152016108f7565b600435906001600160a01b038216820361011d57565b602435906001600160a01b038216820361011d57565b606090600319011261011d576001600160a01b0390600435828116810361011d5791602435908116810361011d579060443590565b90601f8019910116810190811067ffffffffffffffff8211176109ae57604052565b634e487b7160e01b5f52604160045260245ffd5b67ffffffffffffffff81116109ae57601f01601f191660200190565b6001600160a01b039182169290918315610b6157815f52602092600284528260409583875f2054169533151580610acf575b5060029087610a9e575b825f5260038152885f2060018154019055835f5252865f20816bffffffffffffffffffffffff60a01b825416179055857fddf252ad1be2c89b69c2b068fc378daa952ba7f163c4a11628f55a4df523b3ef5f80a41692838303610a7d5750505050565b6064945051926364283d7b60e01b8452600484015260248301526044820152fd5b5f84815260046020526040812080546001600160a01b03191690558881526003825289902080545f19019055610a1a565b9192509080610b20575b15610ae7579084915f610a10565b868587610b04576024915190637e27328960e01b82526004820152fd5b604491519063177e802f60e01b82523360048301526024820152fd5b503386148015610b45575b80610ad95750845f52600481523384885f20541614610ad9565b50855f5260058152865f20335f52815260ff875f205416610b2b565b604051633250574960e11b81525f6004820152602490fd5b9192610b868483856109de565b813b610b93575b50505050565b604051630a85bd0160e11b8082523360048301526001600160a01b03948516602483015260448201959095526080606482015260209593909216939190859082908190610be49060848301906108ed565b03815f885af15f9181610c85575b50610c4f575050503d5f14610c48573d610c0b816109c2565b90610c19604051928361098c565b81523d5f8483013e5b80519283610c4357604051633250574960e11b815260048101849052602490fd5b019050fd5b6060610c22565b9193506001600160e01b031990911603610c6d57505f808080610b8d565b60249060405190633250574960e11b82526004820152fd5b9091508581813d8311610cbe575b610c9d818361098c565b8101031261011d57516001600160e01b03198116810361011d57905f610bf2565b503d610c93565b5f818152600260205260409020546001600160a01b0316908115610ce7575090565b60249060405190637e27328960e01b82526004820152fdfea2646970667358221220b249d88e15f7bf2556d867c2ff93b247aa518b608e5468327b57f75cb40ff9ca64736f6c63430008190033","linkReferences":{}},"methodIdentifiers":{"MINT_PRICE()":"c002d23d","approve(address,uint256)":"095ea7b3","balanceOf(address)":"70a08231","getApproved(uint256)":"081812fc","isApprovedForAll(address,address)":"e985e9c5","mint(address,uint256)":"40c10f19","name()":"06fdde03","ownerOf(uint256)":"6352211e","paymentToken()":"3013ce29","safeTransferFrom(address,address,uint256)":"42842e0e","safeTransferFrom(address,address,uint256,bytes)":"b88d4fde","setApprovalForAll(address,bool)":"a22cb465","supportsInterface(bytes4)":"01ffc9a7","symbol()":"95d89b41","tokenURI(uint256)":"c87b56dd","transferFrom(address,address,uint256)":"23b872dd"},"id":114}