{"abi":[{"type":"function","name":"getBasefee","inputs":[],"outputs":[{"name":"basefee","type":"uint256","internalType":"uint256"}],"stateMutability":"view"},{"type":"function","name":"getBlockHash","inputs":[{"name":"blockNumber","type":"uint256","internalType":"uint256"}],"outputs":[{"name":"blockHash","type":"bytes32","internalType":"bytes32"}],"stateMutability":"view"},{"type":"function","name":"getBlockNumber","inputs":[],"outputs":[{"name":"blockNumber","type":"uint256","internalType":"uint256"}],"stateMutability":"view"},{"type":"function","name":"getChainId","inputs":[],"outputs":[{"name":"chainid","type":"uint256","internalType":"uint256"}],"stateMutability":"view"},{"type":"function","name":"getCurrentBlockCoinbase","inputs":[],"outputs":[{"name":"coinbase","type":"address","internalType":"address"}],"stateMutability":"view"},{"type":"function","name":"getCurrentBlockDifficulty","inputs":[],"outputs":[{"name":"difficulty","type":"uint256","internalType":"uint256"}],"stateMutability":"view"},{"type":"function","name":"getCurrentBlockGasLimit","inputs":[],"outputs":[{"name":"gaslimit","type":"uint256","internalType":"uint256"}],"stateMutability":"view"},{"type":"function","name":"getCurrentBlockTimestamp","inputs":[],"outputs":[{"name":"timestamp","type":"uint256","internalType":"uint256"}],"stateMutability":"view"},{"type":"function","name":"getEthBalance","inputs":[{"name":"addr","type":"address","internalType":"address"}],"outputs":[{"name":"balance","type":"uint256","internalType":"uint256"}],"stateMutability":"view"},{"type":"function","name":"getLastBlockHash","inputs":[],"outputs":[{"name":"blockHash","type":"bytes32","internalType":"bytes32"}],"stateMutability":"view"}],"bytecode":{"object":"0x608080604052346015576101e5908161001a8239f35b5f80fdfe60806040908082526004361015610014575f80fd5b5f3560e01c9081630f28c97d146101975750806327e86d6e146101795780633408e4701461015f5780633e64a6961461014557806342cbb15c1461012b5780634d2301cc146100fb57806372425d9d146100e157806386d516e8146100c7578063a8b0574e146100ad5763ee82ac5e1461008c575f80fd5b346100a95760203660031901126100a95760209051600435408152f35b5f80fd5b50346100a9575f3660031901126100a95760209051418152f35b50346100a9575f3660031901126100a95760209051458152f35b50346100a9575f3660031901126100a95760209051448152f35b50346100a95760203660031901126100a957600435906001600160a01b03821682036100a9575190318152602090f35b50346100a9575f3660031901126100a95760209051438152f35b50346100a9575f3660031901126100a95760209051488152f35b50346100a9575f3660031901126100a95760209051468152f35b50346100a9575f3660031901126100a95751435f1901408152602090f35b346100a9575f3660031901126100a957602090428152f3fea2646970667358221220dbcc93b7ad6db25a326e2095e1adda90b075e3fe98d5bd900cecc912aef5a0ac64736f6c63430008190033","linkReferences":{}},"methodIdentifiers":{"getBasefee()":"3e64a696","getBlockHash(uint256)":"ee82ac5e","getBlockNumber()":"42cbb15c","getChainId()":"3408e470","getCurrentBlockCoinbase()":"a8b0574e","getCurrentBlockDifficulty()":"72425d9d","getCurrentBlockGasLimit()":"86d516e8","getCurrentBlockTimestamp()":"0f28c97d","getEthBalance(address)":"4d2301cc","getLastBlockHash()":"27e86d6e"},"id":94}