{"abi":[{"type":"constructor","inputs":[{"name":"_owner","type":"address","internalType":"address"},{"name":"_router","type":"address","internalType":"address"},{"name":"_permit2","type":"address","internalType":"address"}],"stateMutability":"nonpayable"},{"type":"receive","stateMutability":"payable"},{"type":"function","name":"_CALL3VALUE_TYPEHASH","inputs":[],"outputs":[{"name":"","type":"bytes32","internalType":"bytes32"}],"stateMutability":"view"},{"type":"function","name":"_EIP_712_RELAYER_WITNESS_TYPE_HASH","inputs":[],"outputs":[{"name":"","type":"bytes32","internalType":"bytes32"}],"stateMutability":"view"},{"type":"function","name":"_RELAYER_WITNESS_TYPE_STRING","inputs":[],"outputs":[{"name":"","type":"string","internalType":"string"}],"stateMutability":"view"},{"type":"function","name":"cancelOwnershipHandover","inputs":[],"outputs":[],"stateMutability":"payable"},{"type":"function","name":"completeOwnershipHandover","inputs":[{"name":"pendingOwner","type":"address","internalType":"address"}],"outputs":[],"stateMutability":"payable"},{"type":"function","name":"owner","inputs":[],"outputs":[{"name":"result","type":"address","internalType":"address"}],"stateMutability":"view"},{"type":"function","name":"ownershipHandoverExpiresAt","inputs":[{"name":"pendingOwner","type":"address","internalType":"address"}],"outputs":[{"name":"result","type":"uint256","internalType":"uint256"}],"stateMutability":"view"},{"type":"function","name":"permit2TransferAndMulticall","inputs":[{"name":"user","type":"address","internalType":"address"},{"name":"permit","type":"tuple","internalType":"struct ISignatureTransfer.PermitBatchTransferFrom","components":[{"name":"permitted","type":"tuple[]","internalType":"struct ISignatureTransfer.TokenPermissions[]","components":[{"name":"token","type":"address","internalType":"address"},{"name":"amount","type":"uint256","internalType":"uint256"}]},{"name":"nonce","type":"uint256","internalType":"uint256"},{"name":"deadline","type":"uint256","internalType":"uint256"}]},{"name":"calls","type":"tuple[]","internalType":"struct Call3Value[]","components":[{"name":"target","type":"address","internalType":"address"},{"name":"allowFailure","type":"bool","internalType":"bool"},{"name":"value","type":"uint256","internalType":"uint256"},{"name":"callData","type":"bytes","internalType":"bytes"}]},{"name":"refundTo","type":"address","internalType":"address"},{"name":"nftRecipient","type":"address","internalType":"address"},{"name":"permitSignature","type":"bytes","internalType":"bytes"}],"outputs":[{"name":"returnData","type":"tuple[]","internalType":"struct Result[]","components":[{"name":"success","type":"bool","internalType":"bool"},{"name":"returnData","type":"bytes","internalType":"bytes"}]}],"stateMutability":"payable"},{"type":"function","name":"permitTransferAndMulticall","inputs":[{"name":"permits","type":"tuple[]","internalType":"struct Permit[]","components":[{"name":"token","type":"address","internalType":"address"},{"name":"owner","type":"address","internalType":"address"},{"name":"value","type":"uint256","internalType":"uint256"},{"name":"nonce","type":"uint256","internalType":"uint256"},{"name":"deadline","type":"uint256","internalType":"uint256"},{"name":"v","type":"uint8","internalType":"uint8"},{"name":"r","type":"bytes32","internalType":"bytes32"},{"name":"s","type":"bytes32","internalType":"bytes32"}]},{"name":"calls","type":"tuple[]","internalType":"struct Call3Value[]","components":[{"name":"target","type":"address","internalType":"address"},{"name":"allowFailure","type":"bool","internalType":"bool"},{"name":"value","type":"uint256","internalType":"uint256"},{"name":"callData","type":"bytes","internalType":"bytes"}]},{"name":"refundTo","type":"address","internalType":"address"},{"name":"nftRecipient","type":"address","internalType":"address"}],"outputs":[{"name":"returnData","type":"tuple[]","internalType":"struct Result[]","components":[{"name":"success","type":"bool","internalType":"bool"},{"name":"returnData","type":"bytes","internalType":"bytes"}]}],"stateMutability":"payable"},{"type":"function","name":"renounceOwnership","inputs":[],"outputs":[],"stateMutability":"payable"},{"type":"function","name":"requestOwnershipHandover","inputs":[],"outputs":[],"stateMutability":"payable"},{"type":"function","name":"router","inputs":[],"outputs":[{"name":"","type":"address","internalType":"address"}],"stateMutability":"view"},{"type":"function","name":"setPermit2","inputs":[{"name":"_permit2","type":"address","internalType":"address"}],"outputs":[],"stateMutability":"nonpayable"},{"type":"function","name":"setRouter","inputs":[{"name":"_router","type":"address","internalType":"address"}],"outputs":[],"stateMutability":"nonpayable"},{"type":"function","name":"transferAndMulticall","inputs":[{"name":"tokens","type":"address[]","internalType":"address[]"},{"name":"amounts","type":"uint256[]","internalType":"uint256[]"},{"name":"calls","type":"tuple[]","internalType":"struct Call3Value[]","components":[{"name":"target","type":"address","internalType":"address"},{"name":"allowFailure","type":"bool","internalType":"bool"},{"name":"value","type":"uint256","internalType":"uint256"},{"name":"callData","type":"bytes","internalType":"bytes"}]},{"name":"refundTo","type":"address","internalType":"address"},{"name":"nftRecipient","type":"address","internalType":"address"}],"outputs":[{"name":"returnData","type":"tuple[]","internalType":"struct Result[]","components":[{"name":"success","type":"bool","internalType":"bool"},{"name":"returnData","type":"bytes","internalType":"bytes"}]}],"stateMutability":"payable"},{"type":"function","name":"transferOwnership","inputs":[{"name":"newOwner","type":"address","internalType":"address"}],"outputs":[],"stateMutability":"payable"},{"type":"function","name":"withdraw","inputs":[],"outputs":[],"stateMutability":"nonpayable"},{"type":"event","name":"OwnershipHandoverCanceled","inputs":[{"name":"pendingOwner","type":"address","indexed":true,"internalType":"address"}],"anonymous":false},{"type":"event","name":"OwnershipHandoverRequested","inputs":[{"name":"pendingOwner","type":"address","indexed":true,"internalType":"address"}],"anonymous":false},{"type":"event","name":"OwnershipTransferred","inputs":[{"name":"oldOwner","type":"address","indexed":true,"internalType":"address"},{"name":"newOwner","type":"address","indexed":true,"internalType":"address"}],"anonymous":false},{"type":"event","name":"Permit2Updated","inputs":[{"name":"newPermit2","type":"address","indexed":false,"internalType":"address"}],"anonymous":false},{"type":"event","name":"RouterUpdated","inputs":[{"name":"newRouter","type":"address","indexed":false,"internalType":"address"}],"anonymous":false},{"type":"error","name":"AddressEmptyCode","inputs":[{"name":"target","type":"address","internalType":"address"}]},{"type":"error","name":"AddressInsufficientBalance","inputs":[{"name":"account","type":"address","internalType":"address"}]},{"type":"error","name":"AlreadyInitialized","inputs":[]},{"type":"error","name":"ArrayLengthsMismatch","inputs":[]},{"type":"error","name":"FailedInnerCall","inputs":[]},{"type":"error","name":"NativeTransferFailed","inputs":[]},{"type":"error","name":"NewOwnerIsZeroAddress","inputs":[]},{"type":"error","name":"NoHandoverRequest","inputs":[]},{"type":"error","name":"RefundToCannotBeZeroAddress","inputs":[]},{"type":"error","name":"SafeERC20FailedOperation","inputs":[{"name":"token","type":"address","internalType":"address"}]},{"type":"error","name":"Unauthorized","inputs":[]}],"bytecode":{"object":"0x60803460ba57601f6119cc38819003918201601f19168301916001600160401b0383118484101760be5780849260609460405283398101031260ba5760428160d2565b6056604060506020850160d2565b930160d2565b6001600160a01b03918216638b78c6d8198190555f7f8be0079c531659141344cd1fd0a4f28419497f9722a3daafe3b4186f6b6457e08180a38160018060a01b03199316835f5416175f55169060015416176001556040516118e690816100e68239f35b5f80fd5b634e487b7160e01b5f52604160045260245ffd5b51906001600160a01b038216820360ba5756fe6080604052600436101561001a575b3615610018575f80fd5b005b5f3560e01c8063101ec30a146101295780632569296214610124578063308750561461011f578063337390821461011a5780633806a3cf146101155780633ccfd60b1461011057806354d1f13d1461010b578063715018a6146101065780638da5cb5b14610101578063a0a6ce7f146100fc578063c0d78655146100f7578063c99a0d65146100f2578063cf641c61146100ed578063f04e283e146100e8578063f2fde38b146100e3578063f887ea40146100de5763fee81cf40361000e57610be1565b610bba565b610b7b565b610b2a565b610af0565b610ab6565b610a47565b6109bc565b610990565b61094c565b610908565b6108cc565b61089d565b61060a565b610328565b6101f1565b610177565b6001600160a01b0381160361013f57565b5f80fd5b606435906101508261012e565b565b608435906101508261012e565b604435906101508261012e565b35906101508261012e565b3461013f57602036600319011261013f577faecfd826d6b270962e6ff81f57b75e8527073ef343cbb38af801b8a972c7846160206004356101b78161012e565b6101bf61136a565b600180546001600160a01b0319166001600160a01b03929092169182179055604051908152a1005b5f91031261013f57565b5f36600319011261013f5763389a75e1600c52335f526202a30042016020600c2055337fdbf36a107da19e49527a7176a1babf963b4b0ff8cde35ee35d6cd8f1f9ac7e1d5f80a2005b9181601f8401121561013f578235916001600160401b03831161013f576020808501948460051b01011161013f57565b5f5b83811061027b5750505f910152565b818101518382015260200161026c565b906020916102a48151809281855285808601910161026a565b601f01601f1916010190565b6020808201908083528351809252604092604081018260408560051b8401019601945f925b8584106102e6575050505050505090565b909192939495968580610317600193603f1986820301885286838d518051151584520151918185820152019061028b565b9901940194019295949391906102d5565b60a036600319011261013f5760046001600160401b03813581811161013f57610354903690840161023a565b60249391933583811161013f5761036e903690840161023a565b94909360443590811161013f57610388903690850161023a565b939091606435956103988761012e565b608435946103a58661012e565b8881036104ac576001600160a01b0388161561049b575f5b81811061045a57885f8989898961040b6103ef6103e36103e3885460018060a01b031690565b6001600160a01b031690565b93604051978896879586956330be556760e01b87528601610d7e565b039134905af180156104555761042f915f91610433575b50604051918291826102b0565b0390f35b61044f91503d805f833e6104478183610556565b810190610c54565b82610422565b610e83565b806104956104766103e3610471600195878a610c2b565b610c40565b5f546001600160a01b031661048c848f89610c2b565b35913390611386565b016103bd565b60405163fc62e08f60e01b81528490fd5b604051631dc0052360e11b81528490fd5b634e487b7160e01b5f52604160045260245ffd5b606081019081106001600160401b038211176104ec57604052565b6104bd565b604081019081106001600160401b038211176104ec57604052565b61010081019081106001600160401b038211176104ec57604052565b6001600160401b0381116104ec57604052565b60a081019081106001600160401b038211176104ec57604052565b90601f801991011681019081106001600160401b038211176104ec57604052565b60405190610150826104f1565b6001600160401b0381116104ec5760051b60200190565b6001600160401b0381116104ec57601f01601f191660200190565b9291926105c28261059b565b916105d06040519384610556565b82948184528183011161013f578281602093845f960137010152565b9080601f8301121561013f57816020610607933591016105b6565b90565b60031960c03682011261013f576004356106238161012e565b602435916001600160401b039081841161013f57606090843603011261013f57604091825193610652856104d1565b806004013583811161013f5781013660238201121561013f5760048101359061067a82610584565b9161068787519384610556565b8083526020906024602085019160061b8401019236841161013f57602401905b83821061072257505050509060449186526024810135602087015201358385015260443582811161013f576106e090369060040161023a565b6106e8610143565b906106f1610152565b9260a43595861161013f5761042f976107116107179736906004016105ec565b95610e8e565b9051918291826102b0565b888236031261013f578289918251610739816104f1565b84356107448161012e565b815282850135838201528152019101906106a7565b6040519061012082018281106001600160401b038211176104ec5760405260ec82526b7432353620616d6f756e742960a01b610100837f52656c617965725769746e657373207769746e6573732952656c61796572576960208201527f746e65737328616464726573732072656c617965722c6164647265737320726560408201527f66756e64546f2c61646472657373206e6674526563697069656e742c43616c6c60608201527f3356616c75655b5d2063616c6c3356616c7565732943616c6c3356616c75652860808201527f61646472657373207461726765742c626f6f6c20616c6c6f774661696c75726560a08201527f2c75696e743235362076616c75652c62797465732063616c6c4461746129546f60c08201527f6b656e5065726d697373696f6e73286164647265737320746f6b656e2c75696e60e08201520152565b3461013f575f36600319011261013f5761042f6108b8610759565b60405191829160208352602083019061028b565b3461013f575f36600319011261013f576108e461136a565b5f8080804733620186a0f1156108f657005b604051633d2cec6f60e21b8152600490fd5b5f36600319011261013f5763389a75e1600c52335f525f6020600c2055337ffa7b8eab7da67f412cc9575ed43464468f9bfbae89d1675917346ca6d8fe3c925f80a2005b5f36600319011261013f5761095f61136a565b5f638b78c6d8198181547f8be0079c531659141344cd1fd0a4f28419497f9722a3daafe3b4186f6b6457e08280a355005b3461013f575f36600319011261013f57638b78c6d819546040516001600160a01b039091168152602090f35b608036600319011261013f576004356001600160401b0380821161013f573660238301121561013f5781600401359181831161013f573660248460081b8301011161013f5760243591821161013f5761042f92610a20610a3b93369060040161023a565b90610a2961015f565b926024610a34610143565b9501611254565b604051918291826102b0565b3461013f57602036600319011261013f577f7aed1d3e8155a07ccf395e44ea3109a0e2d6c9b29bbbe9f142d9790596f4dc806020600435610a878161012e565b610a8f61136a565b5f80546001600160a01b0319166001600160a01b03929092169182179055604051908152a1005b3461013f575f36600319011261013f5760206040517fe23dc67d94bc5ccc95cdaa7f8c7e41f4c3b78d9d1e7baad8604a2773456e2b3c8152f35b3461013f575f36600319011261013f5760206040517ffd3926a097b5d365885a8c0afe16fa80ed4d377e8627017476dfe9729e8a6cde8152f35b602036600319011261013f57600435610b428161012e565b610b4a61136a565b63389a75e1600c52805f526020600c209081544211610b6e575f61001892556116b0565b636f5e88185f526004601cfd5b602036600319011261013f57600435610b938161012e565b610b9b61136a565b8060601b15610bad57610018906116b0565b637448fbae5f526004601cfd5b3461013f575f36600319011261013f575f546040516001600160a01b039091168152602090f35b3461013f57602036600319011261013f57600435610bfe8161012e565b63389a75e1600c525f52602080600c2054604051908152f35b634e487b7160e01b5f52603260045260245ffd5b9190811015610c3b5760051b0190565b610c17565b356106078161012e565b8015150361013f57565b90602090818382031261013f5782516001600160401b039384821161013f57019080601f8301121561013f578151610c8b81610584565b94604092610c9b84519788610556565b828752858088019360051b8601019481861161013f57868101935b868510610cc857505050505050505090565b845184811161013f57820186601f19828603011261013f57865190610cec826104f1565b89810151610cf981610c4a565b8252878101519086821161013f57019184603f8401121561013f578983015191610d228361059b565b610d2e8a519182610556565b838152868a858701011161013f57610d4f8c959486958c878501910161026a565b83820152815201940193610cb6565b908060209392818452848401375f828201840152601f01601f1916010190565b919493929460609080606085016060865252608090608085019260808260051b8701019480945f915b848310610dd457505050506001600160a01b03978816602086015250505091909316604090930192909252565b90919293949596607f198982030183528735607e198336030181121561013f5782018035610e018161012e565b6001600160a01b0316825260209080820135610e1c81610c4a565b1515828401526040808201359084015286810135601e198236030181121561013f57018181359101926001600160401b03821161013f57813603841361013f5760019383928b83818c610e729601520191610d5e565b990193019301919594939290610da7565b6040513d5f823e3d90fd5b9596959192916001600160a01b038516156111ab578751610f14575b50505f80549596509394610ec8906103e3906001600160a01b031681565b91610ee9604051968795869485946330be556760e01b865260048601610d7e565b039134905af1908115610455575f91610f00575090565b61060791503d805f833e6104478183610556565b95919692610f2488969296611467565b945f5b8981106110c5575060405160209681610f4460208201809361150b565b0391610f58601f1993848101835282610556565b519020604080517fe23dc67d94bc5ccc95cdaa7f8c7e41f4c3b78d9d1e7baad8604a2773456e2b3c6020820190815233928201929092526001600160a01b0385811660608301528716608082015260a081019290925260c0928301825291610fc09082610556565b51902091610fcf885151611537565b5f8054919b6001600160a01b0390921699905b8151805182101561103a5790611033818f8e8e80611002856001996114f7565b51015190611020611011610577565b6001600160a01b039094168452565b82015261102d83836114f7565b526114f7565b5001610fe2565b505094999398509499909591965061105c6103e360015460018060a01b031690565b91611065610759565b94833b1561013f576110925f969287936040519c8d988997889663fe8ec1a760e01b8852600488016115e7565b03925af1938415610455575f946110ac575b869594610eaa565b806110b96110bf92610528565b806101e7565b5f6110a4565b806110d96104716001938d879d9c9d611499565b8b61119460206111866110f7826110f188878d611499565b016114bb565b938961112b61112461111a8a60409586611112838389611499565b013595611499565b60608101906114c5565b36916105b6565b8481519101209151958694850197889094939260809260a08301967ffd3926a097b5d365885a8c0afe16fa80ed4d377e8627017476dfe9729e8a6cde845260018060a01b031660208401521515604083015260608201520152565b03601f198101835282610556565b5190206111a1828a6114f7565b5201979697610f27565b60405163fc62e08f60e01b8152600490fd5b9190811015610c3b5760081b0190565b359060ff8216820361013f57565b6101008136031261013f5760e0604051916111f58361050c565b6111fe8161016c565b835261120c6020820161016c565b602084015260408101356040840152606081013560608401526080810135608084015261123b60a082016111cd565b60a084015260c081013560c0840152013560e082015290565b95949392906001600160a01b038416156111ab575f5b81811061128f5750505f80549596509394610ec8906103e3906001600160a01b031681565b6112a261129d82848b6111bd565b6111db565b6020810180519092919033906112c0906001600160a01b03166103e3565b0361135957600192816113406113326103e36112e5611353965160018060a01b031690565b8551909490611325906001600160a01b031660408301968751608085015161131160a087015160ff1690565b9160c08701519360e08801519530916116f7565b516001600160a01b031690565b92516001600160a01b031690565b5f546001600160a01b0316915192611386565b0161126a565b6040516282b42960e81b8152600490fd5b638b78c6d81954330361137957565b6382b429005f526004601cfd5b6040516323b872dd60e01b602082019081526001600160a01b0393841660248301529383166044820152606480820195909552938452611404925f9283926113cd8761053b565b1694519082865af13d1561145f573d906113e68261059b565b916113f46040519384610556565b82523d5f602084013e5b8361184d565b805190811515918261143d575b505061141a5750565b604051635274afe760e01b81526001600160a01b03919091166004820152602490fd5b611458925090602080611454938301019101611838565b1590565b5f80611411565b6060906113fe565b9061147182610584565b61147e6040519182610556565b828152809261148f601f1991610584565b0190602036910137565b9190811015610c3b5760051b81013590607e198136030182121561013f570190565b3561060781610c4a565b903590601e198136030182121561013f57018035906001600160401b03821161013f5760200191813603831361013f57565b8051821015610c3b5760209160051b010190565b80516020809201915f5b828110611523575050505090565b835185529381019392810192600101611515565b9061154182610584565b6040906115516040519182610556565b8381528093611562601f1991610584565b01915f5b8381106115735750505050565b6020908251611581816104f1565b5f8152825f81830152828601015201611566565b9081518082526020808093019301915f5b8281106115b4575050505090565b90919293826040826115db60019489516020809160018060a01b0381511684520151910152565b019501939291016115a6565b9491969593909660c086526101208601978051606060c08901528051809a526101408801996020809201915f5b8281106116855750505050611653610607989961167796959493604084602061166596015160e08d015201516101008b015289820360208b0152611595565b6001600160a01b039094166040880152565b6060860152848203608086015261028b565b9160a081840391015261028b565b835180516001600160a01b03168e52602090810151908e01526040909c019b92810192600101611614565b60018060a01b0316638b78c6d8198181547f8be0079c531659141344cd1fd0a4f28419497f9722a3daafe3b4186f6b6457e05f80a355565b9081602091031261013f575190565b92966001600160a01b03909316959094919390929190863b1561013f5760405163d505accf60e01b81526001600160a01b0387811660048301528616602482015260448101899052606481019190915260ff91909116608482015260a481019290925260c48201525f8160e48183885af19081611825575b5061181f57604051636eb1769f60e11b81526001600160a01b0392831660048201529116602482015290602090829060449082905afa908115610455575f916117f0575b5010156101505760405162461bcd60e51b815260206004820152600e60248201526d5065726d6974206661696c75726560901b6044820152606490fd5b611812915060203d602011611818575b61180a8183610556565b8101906116e8565b5f6117b3565b503d611800565b50505050565b806110b961183292610528565b5f61176f565b9081602091031261013f575161060781610c4a565b90611874575080511561186257805190602001fd5b604051630a12f52160e11b8152600490fd5b815115806118a7575b611885575090565b604051639996b31560e01b81526001600160a01b039091166004820152602490fd5b50803b1561187d56fea2646970667358221220dc0c25cf2ac70df9739b264285850d42b4a1607569b1c742abea8d3b1a00a70264736f6c63430008190033","linkReferences":{}},"methodIdentifiers":{"_CALL3VALUE_TYPEHASH()":"cf641c61","_EIP_712_RELAYER_WITNESS_TYPE_HASH()":"c99a0d65","_RELAYER_WITNESS_TYPE_STRING()":"3806a3cf","cancelOwnershipHandover()":"54d1f13d","completeOwnershipHandover(address)":"f04e283e","owner()":"8da5cb5b","ownershipHandoverExpiresAt(address)":"fee81cf4","permit2TransferAndMulticall(address,((address,uint256)[],uint256,uint256),(address,bool,uint256,bytes)[],address,address,bytes)":"33739082","permitTransferAndMulticall((address,address,uint256,uint256,uint256,uint8,bytes32,bytes32)[],(address,bool,uint256,bytes)[],address,address)":"a0a6ce7f","renounceOwnership()":"715018a6","requestOwnershipHandover()":"25692962","router()":"f887ea40","setPermit2(address)":"101ec30a","setRouter(address)":"c0d78655","transferAndMulticall(address[],uint256[],(address,bool,uint256,bytes)[],address,address)":"30875056","transferOwnership(address)":"f2fde38b","withdraw()":"3ccfd60b"},"id":88}