{"abi":[{"type":"constructor","inputs":[],"stateMutability":"nonpayable"},{"type":"function","name":"__activateTstore","inputs":[],"outputs":[],"stateMutability":"nonpayable"},{"type":"function","name":"cleanupErc20s","inputs":[{"name":"tokens","type":"address[]","internalType":"address[]"},{"name":"recipients","type":"address[]","internalType":"address[]"},{"name":"amounts","type":"uint256[]","internalType":"uint256[]"}],"outputs":[],"stateMutability":"nonpayable"},{"type":"function","name":"cleanupNative","inputs":[{"name":"amount","type":"uint256","internalType":"uint256"},{"name":"recipient","type":"address","internalType":"address"}],"outputs":[],"stateMutability":"nonpayable"},{"type":"function","name":"getBasefee","inputs":[],"outputs":[{"name":"basefee","type":"uint256","internalType":"uint256"}],"stateMutability":"view"},{"type":"function","name":"getBlockHash","inputs":[{"name":"blockNumber","type":"uint256","internalType":"uint256"}],"outputs":[{"name":"blockHash","type":"bytes32","internalType":"bytes32"}],"stateMutability":"view"},{"type":"function","name":"getBlockNumber","inputs":[],"outputs":[{"name":"blockNumber","type":"uint256","internalType":"uint256"}],"stateMutability":"view"},{"type":"function","name":"getChainId","inputs":[],"outputs":[{"name":"chainid","type":"uint256","internalType":"uint256"}],"stateMutability":"view"},{"type":"function","name":"getCurrentBlockCoinbase","inputs":[],"outputs":[{"name":"coinbase","type":"address","internalType":"address"}],"stateMutability":"view"},{"type":"function","name":"getCurrentBlockDifficulty","inputs":[],"outputs":[{"name":"difficulty","type":"uint256","internalType":"uint256"}],"stateMutability":"view"},{"type":"function","name":"getCurrentBlockGasLimit","inputs":[],"outputs":[{"name":"gaslimit","type":"uint256","internalType":"uint256"}],"stateMutability":"view"},{"type":"function","name":"getCurrentBlockTimestamp","inputs":[],"outputs":[{"name":"timestamp","type":"uint256","internalType":"uint256"}],"stateMutability":"view"},{"type":"function","name":"getEthBalance","inputs":[{"name":"addr","type":"address","internalType":"address"}],"outputs":[{"name":"balance","type":"uint256","internalType":"uint256"}],"stateMutability":"view"},{"type":"function","name":"getLastBlockHash","inputs":[],"outputs":[{"name":"blockHash","type":"bytes32","internalType":"bytes32"}],"stateMutability":"view"},{"type":"function","name":"multicall","inputs":[{"name":"calls","type":"tuple[]","internalType":"struct Call3Value[]","components":[{"name":"target","type":"address","internalType":"address"},{"name":"allowFailure","type":"bool","internalType":"bool"},{"name":"value","type":"uint256","internalType":"uint256"},{"name":"callData","type":"bytes","internalType":"bytes"}]},{"name":"refundTo","type":"address","internalType":"address"},{"name":"nftRecipient","type":"address","internalType":"address"}],"outputs":[{"name":"returnData","type":"tuple[]","internalType":"struct Result[]","components":[{"name":"success","type":"bool","internalType":"bool"},{"name":"returnData","type":"bytes","internalType":"bytes"}]}],"stateMutability":"payable"},{"type":"function","name":"onERC1155BatchReceived","inputs":[{"name":"","type":"address","internalType":"address"},{"name":"","type":"address","internalType":"address"},{"name":"_ids","type":"uint256[]","internalType":"uint256[]"},{"name":"_values","type":"uint256[]","internalType":"uint256[]"},{"name":"_data","type":"bytes","internalType":"bytes"}],"outputs":[{"name":"","type":"bytes4","internalType":"bytes4"}],"stateMutability":"nonpayable"},{"type":"function","name":"onERC1155Received","inputs":[{"name":"","type":"address","internalType":"address"},{"name":"","type":"address","internalType":"address"},{"name":"_id","type":"uint256","internalType":"uint256"},{"name":"_value","type":"uint256","internalType":"uint256"},{"name":"_data","type":"bytes","internalType":"bytes"}],"outputs":[{"name":"","type":"bytes4","internalType":"bytes4"}],"stateMutability":"nonpayable"},{"type":"function","name":"onERC721Received","inputs":[{"name":"","type":"address","internalType":"address"},{"name":"","type":"address","internalType":"address"},{"name":"_tokenId","type":"uint256","internalType":"uint256"},{"name":"_data","type":"bytes","internalType":"bytes"}],"outputs":[{"name":"","type":"bytes4","internalType":"bytes4"}],"stateMutability":"nonpayable"},{"type":"error","name":"ArrayLengthsMismatch","inputs":[]},{"type":"error","name":"InvalidMsgSender","inputs":[{"name":"storedSender","type":"address","internalType":"address"},{"name":"actualSender","type":"address","internalType":"address"}]},{"type":"error","name":"InvalidRecipient","inputs":[{"name":"recipient","type":"address","internalType":"address"}]},{"type":"error","name":"InvalidTarget","inputs":[{"name":"target","type":"address","internalType":"address"}]},{"type":"error","name":"NativeTransferFailed","inputs":[]},{"type":"error","name":"NoRecipientSet","inputs":[]},{"type":"error","name":"OnlyDirectCalls","inputs":[]},{"type":"error","name":"TStoreAlreadyActivated","inputs":[]},{"type":"error","name":"TStoreNotSupported","inputs":[]},{"type":"error","name":"TloadTestContractDeploymentFailed","inputs":[]}],"bytecode":{"object":"0x610120604052346100f7577f9b779b17422d0df92223018b32b4d1fa46e071723d6817e2486d003becc55f005f556100356100fb565b6001600160a01b038116156100e55761004d81610125565b80156100d057600160c052600360e0526005610100525b60a0526080526100937f72dc4effd7d159affb1f4d451190a65a842cb9499f45eb1ae60b404ca68ad9d8600255565b604051610f7a908161017c8239608051816106a0015260a0518161066e015260c051816109e4015260e05181610ba001526101005181610e780152f35b600260c052600460e052600661010052610064565b604051632aea588760e01b8152600490fd5b5f80fd5b696002601e613d5c3d52f35f52600a60165ff090565b634e487b7160e01b5f52604160045260245ffd5b5f80808093600a5a04fa3d15610178576001600160401b033d8181116101735760405191601f8201601f19908116603f01168301908111838210176101735760405281525f60203d92013e90565b610111565b9056fe60806040526004361015610011575f80fd5b5f3560e01c80630f28c97d14610124578063150b7a021461011f57806327e86d6e1461011a57806330be5567146101155780633408e470146101105780633b2253c81461010b5780633e64a6961461010657806342cbb15c146101015780634d2301cc146100fc5780635de81e3f146100f757806372425d9d146100f25780637423eb3c146100ed57806386d516e8146100e8578063a8b0574e146100e3578063bc197c81146100de578063ee82ac5e146100d95763f23a6e61146100d4575f80fd5b610818565b6107fa565b610753565b610739565b61071f565b610655565b61063b565b6105e7565b6105bf565b6105a5565b61058b565b610425565b61040b565b61034e565b610271565b61018f565b610137565b5f91031261013357565b5f80fd5b34610133575f366003190112610133576020604051428152f35b6001600160a01b0381160361013357565b9181601f84011215610133578235916001600160401b038311610133576020838186019501011161013357565b34610133576080366003190112610133576101ab600435610151565b6101b6602435610151565b6064356001600160401b038111610133576101d5903690600401610162565b906101de610b9b565b906001600160a01b0382161561025f57333b15610133575f9161021a6040519485938493635c46a7ef60e11b855260443590306004870161094a565b038183335af1801561025a57610241575b604051630a85bd0160e11b8152602090f35b0390f35b8061024e610254926108f1565b80610129565b5f61022b565b61097e565b60405163f36675c360e01b8152600490fd5b34610133575f3660031901126101335760206040515f194301408152f35b9181601f84011215610133578235916001600160401b038311610133576020808501948460051b01011161013357565b6020808201908083528351809252604092604081018260408560051b8401019601945f925b8584106102f5575050505050505090565b909192939495968580600192603f19858203018752818b518051151583520151908683820152815180888301528084606094018484015e5f828201840152601f01601f19160101990197969591909101930191906102e4565b6060366003190112610133576004356001600160401b0381116101335761037990369060040161028f565b6024359061038682610151565b6044359261039384610151565b5f54805c6001600160a01b031680151580610401575b806103f7575b6103d95761023d6103c58787878733885d610989565b6103cd610bf4565b604051918291826102bf565b6044906040519063200991eb60e21b82526004820152336024820152fd5b50303314156103af565b50338114156103a9565b34610133575f366003190112610133576020604051468152f35b346101335760603660031901126101335760046001600160401b03813581811161013357610456903690840161028f565b91906024358281116101335761046f903690860161028f565b909260443590811161013357610488903690870161028f565b919092828614801590610581575b610570575f5b8681106104a557005b6104b86104b3828985610a65565b610a7a565b906104c76104b382868a610a65565b916104d3828789610a65565b35610557576040516370a0823160e01b8152308b8201908152909360209291839086908190830103816001600160a01b0386165afa801561025a57600195610524945f9261052a575b505091610edc565b0161049c565b6105499250803d10610550575b6105418183610909565b810190610a84565b5f8061051c565b503d610537565b6105249060019361056984898b610a65565b3591610edc565b604051631dc0052360e11b81528790fd5b5081831415610496565b34610133575f366003190112610133576020604051488152f35b34610133575f366003190112610133576020604051438152f35b346101335760203660031901126101335760206004356105de81610151565b31604051908152f35b346101335760403660031901126101335760043560243561060781610151565b6001600160a01b038116610635575033905b8061062c575061062a904790610ec0565b005b61062a91610ec0565b90610619565b34610133575f366003190112610133576020604051448152f35b34610133575f3660031901126101335732330361070d577f00000000000000000000000000000000000000000000000000000000000000008015610701575b6106ef576106c86106c47f0000000000000000000000000000000000000000000000000000000000000000610f1a565b1590565b6106dd5761062a600160ff1981541617600155565b6040516370a4078f60e01b8152600490fd5b604051630f45b98b60e41b8152600490fd5b5060015460ff16610694565b60405163096650c560e21b8152600490fd5b34610133575f366003190112610133576020604051458152f35b34610133575f366003190112610133576020604051418152f35b346101335760a03660031901126101335761076f600435610151565b61077a602435610151565b6001600160401b036044358181116101335761079a90369060040161028f565b606492919235828111610133576107b590369060040161028f565b6084949194359384116101335761023d946107d76107df953690600401610162565b949093610ab7565b6040516001600160e01b031990911681529081906020820190565b34610133576020366003190112610133576020604051600435408152f35b346101335760a036600319011261013357610834600435610151565b61083f602435610151565b6084356001600160401b0381116101335761085e903690600401610162565b90610867610b9b565b906001600160a01b0382161561025f57333b15610133575f916108a76040519485938493637921219560e11b855260643590604435903060048801610b68565b038183335af1801561025a576108ca575b60405163f23a6e6160e01b8152602090f35b8061024e6108d7926108f1565b5f6108b8565b634e487b7160e01b5f52604160045260245ffd5b6001600160401b03811161090457604052565b6108dd565b90601f801991011681019081106001600160401b0382111761090457604052565b908060209392818452848401375f828201840152601f01601f1916010190565b6001600160a01b03918216815291166020820152604081019190915260806060820181905261097b9391019161092a565b90565b6040513d5f823e3d90fd5b6001600160a01b03949385169190826109d7575b6109a79250610d7f565b926109b0610e5d565b476109b9575050565b81166109ce57506109cc335b4790610ec0565b565b6109cc906109c5565b308314610a3957600254927f000000000000000000000000000000000000000000000000000000000000000080600214610a1c57600103610f30576109a7935d61099d565b506109a79360ff600154165f14610a33575d61099d565b5561099d565b604051630bc2c5df60e11b8152306004820152602490fd5b634e487b7160e01b5f52603260045260245ffd5b9190811015610a755760051b0190565b610a51565b3561097b81610151565b90816020910312610133575190565b81835290916001600160fb1b0383116101335760209260051b809284830137010190565b94909290916001600160a01b03610acc610b9b565b1692831561025f57333b15610133575f95610b29610b3894610b156040519a8b998a99631759616b60e11b8b523060048c015260248b015260a060448b015260a48a0191610a93565b9060031995868984030160648a0152610a93565b9285840301608486015261092a565b038183335af1801561025a57610b55575b5063bc197c8160e01b90565b8061024e610b62926108f1565b5f610b49565b919261097b96949160a094600180871b03809216855216602084015260408301526060820152816080820152019161092a565b6002547f000000000000000000000000000000000000000000000000000000000000000080600414610bdc57600303610f30575c5b6001600160a01b031690565b5060015460ff1615610bee575c610bd0565b54610bd0565b5f80545d565b6001600160401b0381116109045760051b60200190565b90610c1b82610bfa565b604090610c2b6040519182610909565b8381528093610c3c601f1991610bfa565b01905f5b828110610c4d5750505050565b835190848201918083106001600160401b038411176109045760209286525f815282606081830152828501015201610c40565b8051821015610a755760209160051b010190565b9190811015610a755760051b81013590607e1981360301821215610133570190565b903590601e198136030182121561013357018035906001600160401b0382116101335760200191813603831361013357565b908092918237015f815290565b3d15610d2e573d906001600160401b0382116109045760405191610d23601f8201601f191660200184610909565b82523d5f602084013e565b606090565b15610d3a57565b60405162461bcd60e51b815260206004820152601a60248201527f4d756c746963616c6c333a2076616c7565206d69736d617463680000000000006044820152606490fd5b9190915f90610d8d84610c11565b935f5b818110610da5575050506109cc903414610d33565b610daf8187610c80565b51610dbb828486610c94565b5f806040610dee81850135809a0199610dd386610a7a565b92610de16060880188610cb6565b9390915180948193610ce8565b03925af191610dfb610cf5565b90610e10602094859384840152829015159052565b519101351715610e235750600101610d90565b62461bcd60e51b5f5260045260176024527f4d756c746963616c6c333a2063616c6c206661696c656400000000000000000060445260845ffd5b6001600160a01b03610e6d610b9b565b16156109cc576002547f000000000000000000000000000000000000000000000000000000000000000080600614610eab57600503610f30575f905d565b505f9060ff600154168214610ebd575d565b55565b5f80809338935af115610ecf57565b63b12d13eb5f526004601cfd5b60105f604492602095829560145260345263a9059cbb60601b82525af13d1560015f5114171615610f0d575f603452565b6390b8ec185f526004601cfd5b5f80808093600a5a04fa610f2c610cf5565b5090565b634e487b7160e01b5f52605160045260245ffdfea2646970667358221220045a8e7b6c16cd3441eb211ec9d083b8c16084550d40adc127691426d2713f2764736f6c63430008190033","linkReferences":{}},"methodIdentifiers":{"__activateTstore()":"7423eb3c","cleanupErc20s(address[],address[],uint256[])":"3b2253c8","cleanupNative(uint256,address)":"5de81e3f","getBasefee()":"3e64a696","getBlockHash(uint256)":"ee82ac5e","getBlockNumber()":"42cbb15c","getChainId()":"3408e470","getCurrentBlockCoinbase()":"a8b0574e","getCurrentBlockDifficulty()":"72425d9d","getCurrentBlockGasLimit()":"86d516e8","getCurrentBlockTimestamp()":"0f28c97d","getEthBalance(address)":"4d2301cc","getLastBlockHash()":"27e86d6e","multicall((address,bool,uint256,bytes)[],address,address)":"30be5567","onERC1155BatchReceived(address,address,uint256[],uint256[],bytes)":"bc197c81","onERC1155Received(address,address,uint256,uint256,bytes)":"f23a6e61","onERC721Received(address,address,uint256,bytes)":"150b7a02"},"id":68}