{"abi":[{"type":"constructor","inputs":[{"name":"owner","type":"address","internalType":"address"}],"stateMutability":"nonpayable"},{"type":"fallback","stateMutability":"payable"},{"type":"receive","stateMutability":"payable"},{"type":"function","name":"aggregate","inputs":[{"name":"targets","type":"address[]","internalType":"address[]"},{"name":"data","type":"bytes[]","internalType":"bytes[]"},{"name":"values","type":"uint256[]","internalType":"uint256[]"},{"name":"refundTo","type":"address","internalType":"address"}],"outputs":[{"name":"","type":"bytes[]","internalType":"bytes[]"}],"stateMutability":"payable"},{"type":"function","name":"cancelOwnershipHandover","inputs":[],"outputs":[],"stateMutability":"payable"},{"type":"function","name":"completeOwnershipHandover","inputs":[{"name":"pendingOwner","type":"address","internalType":"address"}],"outputs":[],"stateMutability":"payable"},{"type":"function","name":"owner","inputs":[],"outputs":[{"name":"result","type":"address","internalType":"address"}],"stateMutability":"view"},{"type":"function","name":"ownershipHandoverExpiresAt","inputs":[{"name":"pendingOwner","type":"address","internalType":"address"}],"outputs":[{"name":"result","type":"uint256","internalType":"uint256"}],"stateMutability":"view"},{"type":"function","name":"renounceOwnership","inputs":[],"outputs":[],"stateMutability":"payable"},{"type":"function","name":"requestOwnershipHandover","inputs":[],"outputs":[],"stateMutability":"payable"},{"type":"function","name":"transferOwnership","inputs":[{"name":"newOwner","type":"address","internalType":"address"}],"outputs":[],"stateMutability":"payable"},{"type":"event","name":"OwnershipHandoverCanceled","inputs":[{"name":"pendingOwner","type":"address","indexed":true,"internalType":"address"}],"anonymous":false},{"type":"event","name":"OwnershipHandoverRequested","inputs":[{"name":"pendingOwner","type":"address","indexed":true,"internalType":"address"}],"anonymous":false},{"type":"event","name":"OwnershipTransferred","inputs":[{"name":"oldOwner","type":"address","indexed":true,"internalType":"address"},{"name":"newOwner","type":"address","indexed":true,"internalType":"address"}],"anonymous":false},{"type":"error","name":"AlreadyInitialized","inputs":[]},{"type":"error","name":"ArrayLengthsMismatch","inputs":[]},{"type":"error","name":"NewOwnerIsZeroAddress","inputs":[]},{"type":"error","name":"NoHandoverRequest","inputs":[]},{"type":"error","name":"Unauthorized","inputs":[]}],"bytecode":{"object":"0x608034608957601f6105cd38819003918201601f19168301916001600160401b03831184841017608d57808492602094604052833981010312608957516001600160a01b0381169081900360895780638b78c6d819555f7f8be0079c531659141344cd1fd0a4f28419497f9722a3daafe3b4186f6b6457e08180a360405161052b90816100a28239f35b5f80fd5b634e487b7160e01b5f52604160045260245ffdfe60806040526004361015610015575b3661041a57005b5f3560e01c8063256929621461009457806354d1f13d1461008f578063715018a61461008a5780638da5cb5b14610085578063991f255f14610080578063f04e283e1461007b578063f2fde38b146100765763fee81cf40361000e576103e8565b6103ad565b61035e565b6101f2565b610169565b610125565b6100e1565b5f3660031901126100dd5763389a75e1600c52335f526202a30042016020600c2055337fdbf36a107da19e49527a7176a1babf963b4b0ff8cde35ee35d6cd8f1f9ac7e1d5f80a2005b5f80fd5b5f3660031901126100dd5763389a75e1600c52335f525f6020600c2055337ffa7b8eab7da67f412cc9575ed43464468f9bfbae89d1675917346ca6d8fe3c925f80a2005b5f3660031901126100dd576101386104a1565b5f638b78c6d8198181547f8be0079c531659141344cd1fd0a4f28419497f9722a3daafe3b4186f6b6457e08280a355005b346100dd575f3660031901126100dd57638b78c6d819546040516001600160a01b039091168152602090f35b9181601f840112156100dd5782359167ffffffffffffffff83116100dd576020808501948460051b0101116100dd57565b606435906001600160a01b03821682036100dd57565b600435906001600160a01b03821682036100dd57565b60803660031901126100dd5767ffffffffffffffff6004358181116100dd5761021f903690600401610195565b90916024358181116100dd57610239903690600401610195565b9390916044359081116100dd57610254903690600401610195565b929061025e6101c6565b936102676104a1565b861486861416156103515785926040966102d0575b5050505080610291575b5060205f526020525ff35b4715610286573381186001821402185f3881804785620186a0f1610286575f526073600b5360ff6020536016600b47f0156102cc575f610286565b3838fd5b91939592839060051b9283868637838501935b82518701908681015f808435806020809701853783603f19808a8c010135908a8a0101355af115610349578185523d90523d5f606083013e603f601f19913d01011692019588858814610338575095916102e3565b9650505091505001925f808061027c565b3d5f803e3d5ffd5b633b800a463d526004601cfd5b60203660031901126100dd576103726101dc565b61037a6104a1565b63389a75e1600c52805f526020600c2090815442116103a0575f61039e92556104bd565b005b636f5e88185f526004601cfd5b60203660031901126100dd576103c16101dc565b6103c96104a1565b8060601b156103db5761039e906104bd565b637448fbae5f526004601cfd5b346100dd5760203660031901126100dd576104016101dc565b63389a75e1600c525f52602080600c2054604051908152f35b3d356366e0daa08160e01c1461042e573d3dfd5b193d5260043d815b809236821015610489578135831a600180930194811561045d5750815301905b9091610436565b3d19835260020194607f9150353d1a8181111561047e575b16010190610456565b838101388439610475565b5f809181305af43d5f803e1561049d573d5ff35b3d5ffd5b638b78c6d8195433036104b057565b6382b429005f526004601cfd5b60018060a01b0316638b78c6d8198181547f8be0079c531659141344cd1fd0a4f28419497f9722a3daafe3b4186f6b6457e05f80a35556fea26469706673582212205688b4436d56091393e4b65250fbf30f1e4de62d9462c90af9ebe3fcb7a3d94864736f6c63430008190033","linkReferences":{}},"methodIdentifiers":{"aggregate(address[],bytes[],uint256[],address)":"991f255f","cancelOwnershipHandover()":"54d1f13d","completeOwnershipHandover(address)":"f04e283e","owner()":"8da5cb5b","ownershipHandoverExpiresAt(address)":"fee81cf4","renounceOwnership()":"715018a6","requestOwnershipHandover()":"25692962","transferOwnership(address)":"f2fde38b"},"id":59}