{"abi":[{"type":"function","name":"_PERMIT_BATCH_TRANSFER_FROM_TYPEHASH","inputs":[],"outputs":[{"name":"","type":"bytes32","internalType":"bytes32"}],"stateMutability":"view"},{"type":"function","name":"_PERMIT_BATCH_TYPEHASH","inputs":[],"outputs":[{"name":"","type":"bytes32","internalType":"bytes32"}],"stateMutability":"view"},{"type":"function","name":"_PERMIT_BATCH_WITNESS_TRANSFER_FROM_TYPEHASH_STUB","inputs":[],"outputs":[{"name":"","type":"string","internalType":"string"}],"stateMutability":"view"},{"type":"function","name":"_PERMIT_DETAILS_TYPEHASH","inputs":[],"outputs":[{"name":"","type":"bytes32","internalType":"bytes32"}],"stateMutability":"view"},{"type":"function","name":"_PERMIT_SINGLE_TYPEHASH","inputs":[],"outputs":[{"name":"","type":"bytes32","internalType":"bytes32"}],"stateMutability":"view"},{"type":"function","name":"_PERMIT_TRANSFER_FROM_TYPEHASH","inputs":[],"outputs":[{"name":"","type":"bytes32","internalType":"bytes32"}],"stateMutability":"view"},{"type":"function","name":"_PERMIT_TRANSFER_FROM_WITNESS_TYPEHASH_STUB","inputs":[],"outputs":[{"name":"","type":"string","internalType":"string"}],"stateMutability":"view"},{"type":"function","name":"_TOKEN_PERMISSIONS_TYPEHASH","inputs":[],"outputs":[{"name":"","type":"bytes32","internalType":"bytes32"}],"stateMutability":"view"},{"type":"function","name":"_TOKEN_PERMISSIONS_TYPESTRING","inputs":[],"outputs":[{"name":"","type":"string","internalType":"string"}],"stateMutability":"view"}],"bytecode":{"object":"0x60808060405234601957610425908161001e823930815050f35b5f80fdfe60806040908082526004361015610014575f80fd5b5f3560e01c9081633eb8b8fd1461039257508063415e982d1461035d5780636302c3cf146103285780636e4f2775146102f357806378f16830146102be57806384b8efbb1461020657806390bbf2f314610147578063c0c7fa7e146100b95763c5df4f0314610081575f80fd5b5f3660031901126100b557602090517ff3841cd1ff0085026a6327b620b67997ce40f282c88a8e905a7a5626e310f3d08152f35b5f80fd5b505f3660031901126100b5578051606081019181831067ffffffffffffffff8411176101335761012f928152602e82527f546f6b656e5065726d697373696f6e73286164647265737320746f6b656e2c7560208301526d696e7432353620616d6f756e742960901b8183015251918291826103c5565b0390f35b634e487b7160e01b5f52604160045260245ffd5b505f3660031901126100b557805160a081019181831067ffffffffffffffff8411176101335761012f928152606b82527f5065726d697442617463685769746e6573735472616e7366657246726f6d285460208301527f6f6b656e5065726d697373696f6e735b5d207065726d69747465642c61646472818301527f657373207370656e6465722c75696e74323536206e6f6e63652c75696e74323560608301526a0d88191958591b1a5b994b60aa1b608083015251918291826103c5565b505f3660031901126100b557805160a081019181831067ffffffffffffffff8411176101335761012f928152606482527f5065726d69745769746e6573735472616e7366657246726f6d28546f6b656e5060208301527f65726d697373696f6e73207065726d69747465642c6164647265737320737065818301527f6e6465722c75696e74323536206e6f6e63652c75696e7432353620646561646c6060830152631a5b994b60e21b608083015251918291826103c5565b505f3660031901126100b557602090517f939c21a48a8dbe3a9a2404a1d46691e4d39f6583d6ec6b35714604c986d801068152f35b505f3660031901126100b557602090517f65626cad6cb96493bf6f5ebea28756c966f023ab9e8a83a7101849d5573b36788152f35b505f3660031901126100b557602090517faf1b0d30d2cab0380e68f0689007e3254993c596f2fdd0aaa7f4d04f794408638152f35b505f3660031901126100b557602090517f618358ac3db8dc274f0cd8829da7e234bd48cd73c4a740aede1adec9846d06a18152f35b5f3660031901126100b557807ffcf35f5ac6a2c28868dc44c302166470266239195f02b0ee408334829333b76660209252f35b602060409281835280519182918282860152018484015e5f828201840152601f01601f191601019056fea26469706673582212205a7bdadd03f95a1f1c5989c025432c47117060af1976fb30897eaa920783de4b64736f6c63430008190033","linkReferences":{}},"methodIdentifiers":{"_PERMIT_BATCH_TRANSFER_FROM_TYPEHASH()":"3eb8b8fd","_PERMIT_BATCH_TYPEHASH()":"6302c3cf","_PERMIT_BATCH_WITNESS_TRANSFER_FROM_TYPEHASH_STUB()":"90bbf2f3","_PERMIT_DETAILS_TYPEHASH()":"6e4f2775","_PERMIT_SINGLE_TYPEHASH()":"c5df4f03","_PERMIT_TRANSFER_FROM_TYPEHASH()":"78f16830","_PERMIT_TRANSFER_FROM_WITNESS_TYPEHASH_STUB()":"84b8efbb","_TOKEN_PERMISSIONS_TYPEHASH()":"415e982d","_TOKEN_PERMISSIONS_TYPESTRING()":"c0c7fa7e"},"id":44}