{"abi":[{"type":"constructor","inputs":[{"name":"_target","type":"address","internalType":"address"},{"name":"_token","type":"address","internalType":"address"},{"name":"_recipient","type":"address","internalType":"address"}],"stateMutability":"nonpayable"},{"type":"receive","stateMutability":"payable"},{"type":"function","name":"recipient","inputs":[],"outputs":[{"name":"","type":"address","internalType":"address"}],"stateMutability":"view"},{"type":"function","name":"stealthemoney","inputs":[],"outputs":[],"stateMutability":"payable"},{"type":"function","name":"target","inputs":[],"outputs":[{"name":"","type":"address","internalType":"address"}],"stateMutability":"view"},{"type":"function","name":"token","inputs":[],"outputs":[{"name":"","type":"address","internalType":"address"}],"stateMutability":"view"},{"type":"event","name":"MsgSender","inputs":[{"name":"sender","type":"address","indexed":false,"internalType":"address"}],"anonymous":false}],"bytecode":{"object":"0x608034609557601f61027438819003918201601f19168301916001600160401b0383118484101760995780849260609460405283398101031260955760428160ad565b906057604060516020840160ad565b920160ad565b60018060a01b0380928160018060a01b03199516855f5416175f5516836001541617600155169060025416176002556040516101b390816100c18239f35b5f80fd5b634e487b7160e01b5f52604160045260245ffd5b51906001600160a01b038216820360955756fe608060409080825260043610156100c7575b50361561001c575f80fd5b7f7bf2655c5b27bca5462f1f973c316c9537b2da6083e494b623f3313ad847ec0860208251338152a15f546001546002546001600160a01b0392831693929182169116833b156100c35760445f928385519687948593630f6b432760e21b8552600485015260248401525af19081156100ba575061009657005b67ffffffffffffffff106100a657005b634e487b7160e01b5f52604160045260245ffd5b513d5f823e3d90fd5b5f80fd5b5f3560e01c90816366d003ac1461015a57508063711010f61461014d578063d4b83992146101265763fc0c546a146100ff575f610011565b346100c3575f3660031901126100c35760015490516001600160a01b039091168152602090f35b50346100c3575f3660031901126100c3575f5490516001600160a01b039091168152602090f35b5f3660031901126100c357005b346100c3575f3660031901126100c3576002546001600160a01b03168152602090f3fea2646970667358221220621fb890dd16e88b85e74b3ce41323e175ccc2f39232993f8dc36885e35d82bc64736f6c63430008190033","linkReferences":{}},"methodIdentifiers":{"recipient()":"66d003ac","stealthemoney()":"711010f6","target()":"d4b83992","token()":"fc0c546a"},"id":106}