{"abi":[{"type":"constructor","inputs":[{"name":"owner","type":"address","internalType":"address"}],"stateMutability":"nonpayable"},{"type":"function","name":"__activateTstore","inputs":[],"outputs":[],"stateMutability":"nonpayable"},{"type":"function","name":"cancelOwnershipHandover","inputs":[],"outputs":[],"stateMutability":"payable"},{"type":"function","name":"cleanupErc20s","inputs":[{"name":"tokens","type":"address[]","internalType":"address[]"},{"name":"recipients","type":"address[]","internalType":"address[]"},{"name":"amounts","type":"uint256[]","internalType":"uint256[]"}],"outputs":[],"stateMutability":"nonpayable"},{"type":"function","name":"cleanupNative","inputs":[{"name":"amount","type":"uint256","internalType":"uint256"},{"name":"recipient","type":"address","internalType":"address"}],"outputs":[],"stateMutability":"nonpayable"},{"type":"function","name":"completeOwnershipHandover","inputs":[{"name":"pendingOwner","type":"address","internalType":"address"}],"outputs":[],"stateMutability":"payable"},{"type":"function","name":"getBasefee","inputs":[],"outputs":[{"name":"basefee","type":"uint256","internalType":"uint256"}],"stateMutability":"view"},{"type":"function","name":"getBlockHash","inputs":[{"name":"blockNumber","type":"uint256","internalType":"uint256"}],"outputs":[{"name":"blockHash","type":"bytes32","internalType":"bytes32"}],"stateMutability":"view"},{"type":"function","name":"getBlockNumber","inputs":[],"outputs":[{"name":"blockNumber","type":"uint256","internalType":"uint256"}],"stateMutability":"view"},{"type":"function","name":"getChainId","inputs":[],"outputs":[{"name":"chainid","type":"uint256","internalType":"uint256"}],"stateMutability":"view"},{"type":"function","name":"getCurrentBlockCoinbase","inputs":[],"outputs":[{"name":"coinbase","type":"address","internalType":"address"}],"stateMutability":"view"},{"type":"function","name":"getCurrentBlockDifficulty","inputs":[],"outputs":[{"name":"difficulty","type":"uint256","internalType":"uint256"}],"stateMutability":"view"},{"type":"function","name":"getCurrentBlockGasLimit","inputs":[],"outputs":[{"name":"gaslimit","type":"uint256","internalType":"uint256"}],"stateMutability":"view"},{"type":"function","name":"getCurrentBlockTimestamp","inputs":[],"outputs":[{"name":"timestamp","type":"uint256","internalType":"uint256"}],"stateMutability":"view"},{"type":"function","name":"getEthBalance","inputs":[{"name":"addr","type":"address","internalType":"address"}],"outputs":[{"name":"balance","type":"uint256","internalType":"uint256"}],"stateMutability":"view"},{"type":"function","name":"getLastBlockHash","inputs":[],"outputs":[{"name":"blockHash","type":"bytes32","internalType":"bytes32"}],"stateMutability":"view"},{"type":"function","name":"multicall","inputs":[{"name":"calls","type":"tuple[]","internalType":"struct Call3Value[]","components":[{"name":"target","type":"address","internalType":"address"},{"name":"allowFailure","type":"bool","internalType":"bool"},{"name":"value","type":"uint256","internalType":"uint256"},{"name":"callData","type":"bytes","internalType":"bytes"}]},{"name":"refundTo","type":"address","internalType":"address"},{"name":"nftRecipient","type":"address","internalType":"address"}],"outputs":[{"name":"returnData","type":"tuple[]","internalType":"struct Result[]","components":[{"name":"success","type":"bool","internalType":"bool"},{"name":"returnData","type":"bytes","internalType":"bytes"}]}],"stateMutability":"payable"},{"type":"function","name":"onERC1155BatchReceived","inputs":[{"name":"","type":"address","internalType":"address"},{"name":"","type":"address","internalType":"address"},{"name":"_ids","type":"uint256[]","internalType":"uint256[]"},{"name":"_values","type":"uint256[]","internalType":"uint256[]"},{"name":"_data","type":"bytes","internalType":"bytes"}],"outputs":[{"name":"","type":"bytes4","internalType":"bytes4"}],"stateMutability":"nonpayable"},{"type":"function","name":"onERC1155Received","inputs":[{"name":"","type":"address","internalType":"address"},{"name":"","type":"address","internalType":"address"},{"name":"_id","type":"uint256","internalType":"uint256"},{"name":"_value","type":"uint256","internalType":"uint256"},{"name":"_data","type":"bytes","internalType":"bytes"}],"outputs":[{"name":"","type":"bytes4","internalType":"bytes4"}],"stateMutability":"nonpayable"},{"type":"function","name":"onERC721Received","inputs":[{"name":"","type":"address","internalType":"address"},{"name":"","type":"address","internalType":"address"},{"name":"_tokenId","type":"uint256","internalType":"uint256"},{"name":"_data","type":"bytes","internalType":"bytes"}],"outputs":[{"name":"","type":"bytes4","internalType":"bytes4"}],"stateMutability":"nonpayable"},{"type":"function","name":"owner","inputs":[],"outputs":[{"name":"result","type":"address","internalType":"address"}],"stateMutability":"view"},{"type":"function","name":"ownershipHandoverExpiresAt","inputs":[{"name":"pendingOwner","type":"address","internalType":"address"}],"outputs":[{"name":"result","type":"uint256","internalType":"uint256"}],"stateMutability":"view"},{"type":"function","name":"renounceOwnership","inputs":[],"outputs":[],"stateMutability":"payable"},{"type":"function","name":"requestOwnershipHandover","inputs":[],"outputs":[],"stateMutability":"payable"},{"type":"function","name":"transferOwnership","inputs":[{"name":"newOwner","type":"address","internalType":"address"}],"outputs":[],"stateMutability":"payable"},{"type":"event","name":"OwnershipHandoverCanceled","inputs":[{"name":"pendingOwner","type":"address","indexed":true,"internalType":"address"}],"anonymous":false},{"type":"event","name":"OwnershipHandoverRequested","inputs":[{"name":"pendingOwner","type":"address","indexed":true,"internalType":"address"}],"anonymous":false},{"type":"event","name":"OwnershipTransferred","inputs":[{"name":"oldOwner","type":"address","indexed":true,"internalType":"address"},{"name":"newOwner","type":"address","indexed":true,"internalType":"address"}],"anonymous":false},{"type":"error","name":"AlreadyInitialized","inputs":[]},{"type":"error","name":"ArrayLengthsMismatch","inputs":[]},{"type":"error","name":"InvalidMsgSender","inputs":[{"name":"storedSender","type":"address","internalType":"address"},{"name":"actualSender","type":"address","internalType":"address"}]},{"type":"error","name":"InvalidRecipient","inputs":[{"name":"recipient","type":"address","internalType":"address"}]},{"type":"error","name":"InvalidTarget","inputs":[{"name":"target","type":"address","internalType":"address"}]},{"type":"error","name":"NativeTransferFailed","inputs":[]},{"type":"error","name":"NewOwnerIsZeroAddress","inputs":[]},{"type":"error","name":"NoHandoverRequest","inputs":[]},{"type":"error","name":"NoRecipientSet","inputs":[]},{"type":"error","name":"OnlyDirectCalls","inputs":[]},{"type":"error","name":"TStoreAlreadyActivated","inputs":[]},{"type":"error","name":"TStoreNotSupported","inputs":[]},{"type":"error","name":"TloadTestContractDeploymentFailed","inputs":[]},{"type":"error","name":"Unauthorized","inputs":[]}],"bytecode":{"object":"0x610120604052346100815761141f6020813803918261001d81610099565b93849283398101031261008157516001600160a01b038116810361008157610044906100c3565b60405161121990816102068239608051816107f9015260a051816107c7015260c05181610dac015260e05181610ce10152610100518161112d0152f35b5f80fd5b634e487b7160e01b5f52604160045260245ffd5b6040519190601f01601f191682016001600160401b038111838210176100be57604052565b610085565b7f9b779b17422d0df92223018b32b4d1fa46e071723d6817e2486d003becc55f005f55696002601e613d5c3d52f35f52600a60165ff0906001600160a01b038216156101785781610116610161936101c3565b801561016357600160c052600360e0526005610100525b60a05260805261015c7f72dc4effd7d159affb1f4d451190a65a842cb9499f45eb1ae60b404ca68ad9d8600255565b61018a565b565b600260c052600460e05260066101005261012d565b604051632aea588760e01b8152600490fd5b6001600160a01b0316638b78c6d8198190555f7f8be0079c531659141344cd1fd0a4f28419497f9722a3daafe3b4186f6b6457e08180a3565b5f80808093600a5a04fa3d15610202573d6001600160401b0381116100be576101f5601f8201601f1916602001610099565b9081525f60203d92013e90565b9056fe60806040526004361015610011575f80fd5b5f3560e01c80630f28c97d14610194578063150b7a021461018f578063256929621461018a57806327e86d6e1461018557806330be5567146101805780633408e4701461017b5780633b2253c8146101765780633e64a6961461017157806342cbb15c1461016c5780634d2301cc1461016757806354d1f13d146101625780635de81e3f1461015d578063715018a61461015857806372425d9d146101535780637423eb3c1461014e57806386d516e8146101495780638da5cb5b14610144578063a8b0574e1461013f578063bc197c811461013a578063ee82ac5e14610135578063f04e283e14610130578063f23a6e611461012b578063f2fde38b146101265763fee81cf414610121575f80fd5b610af2565b610ab3565b6109ee565b61099d565b61097f565b6108d8565b6108be565b610892565b610878565b6107ae565b610794565b610750565b6106f4565b6106b0565b610688565b61066e565b610654565b6104e6565b6104cc565b610407565b61032a565b6102e1565b6101ff565b6101a7565b5f9103126101a357565b5f80fd5b346101a3575f3660031901126101a3576020604051428152f35b6001600160a01b038116036101a357565b9181601f840112156101a3578235916001600160401b0383116101a357602083818601950101116101a357565b346101a35760803660031901126101a35761021b6004356101c1565b6102266024356101c1565b6064356001600160401b0381116101a3576102459036906004016101d2565b9061024e610cdc565b906001600160a01b038216156102cf57333b156101a3575f9161028a6040519485938493635c46a7ef60e11b8552604435903060048701610b95565b038183335af180156102ca576102b1575b604051630a85bd0160e11b8152602090f35b0390f35b806102be6102c492610b3c565b80610199565b5f61029b565b610bc9565b60405163f36675c360e01b8152600490fd5b5f3660031901126101a35763389a75e1600c52335f526202a30042016020600c2055337fdbf36a107da19e49527a7176a1babf963b4b0ff8cde35ee35d6cd8f1f9ac7e1d5f80a2005b346101a3575f3660031901126101a35760206040515f194301408152f35b9181601f840112156101a3578235916001600160401b0383116101a3576020808501948460051b0101116101a357565b6020808201908083528351809252604092604081018260408560051b8401019601945f925b8584106103ae575050505050505090565b909192939495968580600192603f19858203018752818b518051151583520151908683820152815180888301528084606094018484015e5f828201840152601f01601f191601019901979695919091019301919061039d565b60603660031901126101a3576004356001600160401b0381116101a357610432903690600401610348565b6024359061043f826101c1565b6044359261044c846101c1565b610454610d35565b5f54805c6001600160a01b0316801515806104c2575b806104b8575b61049a576102ad6104868787878733885d610d51565b61048e610ee7565b60405191829182610378565b6044906040519063200991eb60e21b82526004820152336024820152fd5b5030331415610470565b503381141561046a565b346101a3575f3660031901126101a3576020604051468152f35b346101a35760603660031901126101a35760046001600160401b0381358181116101a3576105179036908401610348565b91906024358281116101a3576105309036908601610348565b90926044359081116101a3576105499036908701610348565b919092610554610d35565b82861480159061064a575b610639575f5b86811061056e57005b61058161057c828985610e2d565b610e42565b9061059061057c82868a610e2d565b9161059c828789610e2d565b35610620576040516370a0823160e01b8152308b8201908152909360209291839086908190830103816001600160a01b0386165afa80156102ca576001956105ed945f926105f3575b505091611191565b01610565565b6106129250803d10610619575b61060a8183610b54565b810190610e4c565b5f806105e5565b503d610600565b6105ed9060019361063284898b610e2d565b3591611191565b604051631dc0052360e11b81528790fd5b508183141561055f565b346101a3575f3660031901126101a3576020604051488152f35b346101a3575f3660031901126101a3576020604051438152f35b346101a35760203660031901126101a35760206004356106a7816101c1565b31604051908152f35b5f3660031901126101a35763389a75e1600c52335f525f6020600c2055337ffa7b8eab7da67f412cc9575ed43464468f9bfbae89d1675917346ca6d8fe3c925f80a2005b346101a35760403660031901126101a357600435602435610714816101c1565b61071c610d35565b6001600160a01b03811661074a575033905b80610741575061073f904790611175565b005b61073f91611175565b9061072e565b5f3660031901126101a357610763610d35565b5f638b78c6d8198181547f8be0079c531659141344cd1fd0a4f28419497f9722a3daafe3b4186f6b6457e08280a355005b346101a3575f3660031901126101a3576020604051448152f35b346101a3575f3660031901126101a357323303610866577f0000000000000000000000000000000000000000000000000000000000000000801561085a575b6108485761082161081d7f0000000000000000000000000000000000000000000000000000000000000000610ed1565b1590565b6108365761073f600160ff1981541617600155565b6040516370a4078f60e01b8152600490fd5b604051630f45b98b60e41b8152600490fd5b5060015460ff166107ed565b60405163096650c560e21b8152600490fd5b346101a3575f3660031901126101a3576020604051458152f35b346101a3575f3660031901126101a357638b78c6d819546040516001600160a01b039091168152602090f35b346101a3575f3660031901126101a3576020604051418152f35b346101a35760a03660031901126101a3576108f46004356101c1565b6108ff6024356101c1565b6001600160401b036044358181116101a35761091f903690600401610348565b6064929192358281116101a35761093a903690600401610348565b6084949194359384116101a3576102ad9461095c6109649536906004016101d2565b949093610bf8565b6040516001600160e01b031990911681529081906020820190565b346101a35760203660031901126101a3576020604051600435408152f35b60203660031901126101a3576004356109b5816101c1565b6109bd610d35565b63389a75e1600c52805f526020600c2090815442116109e1575f61073f9255610e5b565b636f5e88185f526004601cfd5b346101a35760a03660031901126101a357610a0a6004356101c1565b610a156024356101c1565b6084356001600160401b0381116101a357610a349036906004016101d2565b90610a3d610cdc565b906001600160a01b038216156102cf57333b156101a3575f91610a7d6040519485938493637921219560e11b855260643590604435903060048801610ca9565b038183335af180156102ca57610aa0575b60405163f23a6e6160e01b8152602090f35b806102be610aad92610b3c565b5f610a8e565b60203660031901126101a357600435610acb816101c1565b610ad3610d35565b8060601b15610ae55761073f90610e5b565b637448fbae5f526004601cfd5b346101a35760203660031901126101a357600435610b0f816101c1565b63389a75e1600c525f52602080600c2054604051908152f35b634e487b7160e01b5f52604160045260245ffd5b6001600160401b038111610b4f57604052565b610b28565b90601f801991011681019081106001600160401b03821117610b4f57604052565b908060209392818452848401375f828201840152601f01601f1916010190565b6001600160a01b039182168152911660208201526040810191909152608060608201819052610bc693910191610b75565b90565b6040513d5f823e3d90fd5b81835290916001600160fb1b0383116101a35760209260051b809284830137010190565b94909290916001600160a01b03610c0d610cdc565b169283156102cf57333b156101a3575f95610c6a610c7994610c566040519a8b998a99631759616b60e11b8b523060048c015260248b015260a060448b015260a48a0191610bd4565b9060031995868984030160648a0152610bd4565b92858403016084860152610b75565b038183335af180156102ca57610c96575b5063bc197c8160e01b90565b806102be610ca392610b3c565b5f610c8a565b9192610bc696949160a094600180871b038092168552166020840152604083015260608201528160808201520191610b75565b6002547f000000000000000000000000000000000000000000000000000000000000000080600414610d1d576003036111cf575c5b6001600160a01b031690565b5060015460ff1615610d2f575c610d11565b54610d11565b638b78c6d819543303610d4457565b6382b429005f526004601cfd5b6001600160a01b0394938516919082610d9f575b610d6f9250611034565b92610d78611112565b47610d81575050565b8116610d965750610d94335b4790611175565b565b610d9490610d8d565b308314610e0157600254927f000000000000000000000000000000000000000000000000000000000000000080600214610de4576001036111cf57610d6f935d610d65565b50610d6f9360ff600154165f14610dfb575d610d65565b55610d65565b604051630bc2c5df60e11b8152306004820152602490fd5b634e487b7160e01b5f52603260045260245ffd5b9190811015610e3d5760051b0190565b610e19565b35610bc6816101c1565b908160209103126101a3575190565b60018060a01b0316638b78c6d8198181547f8be0079c531659141344cd1fd0a4f28419497f9722a3daafe3b4186f6b6457e05f80a355565b3d15610ecc573d906001600160401b038211610b4f5760405191610ec1601f8201601f191660200184610b54565b82523d5f602084013e565b606090565b5f80808093600a5a04fa610ee3610e93565b5090565b5f80545d565b6001600160401b038111610b4f5760051b60200190565b90610f0e82610eed565b604090610f1e6040519182610b54565b8381528093610f2f601f1991610eed565b01905f5b828110610f405750505050565b835190848201918083106001600160401b03841117610b4f5760209286525f815282606081830152828501015201610f33565b8051821015610e3d5760209160051b010190565b9190811015610e3d5760051b81013590607e19813603018212156101a3570190565b903590601e19813603018212156101a357018035906001600160401b0382116101a3576020019181360383136101a357565b908092918237015f815290565b15610fef57565b60405162461bcd60e51b815260206004820152601a60248201527f4d756c746963616c6c333a2076616c7565206d69736d617463680000000000006044820152606490fd5b9190915f9061104284610f04565b935f5b81811061105a57505050610d94903414610fe8565b6110648187610f73565b51611070828486610f87565b5f8060406110a381850135809a019961108886610e42565b926110966060880188610fa9565b9390915180948193610fdb565b03925af1916110b0610e93565b906110c5602094859384840152829015159052565b5191013517156110d85750600101611045565b62461bcd60e51b5f5260045260176024527f4d756c746963616c6c333a2063616c6c206661696c656400000000000000000060445260845ffd5b6001600160a01b03611122610cdc565b1615610d94576002547f000000000000000000000000000000000000000000000000000000000000000080600614611160576005036111cf575f905d565b505f9060ff600154168214611172575d565b55565b5f80809338935af11561118457565b63b12d13eb5f526004601cfd5b60105f604492602095829560145260345263a9059cbb60601b82525af13d1560015f51141716156111c2575f603452565b6390b8ec185f526004601cfd5b634e487b7160e01b5f52605160045260245ffdfea2646970667358221220e50ee55e837168c617b33267a61df6f12319598cb09a964cbc38adfe1646869364736f6c63430008190033","linkReferences":{}},"methodIdentifiers":{"__activateTstore()":"7423eb3c","cancelOwnershipHandover()":"54d1f13d","cleanupErc20s(address[],address[],uint256[])":"3b2253c8","cleanupNative(uint256,address)":"5de81e3f","completeOwnershipHandover(address)":"f04e283e","getBasefee()":"3e64a696","getBlockHash(uint256)":"ee82ac5e","getBlockNumber()":"42cbb15c","getChainId()":"3408e470","getCurrentBlockCoinbase()":"a8b0574e","getCurrentBlockDifficulty()":"72425d9d","getCurrentBlockGasLimit()":"86d516e8","getCurrentBlockTimestamp()":"0f28c97d","getEthBalance(address)":"4d2301cc","getLastBlockHash()":"27e86d6e","multicall((address,bool,uint256,bytes)[],address,address)":"30be5567","onERC1155BatchReceived(address,address,uint256[],uint256[],bytes)":"bc197c81","onERC1155Received(address,address,uint256,uint256,bytes)":"f23a6e61","onERC721Received(address,address,uint256,bytes)":"150b7a02","owner()":"8da5cb5b","ownershipHandoverExpiresAt(address)":"fee81cf4","renounceOwnership()":"715018a6","requestOwnershipHandover()":"25692962","transferOwnership(address)":"f2fde38b"},"id":67}