{"abi":[{"type":"function","name":"approve","inputs":[{"name":"to","type":"address","internalType":"address"},{"name":"tokenId","type":"uint256","internalType":"uint256"}],"outputs":[],"stateMutability":"nonpayable"},{"type":"function","name":"balanceOf","inputs":[{"name":"owner","type":"address","internalType":"address"}],"outputs":[{"name":"","type":"uint256","internalType":"uint256"}],"stateMutability":"view"},{"type":"function","name":"getApproved","inputs":[{"name":"tokenId","type":"uint256","internalType":"uint256"}],"outputs":[{"name":"","type":"address","internalType":"address"}],"stateMutability":"view"},{"type":"function","name":"isApprovedForAll","inputs":[{"name":"owner","type":"address","internalType":"address"},{"name":"operator","type":"address","internalType":"address"}],"outputs":[{"name":"","type":"bool","internalType":"bool"}],"stateMutability":"view"},{"type":"function","name":"mint","inputs":[{"name":"to","type":"address","internalType":"address"},{"name":"tokenId","type":"uint256","internalType":"uint256"}],"outputs":[{"name":"","type":"bool","internalType":"bool"}],"stateMutability":"nonpayable"},{"type":"function","name":"mint","inputs":[{"name":"tokenId","type":"uint256","internalType":"uint256"}],"outputs":[{"name":"","type":"bool","internalType":"bool"}],"stateMutability":"nonpayable"},{"type":"function","name":"name","inputs":[],"outputs":[{"name":"","type":"string","internalType":"string"}],"stateMutability":"view"},{"type":"function","name":"ownerOf","inputs":[{"name":"tokenId","type":"uint256","internalType":"uint256"}],"outputs":[{"name":"","type":"address","internalType":"address"}],"stateMutability":"view"},{"type":"function","name":"safeMint","inputs":[{"name":"tokenId","type":"uint256","internalType":"uint256"}],"outputs":[{"name":"","type":"bool","internalType":"bool"}],"stateMutability":"nonpayable"},{"type":"function","name":"safeMint","inputs":[{"name":"to","type":"address","internalType":"address"},{"name":"tokenId","type":"uint256","internalType":"uint256"}],"outputs":[{"name":"","type":"bool","internalType":"bool"}],"stateMutability":"nonpayable"},{"type":"function","name":"safeTransferFrom","inputs":[{"name":"from","type":"address","internalType":"address"},{"name":"to","type":"address","internalType":"address"},{"name":"tokenId","type":"uint256","internalType":"uint256"}],"outputs":[],"stateMutability":"nonpayable"},{"type":"function","name":"safeTransferFrom","inputs":[{"name":"from","type":"address","internalType":"address"},{"name":"to","type":"address","internalType":"address"},{"name":"tokenId","type":"uint256","internalType":"uint256"},{"name":"data","type":"bytes","internalType":"bytes"}],"outputs":[],"stateMutability":"nonpayable"},{"type":"function","name":"setApprovalForAll","inputs":[{"name":"operator","type":"address","internalType":"address"},{"name":"approved","type":"bool","internalType":"bool"}],"outputs":[],"stateMutability":"nonpayable"},{"type":"function","name":"supportsInterface","inputs":[{"name":"interfaceId","type":"bytes4","internalType":"bytes4"}],"outputs":[{"name":"","type":"bool","internalType":"bool"}],"stateMutability":"view"},{"type":"function","name":"symbol","inputs":[],"outputs":[{"name":"","type":"string","internalType":"string"}],"stateMutability":"view"},{"type":"function","name":"tokenURI","inputs":[{"name":"","type":"uint256","internalType":"uint256"}],"outputs":[{"name":"","type":"string","internalType":"string"}],"stateMutability":"pure"},{"type":"function","name":"transferFrom","inputs":[{"name":"from","type":"address","internalType":"address"},{"name":"to","type":"address","internalType":"address"},{"name":"tokenId","type":"uint256","internalType":"uint256"}],"outputs":[],"stateMutability":"nonpayable"},{"type":"event","name":"Approval","inputs":[{"name":"owner","type":"address","indexed":true,"internalType":"address"},{"name":"approved","type":"address","indexed":true,"internalType":"address"},{"name":"tokenId","type":"uint256","indexed":true,"internalType":"uint256"}],"anonymous":false},{"type":"event","name":"ApprovalForAll","inputs":[{"name":"owner","type":"address","indexed":true,"internalType":"address"},{"name":"operator","type":"address","indexed":true,"internalType":"address"},{"name":"approved","type":"bool","indexed":false,"internalType":"bool"}],"anonymous":false},{"type":"event","name":"Transfer","inputs":[{"name":"from","type":"address","indexed":true,"internalType":"address"},{"name":"to","type":"address","indexed":true,"internalType":"address"},{"name":"tokenId","type":"uint256","indexed":true,"internalType":"uint256"}],"anonymous":false},{"type":"error","name":"ERC721IncorrectOwner","inputs":[{"name":"sender","type":"address","internalType":"address"},{"name":"tokenId","type":"uint256","internalType":"uint256"},{"name":"owner","type":"address","internalType":"address"}]},{"type":"error","name":"ERC721InsufficientApproval","inputs":[{"name":"operator","type":"address","internalType":"address"},{"name":"tokenId","type":"uint256","internalType":"uint256"}]},{"type":"error","name":"ERC721InvalidApprover","inputs":[{"name":"approver","type":"address","internalType":"address"}]},{"type":"error","name":"ERC721InvalidOperator","inputs":[{"name":"operator","type":"address","internalType":"address"}]},{"type":"error","name":"ERC721InvalidOwner","inputs":[{"name":"owner","type":"address","internalType":"address"}]},{"type":"error","name":"ERC721InvalidReceiver","inputs":[{"name":"receiver","type":"address","internalType":"address"}]},{"type":"error","name":"ERC721InvalidSender","inputs":[{"name":"sender","type":"address","internalType":"address"}]},{"type":"error","name":"ERC721NonexistentToken","inputs":[{"name":"tokenId","type":"uint256","internalType":"uint256"}]}],"bytecode":{"object":"0x6080346102b8576001600160401b0390604090808201838111828210176101e257825260078152602092665465737437323160c81b84830152825193838501858110838211176101e2578452600685526554535437323160d01b818601528251908282116101e2575f54916001948584811c941680156102ae575b838510146101c4578190601f94858111610260575b508390858311600114610201575f926101f6575b50505f19600383901b1c191690851b175f555b85519283116101e25783548481811c911680156101d8575b828210146101c457828111610181575b50809183116001146101215750819293945f92610116575b50505f19600383901b1c191690821b1790555b51610d8990816102bd8239f35b015190505f806100f6565b90601f19831695845f52825f20925f905b88821061016a5750508385969710610152575b505050811b019055610109565b01515f1960f88460031b161c191690555f8080610145565b808785968294968601518155019501930190610132565b845f52815f208380860160051c8201928487106101bb575b0160051c019085905b8281106101b05750506100de565b5f81550185906101a2565b92508192610199565b634e487b7160e01b5f52602260045260245ffd5b90607f16906100ce565b634e487b7160e01b5f52604160045260245ffd5b015190505f806100a3565b90879350601f198316915f8052855f20925f5b8782821061024a5750508411610232575b505050811b015f556100b6565b01515f1960f88460031b161c191690555f8080610225565b8385015186558b97909501949384019301610214565b9091505f8052835f208580850160051c8201928686106102a5575b918991869594930160051c01915b82811061029757505061008f565b5f8155859450899101610289565b9250819261027b565b93607f169361007a565b5f80fdfe6080604090808252600480361015610015575f80fd5b5f3560e01c91826301ffc9a71461070d5750816306fdde0314610647578163081812fc1461060f578163095ea7b31461053457816323b872dd1461051d57816331c864e8146104fe57816340c10f19146104d657816342842e0e146104a85781636352211e1461047957816370a082311461042557816395d89b4114610316578163a0712d68146102f7578163a1448194146102c8578163a22cb4651461022d578163b88d4fde1461019c578163c87b56dd1461012c575063e985e9c5146100db575f80fd5b346101285780600319360112610128576020906100f66107b5565b6100fe6107cb565b9060018060a01b038091165f5260058452825f2091165f52825260ff815f20541690519015158152f35b5f80fd5b82346101285760203660031901126101285780519080820182811067ffffffffffffffff82111761018957610185935081526008825267746f6b656e55524960c01b602083015251918291602083526020830190610777565b0390f35b604184634e487b7160e01b5f525260245ffd5b8234610128576080366003190112610128576101b66107b5565b6101be6107cb565b604435916064359467ffffffffffffffff86116101285736602387011215610128578501356101f86101ef82610868565b95519586610846565b8085523660248288010111610128576020815f92602461022b99018389013786010152610226838383610884565b610c6e565b005b82346101285780600319360112610128576102466107b5565b9060243591821515809303610128576001600160a01b03169283156102b35750335f526005602052805f20835f52602052805f2060ff1981541660ff8416179055519081527f17307eab39ab6107e8899845ad3d59bd9653f200f220920489ca2b5937696c3160203392a3005b836024925191630b61174360e31b8352820152fd5b82346101285780600319360112610128576020906102f06102e76107b5565b60243590610a54565b5160018152f35b8234610128576020366003190112610128576102f06020923533610b9c565b8234610128575f366003190112610128578051905f90600191600154928360011c906001851694851561041b575b6020958684108114610408578388528794939291879082156103e657505060011461038b575b5050610185929161037c910385610846565b51928284938452830190610777565b9085925060015f527fb10e2d527612073b26eecdfd717e6a320cf44b4afac2b0732d9fcbe2b7fa0cf6915f925b8284106103ce575050508201018161037c61036a565b8054848a0186015288955087949093019281016103b8565b60ff19168682015292151560051b8501909201925083915061037c905061036a565b602289634e487b7160e01b5f525260245ffd5b91607f1691610344565b8234610128576020366003190112610128576001600160a01b036104476107b5565b16801561046357602092505f5260038252805f20549051908152f35b81516322718ad960e21b81525f81850152602490fd5b82346101285760203660031901126101285761049760209235610a1a565b90516001600160a01b039091168152f35b82346101285761022b906104bb366107e1565b919251926104c884610816565b5f8452610226838383610884565b82346101285780600319360112610128576020906102f06104f56107b5565b60243590610b9c565b8234610128576020366003190112610128576102f06020923533610a54565b346101285761022b61052e366107e1565b91610884565b823461012857806003193601126101285761054d6107b5565b9160243561055a81610a1a565b331515806105fc575b806105d5575b6105bf576001600160a01b039485169482918691167f8c5be1e5ebec7d5bd14f71427d1e84f3dd0314c0f7b2291e5b200ac8c7c3b9255f80a45f526020525f20906001600160601b0360a01b8254161790555f80f35b835163a9fbf51f60e01b81523381850152602490fd5b5060018060a01b0381165f526005602052835f20335f5260205260ff845f20541615610569565b506001600160a01b038116331415610563565b823461012857602036600319011261012857816020923561062f81610a1a565b505f52825260018060a01b03815f2054169051908152f35b8234610128575f366003190112610128578051905f905f549160018360011c9060018516948515610703575b6020958684108114610408578388528794939291879082156103e65750506001146106aa575050610185929161037c910385610846565b5f80805286935091907f290decd9548b62a8d60345a988386fc84ba6bc95484008f6362f93160ef3e5635b8284106106eb575050508201018161037c61036a565b8054848a0186015288955087949093019281016106d5565b91607f1691610673565b903461012857602036600319011261012857359063ffffffff60e01b8216809203610128576020916380ac58cd60e01b8114908115610766575b8115610755575b5015158152f35b6301ffc9a760e01b1490508361074e565b635b5e139f60e01b81149150610747565b91908251928382525f5b8481106107a1575050825f602080949584010152601f8019910116010190565b602081830181015184830182015201610781565b600435906001600160a01b038216820361012857565b602435906001600160a01b038216820361012857565b6060906003190112610128576001600160a01b0390600435828116810361012857916024359081168103610128579060443590565b6020810190811067ffffffffffffffff82111761083257604052565b634e487b7160e01b5f52604160045260245ffd5b90601f8019910116810190811067ffffffffffffffff82111761083257604052565b67ffffffffffffffff811161083257601f01601f191660200190565b6001600160a01b039182169290918315610a0257815f52602092600284528260409583875f2054169533151580610970575b506002908761093f575b825f5260038152885f2060018154019055835f5252865f20816001600160601b0360a01b825416179055857fddf252ad1be2c89b69c2b068fc378daa952ba7f163c4a11628f55a4df523b3ef5f80a4169283830361091e5750505050565b6064945051926364283d7b60e01b8452600484015260248301526044820152fd5b5f84815260046020526040812080546001600160a01b03191690558881526003825289902080545f190190556108c0565b91925090806109c1575b15610988579084915f6108b6565b8685876109a5576024915190637e27328960e01b82526004820152fd5b604491519063177e802f60e01b82523360048301526024820152fd5b5033861480156109e6575b8061097a5750845f52600481523384885f2054161461097a565b50855f5260058152865f20335f52815260ff875f2054166109cc565b604051633250574960e11b81525f6004820152602490fd5b5f818152600260205260409020546001600160a01b0316908115610a3c575090565b60249060405190637e27328960e01b82526004820152fd5b9060405191610a6283610816565b5f8352610a6f8282610b9c565b803b610a7a57505050565b90610ac2939160018060a01b03169260405190630a85bd0160e11b928383523360048401525f6024840152604483015260806064830152818060209788936084830190610777565b03815f885af15f9181610b5c575b50610b2d575050503d5f14610b26573d610ae981610868565b90610af76040519283610846565b81523d5f8483013e5b80519283610b2157604051633250574960e11b815260048101849052602490fd5b019050fd5b6060610b00565b9193506001600160e01b031990911603610b445750565b60249060405190633250574960e11b82526004820152fd5b9091508581813d8311610b95575b610b748183610846565b8101031261012857516001600160e01b03198116810361012857905f610ad0565b503d610b6a565b6001600160a01b0390811691908215610a0257815f52600260205260405f205416918215159283610c3b575b815f52600360205260405f2060018154019055825f52600260205260405f20826001600160601b0360a01b8254161790557fddf252ad1be2c89b69c2b068fc378daa952ba7f163c4a11628f55a4df523b3ef5f80a4610c2357565b6040516339e3563760e11b81525f6004820152602490fd5b5f83815260046020526040902080546001600160a01b0319169055805f52600360205260405f205f198154019055610bc8565b9192813b610c7d575b50505050565b604051630a85bd0160e11b8082523360048301526001600160a01b03948516602483015260448201959095526080606482015260209593909216939190859082908190610cce906084830190610777565b03815f885af15f9181610d13575b50610cf5575050503d5f14610b26573d610ae981610868565b9193506001600160e01b031990911603610b4457505f808080610c77565b9091508581813d8311610d4c575b610d2b8183610846565b8101031261012857516001600160e01b03198116810361012857905f610cdc565b503d610d2156fea2646970667358221220669821491c6a9cece58c4c2e5baa400ae5f11e676b476a8cdd3929201cec23f164736f6c63430008190033","linkReferences":{}},"methodIdentifiers":{"approve(address,uint256)":"095ea7b3","balanceOf(address)":"70a08231","getApproved(uint256)":"081812fc","isApprovedForAll(address,address)":"e985e9c5","mint(address,uint256)":"40c10f19","mint(uint256)":"a0712d68","name()":"06fdde03","ownerOf(uint256)":"6352211e","safeMint(address,uint256)":"a1448194","safeMint(uint256)":"31c864e8","safeTransferFrom(address,address,uint256)":"42842e0e","safeTransferFrom(address,address,uint256,bytes)":"b88d4fde","setApprovalForAll(address,bool)":"a22cb465","supportsInterface(bytes4)":"01ffc9a7","symbol()":"95d89b41","tokenURI(uint256)":"c87b56dd","transferFrom(address,address,uint256)":"23b872dd"},"id":113}