{"abi":[{"type":"function","name":"getBlockHash","inputs":[{"name":"blockNumber","type":"uint256","internalType":"uint256"}],"outputs":[{"name":"blockHash","type":"bytes32","internalType":"bytes32"}],"stateMutability":"view"},{"type":"function","name":"sendBackValue","inputs":[{"name":"target","type":"address","internalType":"address"}],"outputs":[],"stateMutability":"payable"},{"type":"function","name":"thisMethodReverts","inputs":[],"outputs":[],"stateMutability":"pure"},{"type":"error","name":"Unsuccessful","inputs":[]}],"bytecode":{"object":"0x60808060405234601557610161908161001a8239f35b5f80fdfe60808060405260049081361015610014575f80fd5b5f3560e01c908163032d00741461010d5750806336c40ea6146100615763ee82ac5e1461003f575f80fd5b3461005d57602036600319011261005d576020906040519035408152f35b5f80fd5b50602036600319011261005d5780356001600160a01b038116810361005d575f8080809334905af13d156101085767ffffffffffffffff3d8181116100f55760405191601f8201601f19908116603f01168301908111838210176100e25760405281525f60203d92013e5b156100d357005b6040516381775cc360e01b8152fd5b604185634e487b7160e01b5f525260245ffd5b604184634e487b7160e01b5f525260245ffd5b6100cc565b90503461005d575f36600319011261005d576381775cc360e01b8152fdfea2646970667358221220c833f5e299a84b5a19e5aa9f123e0737db9134a0585af76f925a169b986fa64364736f6c63430008190033","linkReferences":{}},"methodIdentifiers":{"getBlockHash(uint256)":"ee82ac5e","sendBackValue(address)":"36c40ea6","thisMethodReverts()":"032d0074"},"id":115}