{"abi":[{"type":"constructor","inputs":[{"name":"_target","type":"address","internalType":"address"},{"name":"_token","type":"address","internalType":"address"},{"name":"_recipient","type":"address","internalType":"address"}],"stateMutability":"nonpayable"},{"type":"receive","stateMutability":"payable"},{"type":"function","name":"recipient","inputs":[],"outputs":[{"name":"","type":"address","internalType":"address"}],"stateMutability":"view"},{"type":"function","name":"stealthemoney","inputs":[],"outputs":[],"stateMutability":"payable"},{"type":"function","name":"target","inputs":[],"outputs":[{"name":"","type":"address","internalType":"address"}],"stateMutability":"view"},{"type":"function","name":"token","inputs":[],"outputs":[{"name":"","type":"address","internalType":"address"}],"stateMutability":"view"},{"type":"event","name":"MsgSender","inputs":[{"name":"sender","type":"address","indexed":false,"internalType":"address"}],"anonymous":false}],"bytecode":{"object":"0x608034609557601f6102a038819003918201601f19168301916001600160401b0383118484101760995780849260609460405283398101031260955760428160ad565b906057604060516020840160ad565b920160ad565b60018060a01b0380928160018060a01b03199516855f5416175f5516836001541617600155169060025416176002556040516101df90816100c18239f35b5f80fd5b634e487b7160e01b5f52604160045260245ffd5b51906001600160a01b038216820360955756fe608060409080825260043610156100f3575b50361561001c575f80fd5b7f7bf2655c5b27bca5462f1f973c316c9537b2da6083e494b623f3313ad847ec0860208251338152a160018060a01b0390815f541682600154169260025416908251916020830194630f6b432760e21b86526024840152604483015260448252608082019067ffffffffffffffff94838310868411176100d8575f938493865251915af4913d156100ec573d918183116100d857603f601f91821992839151950116011682019182109111176100d8575b156100d457005b5f80fd5b634e487b7160e01b5f52604160045260245ffd5b50506100cd565b5f3560e01c90816366d003ac1461018657508063711010f614610179578063d4b83992146101525763fc0c546a1461012b575f610011565b346100d4575f3660031901126100d45760015490516001600160a01b039091168152602090f35b50346100d4575f3660031901126100d4575f5490516001600160a01b039091168152602090f35b5f3660031901126100d457005b346100d4575f3660031901126100d4576002546001600160a01b03168152602090f3fea2646970667358221220505fde75d79bc5a8a7f3ea4a7342affe879e0da2477057a1f79987ecec1db0ff64736f6c63430008190033","linkReferences":{}},"methodIdentifiers":{"recipient()":"66d003ac","stealthemoney()":"711010f6","target()":"d4b83992","token()":"fc0c546a"},"id":107}