{"abi":[{"type":"constructor","inputs":[],"stateMutability":"nonpayable"},{"type":"function","name":"__activateTstore","inputs":[],"outputs":[],"stateMutability":"nonpayable"},{"type":"error","name":"OnlyDirectCalls","inputs":[]},{"type":"error","name":"TStoreAlreadyActivated","inputs":[]},{"type":"error","name":"TStoreNotSupported","inputs":[]},{"type":"error","name":"TloadTestContractDeploymentFailed","inputs":[]}],"bytecode":{"object":"0x61012080604052346100ab57696002601e613d5c3d52f35f52600a60165ff0906001600160a01b0382161561009c5750610038816100c3565b801561008757600160c052600360e0526005610100525b60a052608052604051610185908161011a8239608051816071015260a051816041015260c05181505060e05181505061010051815050f35b600260c052600460e05260066101005261004f565b632aea588760e01b8152600490fd5b5f80fd5b634e487b7160e01b5f52604160045260245ffd5b5f80808093600a5a04fa3d15610116576001600160401b033d8181116101115760405191601f8201601f19908116603f01168301908111838210176101115760405281525f60203d92013e90565b6100af565b9056fe60808060405260049081361015610014575f80fd5b5f3560e01c637423eb3c14610027575f80fd5b3461014b575f36600319011261014b5732330361013f57507f00000000000000000000000000000000000000000000000000000000000000008015610134575b610125575f8080807f0000000000000000000000000000000000000000000000000000000000000000600a5a04fa3d156101205767ffffffffffffffff3d81811161010d5760405191601f8201601f19908116603f01168301908111838210176100fa5760405281525f60203d92013e5b156100eb575f805460ff19166001179055005b6040516370a4078f60e01b8152fd5b604185634e487b7160e01b5f525260245ffd5b604184634e487b7160e01b5f525260245ffd5b6100d8565b604051630f45b98b60e41b8152fd5b5060ff5f5416610067565b63096650c560e21b8152fd5b5f80fdfea2646970667358221220e2da0932dffab73cacafd1b2eeba8bebb841298451b828285fd61134ba60f90e64736f6c63430008190033","linkReferences":{}},"methodIdentifiers":{"__activateTstore()":"7423eb3c"},"id":51}